:100000000C942C010C9449010C9449010C94490165
:100010000C9449010C9449010C9449010C94490138
:100020000C9449010C9449010C9449010C94490128
:100030000C9449010C9449010C9449010C94490118
:100040000C9449010C9449010C948E0E0C944901B6
:100050000C94210F0C944C0F0C9449010C94490101
:100060000C9449010C9449010C9449010C944901E8
:100070000C94E10F0C940C100C9449012020004DBD
:100080006F004469004D6900446F0046720053617F
:1000900000536F002F30004D656E756531004D6562
:1000A0006E756532004D656E7565330097009E0074
:1000B000A5009009E00AF5072A4D41494E3120611B
:1000C00075736675656872656E2A002A4D41494EE2
:1000D00032206175736675656872656E2A004D41E0
:1000E000494E33206175736675656872656E00549C
:1000F0006F704D656EFC005A6569742045696E73BA
:1001000074656C6C756E67656E20204D6F6E646CE7
:100110006963687420617573736368616C74656E7C
:100120003A005A6569742045696E7374656C6C7524
:100130006E67656E20204D6F6E646C696368742015
:1001400065696E7374656C6C656E3A005A656974A6
:100150002045696E7374656C6C756E67656E2020E2
:100160004C616D706520617573736368616C746553
:100170006E3A005A6569742045696E7374656C6CDB
:10018000756E67656E20204C616D70652065696EC7
:10019000736368616C74656E3A00416B7475656C6D
:1001A0006C65205568727A65697420202020656925
:1001B0006E676562656E00416B7475656C6C657326
:1001C00020446174756D202020202065696E67656C
:1001D00062656E004879737465726573653A0054A0
:1001E000656D702E204D696E3A0054656D702E203D
:1001F0004D61783A0054656D706572617475722056
:100200004D696E2F4D61783A004879737465726557
:1002100073653A004C756566746572206175733A52
:10022000004C7565667465722065696E3A004C75A0
:1002300065667465722065696E7374656C6C756E45
:1002400067004865697A65722065696E7374656CCC
:100250006C756E67656E000011241FBECFEFD0E194
:10026000DEBFCDBF11E0A0E0B1E0E6E4F8E202C0FD
:1002700005900D92AC3DB107D9F713E0ACEDB1E0BC
:1002800001C01D92AA32B107E1F70E94F00D0C9453
:1002900021140C94000008951F9380ED0E944704E0
:1002A0008823A9F480E00E949E0481ED0E949304BB
:1002B0000E94B904182F0E94960480ED0E94470402
:1002C00080E00E949E04812F8F770E949E040E94EE
:1002D00096041F910895CF92DF92EF92FF920F93B1
:1002E0001F93CF93DF93EC0180ED0E944704882396
:1002F00019F00E94960460C080E00E949E0481ED87
:100300000E9493040E94AF04D82E0E94AF04E82EEE
:100310000E94AF04F82E0E94AF04C82E0E94AF04C2
:10032000082F0E94AF04182F0E94B9042D2D22958A
:100330002F70220F922F990F990F920F2D2D2F7042
:10034000920F99832E2D22952F70220F922F990FA5
:10035000990F920F2E2D2F70920F98832F2D22958B
:100360002F70220F922F990F990F920F2F2D2F7010
:10037000920F9A83202F22952F70220F922F990F80
:10038000990F920F0F70900F9B83CC82212F229593
:100390002F70220F922F990F990F920F1F70910FAC
:1003A0009D83282F22952F70220F922F990F990F3E
:1003B000920F8F70980F9E83DF91CF911F910F91B5
:1003C000FF90EF90DF90CF9008951F93CF93DF932E
:1003D000EC0180ED0E9447048823F9F480E00E943C
:1003E0009E0489811AE0612F0E94C0108295807F4F
:1003F000892B0E949E048881612F0E94C0108295E3
:10040000807F892B0E949E048A81612F0E94C010E8
:100410008295807F892B0E949E040E949604DF9122
:10042000CF911F9108951F93CF93DF93EC0180ED3F
:100430000E944704882311F583E00E949E048C816A
:100440000E949E048B811AE0612F0E94C010829549
:10045000807F892B0E949E048D81612F0E94C01095
:100460008295807F892B0E949E048E81612F0E943D
:10047000C0108295807F892B0E949E040E94960462
:10048000DF91CF911F91089594EA9093BC009091D1
:10049000BC0097FFFCCF8093BB0084E88093BC0036
:1004A0008091BC0087FFFCCF84E88093BC008091E2
:1004B000BC0087FFFCCF3091BB0084E88093BC0078
:1004C0008091BC0087FFFCCF2091BB0084EC80931F
:1004D000BC008091BC0087FFFCCF84E98093BC0006
:1004E000932F80E030E0282B392BC90108951F930A
:1004F000182F80E70E946C042091000130910101C7
:100500002115310519F0812F806402C0812F8F7B66
:100510000E949E040E9496041F9108951F93182F15
:100520001068812F0E947702812F0E94770280E05D
:100530000E9477021F9108951F93182F82958F7044
:1005400080610E948E02812F8F7080610E948E02D6
:100550001F9108951F93CF93DF93EC0110E003C028
:100560000E949C021F5FFE01E10FF11D8081882324
:10057000B9F7DF91CF911F9108951F93BC018CEDC6
:1005800091E00E94091110E004C080810E949C0249
:100590001F5FE12FF0E0E452FE4F80818823A9F72E
:1005A0001F9108951F93162F853000F56531F0F4E3
:1005B0008823E1F06623D1F0833041F0843041F0AC
:1005C000823011F0115805C0115403C01D5601C0EE
:1005D0001D52812F82958F7080680E948E02812F1C
:1005E0008F7080680E948E0281E001C080E01F91C0
:1005F0000895CF93DF93EA010E94D202882329F065
:10060000CE010E94AA0281E001C080E0DF91CF917B
:100610000895DF93CF930F92CDB7DEB749830E9441
:10062000D2024981882329F0842F0E949C0281E014
:1006300001C080E00F90CF91DF910895FF920F935A
:100640001F93CF93DF93082F162FEA01FF240FC0CB
:10065000802F612F0E940903882389F01F5F1531C5
:1006600010F00F5F11E0053008F001E0F394FE0197
:10067000EF0DF11D4081442359F781E001C080E076
:10068000DF91CF911F910F91FF900895FF920F93EB
:100690001F93CF93DF93082F162FEA01FF240BC07F
:1006A000802F612F0E940903882369F01F5F153195
:1006B00008F011E0F394FE01EF0DF11D4081442399
:1006C00079F781E001C080E0DF91CF911F910F9118
:1006D000FF900895DF93CF930F92CDB7DEB781E7F8
:1006E0000E946C040E94B90489830E949604898147
:1006F0000F90CF91DF9108951F93882311F08FEB16
:1007000001C08FEA0E9477020E946A03182F80E0DE
:100710000E947702812F1F9108950F931F93182F26
:100720000E947C03082F812F0E947C038F7002950A
:10073000007F800F1F910F9108950F931F93CF9308
:10074000DF93EC018B0180E00E948D0387FD1CC0CC
:10075000982F907F943171F0953118F4992331F0EE
:1007600013C0903429F0943579F406C091E005C0A7
:1007700092E003C093E001C094E098838F708F5F94
:10078000F801808381E001C080E0DF91CF911F916B
:100790000F910895DF93CF9300D0CDB7DEB71982C4
:1007A0001A82CE010196BE016E5F7F4F0E949D03AB
:1007B00089818F5F61E00E94D2020F900F90CF91EC
:1007C000DF91089580E00E948D03881F8827881F8D
:1007D000089520E030E055E005C0452F4A95F1F737
:1007E0002F5F3F4F28173907C0F3089520E030E00E
:1007F00040EA5FE005C0FA013197F1F72F5F3F4F04
:1008000028173907C0F308951F93182F82958F700A
:100810000E948E02812F8F700E948E0281E090E0F4
:100820000E94F6031F91089580E190E00E94F60374
:1008300083E00E948E0285E090E00E94F60383E050
:100840000E948E0285E690E00E94E90383E00E9408
:100850008E0282E00E948E0288E20E94040488E0F8
:100860000E94040481E00E94040486E00E940404C3
:100870008CE00E940404089590930101809300018C
:1008800008951092B90088E48093B800089594EA1E
:100890009093BC009091BC0097FFFCCF9091B90061
:1008A000987F983011F0903199F48093BB0084E8E0
:1008B0008093BC008091BC0087FFFCCF9091B90071
:1008C000987F983139F081E0903429F480E00895E0
:1008D00081E0089580E0089544EA34E824E94093F3
:1008E000BC009091BC0097FFFCCF9091B900987F1D
:1008F000983011F0903199F78093BB003093BC0091
:100900009091BC0097FFFCCF9091B900987F9032F6
:1009100011F0983539F42093BC009091BC0094FDFF
:10092000FCCFDDCF08950E944704089584E98093A9
:10093000BC008091BC0084FDFCCF08958093BB0077
:1009400084E88093BC008091BC0087FFFCCF90912D
:10095000B900987F81E0983209F480E0089584EC32
:100960008093BC008091BC0087FFFCCF8091BB00CE
:10097000089584E88093BC008091BC0087FFFCCF81
:100980008091BB0008951F93DF93CF930F92CDB753
:10099000DEB7182F0E944704882339F00E9496047E
:1009A0000E944B0120E030E019C080E00E949E04CC
:1009B000812F8F5F0E9493040E94AF04182F0E9422
:1009C000B90489830E949604312F20E08981280F81
:1009D000311D83E0369527958A95E1F7C9010F907F
:1009E000CF91DF911F9108958FEE90E00E94AA02AF
:1009F0008FEF97EAA1E681509040A040E1F700C058
:100A0000000008958FE081B980E38AB987B1806CD6
:100A100087B908956F927F928F929F92AF92BF9203
:100A2000CF92DF92EF92FF920F931F93DF93CF93BA
:100A30000F92CDB7DEB73C018FE00E940404DD24A5
:100A400091E00EEE12E064E1E62E61E0F62E5CE04D
:100A5000C52E43E6B42E3FE1A32E27E0922E02C01E
:100A6000DD2490E06D2D660F6D0D6E5F83E0998340
:100A70000E94D20288E00E94050F9981882329F004
:100A80008D2D8330B1F1D39438C082E099830E94D8
:100A9000050F9981882321F0DD2069F1DA942DC0BA
:100AA00080E299830E94EF0E882309F040C184E020
:100AB0000E94EF0E9981882301F18CE00E940404CA
:100AC00081E00E940404C3010E94130281E061E0FE
:100AD00042E051E00E9446038FEF99E6A8E1815081
:100AE0009040A040E1F700C0000081E00E940404B3
:100AF0001EC1DD2402C083E0D82E992309F448C02A
:100B0000D30114966C9183E0689FB001112464585E
:100B10007F4F88E892E00E9409110E94AA0283E0B8
:100B200061E048E852E00E94F90282E191E00E940F
:100B3000AA02EDB7FEB73A970FB6F894FEBF0FBE04
:100B4000EDBF3196ADB7BEB712961C930E931197B9
:100B5000F382E282D30113968C91139784831582DA
:100B600015968C9115978683178216968C9180879F
:100B700011860E941011EDB7FEB73A960FB6F894A1
:100B8000FEBF0FBEEDBF83E064E0A8010E94F90242
:100B9000FD2DF23009F461C0F33009F493C0F13057
:100BA00079F181E00E94EF0ED82E81E00E94FA0ECA
:100BB0008D2969F0D30114968C911497873029F40C
:100BC00081E014968C93149719C08F5F15C080E153
:100BD0000E94EF0ED82E80E10E94FA0E8D2909F4B2
:100BE0003FCFD30114968C911497813021F4149641
:100BF0009C92149703C08150F3018483DD2495C037
:100C000081E00E94EF0E882E81E00E94FA0E882972
:100C100061F0D30113968C9113978F3121F41396C1
:100C2000DC92139782C08F5F15C080E10E94EF0EA7
:100C3000882E80E10E94FA0E882909F412CFD30190
:100C400013968C911397813021F41396AC921397DD
:100C50006CC08150F301838368C081E00E94EF0E75
:100C6000882E81E00E94FA0E882981F0D301159622
:100C70008C9115978C3029F481E015968C931597FB
:100C800003C08F5FF301858391E001C090E080E1B4
:100C900099830E94EF0E882E80E10E94FA0E882927
:100CA0009981882309F4DECED30115968C9115978E
:100CB000813021F41596CC92159737C08150F301FD
:100CC000858333C081E00E94EF0E882E81E00E9470
:100CD000FA0E882979F0D30116968C9116978336EF
:100CE00021F416961C92169703C08F5FF30186833A
:100CF00091E001C090E080E199830E94EF0E882E80
:100D000080E10E94FA0E88299981882309F4AACEED
:100D1000D30116968C911697882321F41696BC92CF
:100D2000169703C08150F301868391E09BCE81E04A
:100D30000E9404040F90CF91DF911F910F91FF90BB
:100D4000EF90DF90CF90BF90AF909F908F907F906B
:100D50006F9008956F927F928F929F92AF92BF9201
:100D6000CF92DF92EF92FF920F931F93DF93CF9377
:100D70000F92CDB7DEB73C017B01BB2491E00EEEB4
:100D800012E0A4E2CA2EA1E0DA2EFBE3AF2EE7E1E7
:100D90009E2E02C0BB2490E08FE099830E94040441
:100DA0006B2D660F6B0D6E5F83E00E94D20288E0B0
:100DB0000E94050F9981882331F08B2D823009F430
:100DC00040C0B39442C082E099830E94050F99818C
:100DD000882321F0BB20B9F1BA9437C080E299830F
:100DE0000E94EF0E882309F0EDC084E00E94EF0E10
:100DF0009981882351F18CE00E94040481E00E94D3
:100E00000404E114F10439F0C301B70147E050E0F4
:100E10000E94321303C0C3010E94E50181E061E03A
:100E200042E051E00E9446038FEF99E6A8E181502D
:100E30009040A040E1F700C0000081E00E9404045F
:100E4000C1C0BB2402C072E0B72E992369F1ADB7CF
:100E5000BEB71A970FB6F894BEBF0FBEADBFEDB7C1
:100E6000FEB7319612961C930E931197D382C282CD
:100E7000D30112968C911297848315828C9186836C
:100E8000178211968C91808711860E941011EDB700
:100E9000FEB73A960FB6F894FEBF0FBEEDBF83E0E3
:100EA00061E0A8010E94F902FB2DF13089F1F230D6
:100EB00009F453C081E00E94EF0EB82E81E00E9439
:100EC000FA0E8B2961F0D30112968C91129787311B
:100ED00021F412961C92129719C08F5F15C080E101
:100EE0000E94EF0EB82E80E10E94FA0E8B2909F4C1
:100EF00051CFD30112968C911297882321F4129628
:100F00009C92129703C08150F3018283BB2458C086
:100F100081E00E94EF0E882E81E00E94FA0E88295F
:100F200041F0D3018C918B3311F41C9249C08F5F37
:100F300011C080E10E94EF0E882E80E10E94FA0E1F
:100F4000882909F428CFD3018C91882311F4AC921D
:100F500037C08150F301808333C081E00E94EF0EDF
:100F6000882E81E00E94FA0E882979F0D30111962B
:100F70008C9111978B3321F411961C92119703C019
:100F80008F5FF301818391E001C090E080E199835C
:100F90000E94EF0E882E80E10E94FA0E8829998126
:100FA000882309F4F9CED30111968C9111978823E7
:100FB00021F41196AC92119703C08150F301818303
:100FC00091E0EACE81E00E9404040F90CF91DF917E
:100FD0001F910F91FF90EF90DF90CF90BF90AF9057
:100FE0009F908F907F906F9008950F931F93CF9352
:100FF000DF9381E00E940404C8E8D2E0CE0167EBF1
:1010000071E00E940911AC0181E061E00E941E03C1
:101010000EEB12E0C8010E940A0581E00E94040460
:10102000CE016AE971E00E940911AC0181E061E042
:101030000E941E03C80160E070E00E94AA0681E0E1
:101040000E940404CE0163E771E00E940911AC0123
:1010500081E061E00E941E038BEF92E063E170E0AB
:101060000E94AA0681E00E940404CE016CE471E0B3
:101070000E940911AC0181E061E00E941E0387EE2D
:1010800092E06AE170E00E94AA0681E00E940404F6
:10109000CE0162E271E00E940911AC0181E061E0E1
:1010A0000E941E0388E193E061E270E00E94AA06BC
:1010B00081E00E940404CE0167EF70E00E940911F4
:1010C000AC0181E061E00E941E038FE193E068E2E1
:1010D00070E00E94AA0681E00E940404DF91CF9193
:1010E0001F910F910895CF92DF92EF92FF920F938D
:1010F0001F93CF93DF93EB019C01B901882777FD04
:101100008095982F21E732E040E050E00E94A11046
:1011100020E137E240E050E00E94CC1079018A01E2
:1011200028EE33E040E050E00E94CC10C90137FFC8
:1011300034C0909581959F4FE114F104B1F4ADB79F
:10114000BEB718970FB6F894BEBF0FBEADBFEDB7D0
:10115000FEB731961296DC93CE93119723E331E0DC
:10116000338322831582148215C0ADB7BEB718979A
:101170000FB6F894BEBF0FBEADBFEDB7FEB7319648
:101180001296DC93CE9311972BE331E033832283C5
:10119000F582E4829783868319C08DB79EB708973E
:1011A0000FB6F8949EBF0FBE8DBFEDB7FEB7319658
:1011B000ADB7BEB71296DC93CE9311978BE391E057
:1011C00093838283F582E482378326830E94101101
:1011D0002DB73EB7285F3F4F0FB6F8943EBF0FBE06
:1011E0002DBFDF91CF911F910F91FF90EF90DF9076
:1011F000CF900895FF920F931F93CF93DF93EC014D
:10120000F88081E061E042E451E00E94460380E919
:101210000E94C3048C0161ED72E00E94730882E0B9
:1012200061E045E551E00E94460381ED92E00E94B5
:10123000AA0283E061E042E651E00E944603888111
:10124000992787FD9095800F911F61ED72E00E94B4
:10125000730881ED92E00E94AA028881992787FD98
:10126000909561ED72E00E94730884E061E04FE6C2
:1012700051E00E94460381ED92E00E94AA028CE7B1
:1012800091E00E94AA0281E00E94EF0E082F81E007
:101290000E94FA0E802B19F088818E5F888380E18E
:1012A0000E94EF0E082F80E10E94FA0E802B19F0A9
:1012B00088818250888384E00E94EF0E082F84E0AA
:1012C0000E94FA0E802BD9F081E00E94040481E094
:1012D00061E042E051E00E94460380E090E06881D6
:1012E0000E943C138FEF99E6A8E181509040A04006
:1012F000E1F700C0000081E00E9404040BC080E21E
:101300000E94EF0E082F80E20E94FA0E802B09F453
:101310007ECFF882DF91CF911F910F91FF900895BA
:1013200081E00E94040487EB92E00E94FA0881E0C9
:101330000E94040408956F927F928F929F92AF92C1
:10134000BF92CF92DF92EF92FF920F931F93DF93A2
:10135000CF93CDB7DEB72D970FB6F894DEBF0FBE93
:10136000CDBF3C016B015A0179014801CE010196C4
:10137000D90126E00D90FC010192CF012150D1F757
:101380001F8282E061E0A3010E94460383E061E0E6
:10139000A6010E94460384E061E0A5010E94460385
:1013A00022E0B22EAA24A3948E01095F1F4F98E574
:1013B000C92E92E0D92E8B2D61E10E94D2028FE0DE
:1013C0000E94040488E00E94050F882329F0FB2D69
:1013D000F33009F03FC03BC082E00E94050F882334
:1013E00021F02B2D223099F535C084E00E94EF0EBC
:1013F0008823F9F08CE00E94040481E00E94040438
:1014000081E061E042E051E00E944603C701B4017F
:1014100046E050E00E9432138FEF99E6A8E1815038
:101420009040A040E1F700C0000081E00E94040469
:10143000B2C080E20E94EF0E882371F0D701FE0156
:10144000319686E001900D928150E1F7A4C082E0D0
:10145000B82E02C0B3E0BB2EAA20A1F1D7018D9116
:101460009C91B8010E94730882E06EE0A8010E947E
:101470004603F70182819381B8010E94730883E0DB
:101480006EE0A8010E944603D7018D919C911197AF
:1014900012962D913C9113978217930718F0821B97
:1014A000930B04C0F901E81BF90BCF01B8010E94AE
:1014B000730884E06EE0A8010E94460382E191E097
:1014C0000E94AA02FB2DF33081F181E00E94EF0E11
:1014D000A82E81E00E94FA0E8A2971F0D7018D9121
:1014E0009C911197B2E088359B0721F4F701118296
:1014F000108218C0019612C080E10E94EF0EA82E43
:1015000080E10E94FA0E8A2981F0F70180819181A1
:10151000009719F4D182C08205C00197D7011196B6
:101520009C938E93AA24A39401C0AA2481E00E94D4
:10153000EF0E782E81E00E94FA0E872979F0F701EC
:1015400082819381F2E088359F0731F4D7011396A9
:101550001C921E9212971CC0019617C080E10E9437
:10156000EF0E782E80E10E94FA0E872909F423CF2E
:10157000D70112968D919C911397009729F4139699
:10158000DC92CE92129704C00197F7019383828375
:10159000AA24A39410CF2D960FB6F894DEBF0FBEE9
:1015A000CDBFCF91DF911F910F91FF90EF90DF9012
:1015B000CF90BF90AF909F908F907F906F90089545
:1015C000AF92BF92CF92DF92EF92FF920F931F9351
:1015D000CF93DF9381E00E940404C8E8D2E0CE01FB
:1015E00062E472E00E940911AC0181E061E00E94B6
:1015F0001E038FE791E06BE871E047E951E028EBCB
:1016000032E007E010E00E949B0981E00E940404A0
:1016100081E00E940404CE016EE272E00E94091192
:10162000AC0181E061E00E941E03CE0161E272E044
:101630000E9409118C0141EDE42E42E0F42EC70115
:1016400064E172E00E9409116C0134E0A32E33E0E2
:10165000B32EC50169E072E00E940911AC01C80116
:10166000B60122E832E00DE010E00E949B0981E023
:101670000E94040481E00E940404CE0165EF71E041
:101680000E940911AC0181E061E00E941E03CE01BD
:101690006AEE71E00E940911EC01C7016FED71E083
:1016A0000E9409118C01C50164ED71E00E940911CD
:1016B000AC01CE01B80125EC32E001E010E00E945F
:1016C0009B0981E00E940404DF91CF911F910F914B
:1016D000FF90EF90DF90CF90BF90AF900895FA0108
:1016E00020813181FB01408151814217530740F035
:1016F000FC01808191812817390720F482E0089548
:1017000081E0089580E008954F925F926F927F92FA
:101710008F929F92AF92BF92CF92DF92EF92FF9201
:101720000F931F93CF93DF93EC017B012A016A8112
:1017300070E080E090E020E13EE040E050E00E9478
:10174000A1105B016C01688170E080E090E02CE307
:1017500030E040E050E00E94A110A60EB71EC81E67
:10176000D91E8981A80EB11CC11CD11CF701628150
:1017700070E080E090E020E13EE040E050E00E9438
:10178000A1103B014C01F701608170E080E090E026
:101790002CE330E040E050E00E94A110660E771E7E
:1017A000881E991EF7018181680E711C811C911C95
:1017B000F201628170E080E090E020E13EE040E0F4
:1017C00050E00E94A1107B018C01F201608170E069
:1017D00080E090E02CE330E040E050E00E94A11077
:1017E000E60EF71E081F191FF2018181E80EF11C99
:1017F000011D111D6A147B048C049D0440F4AE1479
:10180000BF04C006D10640F481E090E00EC0AE14E3
:10181000BF04C006D10638F481E090E0E614F70476
:101820000805190510F080E090E0DF91CF911F913D
:101830000F91FF90EF90DF90CF90BF90AF909F906F
:101840008F907F906F905F904F9008958BEF92E014
:1018500067EE72E04EEB52E00E94840B90912903F8
:10186000882311F0946001C09B7F9093290388E145
:1018700093E06FE173E04EEB52E00E94840B909195
:101880002903882311F0986001C0977F9093290362
:1018900008958091E5029091E602209182023091B4
:1018A00083022817390748F020918402309185027D
:1018B0008217930708F470C005C0209129032260A5
:1018C000209329032091C5023091C60228173907B9
:1018D00040F02091C7023091C8028217930708F0A8
:1018E00055C02091290320612093290321E02093F2
:1018F000810207C0209129032F7E20932903109293
:1019000081022091BA023091BB022817390748F0B2
:101910002091B8023091B9028217930708F440C0B1
:1019200005C0209129032E7F209329032091CB020B
:101930003091CC022817390740F02091CD02309128
:10194000CE028217930780F104C09093CC0280935B
:10195000CB028091290380FF02C0129A01C0129825
:101960008091290381FF02C0119A01C011988091D2
:10197000290382FF02C0139A01C0139880912903A2
:1019800083FF02C05C9A08955C9808952091020339
:10199000222309F0A6CFAECF209129032D7F90CF2F
:1019A000209129032160C0CF9093CE028093CD0275
:1019B000D0CF80E090E00E942A138093B7028BEF93
:1019C00092E063E170E047E050E00E941A1387EE76
:1019D00092E06AE170E047E050E00E941A1388E16B
:1019E00093E061E270E047E050E00E941A138FE15B
:1019F00093E068E270E047E050E00E941A1385EC43
:101A000092E061E070E046E050E00E941A1388EB3B
:101A100092E067E070E046E050E00E941A1382E82E
:101A200092E06DE070E046E050E00E941A130895E5
:101A3000882311F08EE508958FE50895CF93DF9305
:101A40008CE00E9404048DB79EB70A970FB6F894F5
:101A50009EBF0FBE8DBFEDB7FEB73196CEEED2E082
:101A6000ADB7BEB71296DC93CE93119782EA91E0A0
:101A7000938382838091C002848315828091BE0209
:101A8000868317828091BF02808711860E94101181
:101A90008DB79EB70A960FB6F8949EBF0FBE8DBF46
:101AA000CE010E94BF0F8DE00E94AA0F81E061E08D
:101AB000AE010E9446036091C20283E0689FB001BC
:101AC000112464587F4F88E892E00E9409110E9417
:101AD000AA028091E5029091E60261ED72E00E9417
:101AE000730882E061E042EB51E00E94460381ED21
:101AF00092E00E94AA0283E061E048EB51E00E947C
:101B000046038091CB029091CC0264E073E00E9486
:101B1000730884E093E00E94AA028EEB91E00E9499
:101B2000AA028091CD029091CE0264E073E00E94FF
:101B3000730884E093E00E94AA0284E061E044EC30
:101B400051E00E94460380B182FF02C08EE501C0D1
:101B50008FE50E949C0287EC91E00E94AA0280B16E
:101B600081FF02C08EE501C08FE50E949C028BECD4
:101B700091E00E94AA0280B183FF02C08EE501C0FD
:101B80008FE50E949C028FEC91E00E94AA0289B12D
:101B900084FF02C08EE501C08FE50E949C02809107
:101BA0008102882331F082E06EE044ED51E00E9432
:101BB0004603DF91CF910895CF93DF93C1EDD2E03B
:101BC0008091E5029091E602BE010E947308CE0169
:101BD0000E94BF0F8DE00E94AA0FDF91CF91089560
:101BE0001F930E94D90C0E94120F0E9441040E9470
:101BF0004C010E94140481E00E94040480E090E003
:101C00000E943C048CE00E9404040E94020580E1D2
:101C100090E00E94760F789480E991E09093CE0254
:101C20008093CD028CE291E09093CC028093CB0222
:101C300080E90E94C3042091B702332727FD309525
:101C4000280F391F3093E6022093E5028EEB92E0D5
:101C50000E946B0110E080E10E94050F882321F0B3
:101C6000112311F1115023C081E00E94050F882338
:101C700021F01230D9F01F5F1AC084E00E94050FD6
:101C8000882359F0E12FF0E0EE0FFF1FEE54FF4FD5
:101C900085919491FC0109950AC080E40E94050F8A
:101CA000882329F0479A03C012E001C010E081E0C8
:101CB0006FE00E94D202E12FF0E0EE0FFF1FE4552B
:101CC000FF4F25913491C9010E94BD020E941E0D53
:101CD0000E94DC0D80910303882341F010920303DE
:101CE0008EEB92E00E946B010E94260C80912703EC
:101CF000882309F4B0CF1092270380E90E94C3041F
:101D00002091B702332727FD3095280F391F3093D4
:101D1000E6022093E5020E94490C9DCF1F920F928C
:101D20000FB60F9211242F938F939F9384E686BD55
:101D30009091280383B1809589279091F40198238D
:101D400090959093F4012091F30128232927209363
:101D5000F3018923822390912803982790932803E5
:101D600090912603209128032823292B20932603D2
:101D700080912803882319F482E38093F2018091F3
:101D8000F20181508093F201882351F48AE080931C
:101D9000F2019091FA0280912803892B8093FA0234
:101DA0008091F1018F5F8093F101893181F410926C
:101DB000F10191E0909303038091F0018F5F809394
:101DC000F001823021F41092F001909327039F914B
:101DD0008F912F910F900FBE0F901F901895F89430
:101DE00090912603892390912603982790932603A8
:101DF00078940895F8949091FA0289239091FA02C8
:101E000098279093FA0278940895F8949091280373
:101E1000909589230E94EF0E08950E94FA0E0E9469
:101E2000EF0E089584B114B885B18FEF85B985B5EB
:101E3000856085BDEEE6F0E08081816080837894E6
:101E400008951F920F920FB60F9211242F938F9324
:101E50009F93EF93FF938091C0009091C600E09113
:101E60005C02EF5FEF7120915D02E21741F0887133
:101E7000E0935C02F0E0E25AFD4F908301C082E003
:101E800080937E02FF91EF919F918F912F910F9000
:101E90000FBE0F901F9018951F920F920FB60F92C2
:101EA00011248F939F93EF93FF9390913A02809127
:101EB0003B02981769F0E0913B02EF5FEF71E0930E
:101EC0003B02F0E0E45CFD4F80818093C60005C0DA
:101ED0008091C1008F7D8093C100FF91EF919F9110
:101EE0008F910F900FBE0F901F90189510923A028D
:101EF00010923B0210925C0210925D0297FF04C0A8
:101F000022E02093C0009F779093C5008093C40087
:101F100088E98093C10086E08093C2000895909183
:101F20005C0280915D02981789F0E0915D02EF5F9D
:101F3000EF71E0935D02F0E0E25AFD4F80819091F5
:101F40007E02392F20E0280F311D02C020E031E051
:101F5000C901089590913A029F5F9F7120913B02C1
:101F60009217E1F3E92FF0E0E45CFD4F808390935A
:101F70003A028091C10080628093C1000895EF927F
:101F8000FF92CF93DF93E82EE7017E01F92EE70160
:101F900002C00E94AA0F89918823D9F7DF91CF91BF
:101FA000FF90EF900895CF93DF93EC0102C00E9461
:101FB000AA0FFE01219684918823C9F7DF91CF9162
:101FC00008951F920F920FB60F9211242F938F93A3
:101FD0009F93EF93FF938091C8009091CE00E09182
:101FE0001702EF5FEF7120911802E21741F088713C
:101FF000E0931702F0E0E75EFD4F908301C082E0BE
:1020000080933902FF91EF919F918F912F910F90C3
:102010000FBE0F901F9018951F920F920FB60F9240
:1020200011248F939F93EF93FF939091F5018091EB
:10203000F601981769F0E091F601EF5FEF71E09318
:10204000F601F0E0E950FE4F80818093CE0005C09C
:102050008091C9008F7D8093C900FF91EF919F917E
:102060008F910F900FBE0F901F9018951092F50151
:102070001092F601109217021092180297FF04C0F6
:1020800022E02093C8009F779093CD008093CC00EE
:1020900088E98093C90086E08093CA0008959091F2
:1020A000170280911802981789F0E0911802EF5FEB
:1020B000EF71E0931802F0E0E75EFD4F80819091B0
:1020C0003902392F20E0280F311D02C020E031E015
:1020D000C90108959091F5019F5F9F712091F601CC
:1020E0009217E1F3E92FF0E0E950FE4F80839093DF
:1020F000F5018091C90080628093C9000895EF9234
:10210000FF92CF93DF93E82EE7017E01F92EE701DE
:1021100002C00E946A1089918823D9F7DF91CF917C
:10212000FF90EF900895CF93DF93EC0102C00E94DF
:102130006A10FE01219684918823C9F7DF91CF911F
:102140000895629FD001739FF001829FE00DF11D01
:10215000649FE00DF11D929FF00D839FF00D749F21
:10216000F00D659FF00D9927729FB00DE11DF91FCD
:10217000639FB00DE11DF91FBD01CF01112408952A
:10218000991B79E004C0991F961708F0961B881FC9
:102190007A95C9F78095089597FB092E05260ED0EC
:1021A00057FD04D014D00AD0001C38F45095409547
:1021B000309521953F4F4F4F5F4F0895F6F790951B
:1021C0008095709561957F4F8F4F9F4F0895A1E245
:1021D0001A2EAA1BBB1BFD010DC0AA1FBB1FEE1FA1
:1021E000FF1FA217B307E407F50720F0A21BB30BEC
:1021F000E40BF50B661F771F881F991F1A9469F768
:1022000060957095809590959B01AC01BD01CF01C3
:102210000895FB01DC0105900D920020E1F708957F
:10222000AEE0B0E0E6E1F1E10C94F8130D891E890F
:1022300086E08C831A8309838FEF9FE79E838D83CB
:102240009E01275E3F4FCE0101966F89788DA901CF
:102250000E943311EF81F885E00FF11F10822E9656
:10226000E4E00C941414ACE0B0E0E9E3F1E10C9488
:10227000EA136C011B018A01FC011782168283811B
:1022800081FFD1C12E010894411C511CF60193819C
:10229000F10193FD859193FF81911F01882309F43A
:1022A000BEC1853239F493FD859193FF81911F0161
:1022B000853229F490E0B6010E946013E7CFEE2446
:1022C000FF2420E02032B0F48B3269F08C3228F405
:1022D000803251F0833271F40BC08D3239F080338B
:1022E00049F421602CC02260246029C0286027C0E6
:1022F000206125C027FD2CC0382F30533A3098F488
:1023000026FF08C08E2D880FE82EEE0CEE0CE80E8E
:10231000E30E15C08F2D880FF82EFF0CFF0CF80E62
:10232000F30E20620CC08E3221F426FD78C12064A9
:1023300006C08C3611F4206802C0883649F4F101D9
:1023400093FD859193FF81911F01882309F0BACFF6
:10235000982F9554933018F09052933028F40C5FD6
:102360001F4FFFE3F9830DC0833631F0833771F0DF
:10237000833509F060C022C0F801808189830E5F37
:102380001F4F420171E0A72EB12C16C062E0662EED
:10239000712C600E711EF8018080918026FF03C0B1
:1023A0006E2D70E002C06FEF7FEFC4012C870E949A
:1023B00055135C0183012C852F7717C052E0652EE1
:1023C000712C600E711EF8018080918026FF03C081
:1023D0006E2D70E002C06FEF7FEFC4012C870E946A
:1023E0004A135C012C852068830123FD20C008C0AE
:1023F00080E290E0B6012C870E946013FA942C854D
:102400008F2D90E0A816B90698F311C0F40127FDAE
:10241000859127FF81914F0190E0B6012C870E94A2
:1024200060132C85F110FA940894A108B108A11446
:10243000B10461F7F1C0843611F0893649F527FF00
:1024400008C0F80160817181828193810C5F1F4F08
:1024500009C0F80160817181882777FD8095982FE8
:102460000E5F1F4F4FE6B42EB22297FF09C0909522
:102470008095709561957F4F8F4F9F4FF0E8BF2AF1
:10248000A2012AE030E00E948C13782E741845C017
:10249000853731F43FEEB32EB2222AE030E025C07A
:1024A00099EFB92EB2228F36C1F0803720F48835EB
:1024B00009F0B5C00DC0803721F0883709F0AFC0F2
:1024C00002C020E1B22AB4FE0BC084E0B82A08C0E2
:1024D000B4FE09C0E6E0BE2A06C028E030E005C030
:1024E00020E130E002C020E132E0B7FE08C0F80190
:1024F00060817181828193810C5F1F4F07C0F80159
:102500006081718180E090E00E5F1F4FA2010E9408
:102510008C13782E7418FFE7BF22B6FE0BC02EEF87
:10252000B2227E1438F4B4FE07C0B2FC05C08FEEB0
:10253000B82202C0A72C01C0AE2C8B2D90E0B4FEB7
:102540000DC0FE01E70DF11D2081203319F4E9EEE5
:10255000BE2209C0A394B2FE06C004C08678907063
:10256000009709F0A3948B2C9924B3FC14C0B0FEFF
:102570000FC0AF1428F4E72CEF0CEA18AF2C08C0FA
:10258000E72C06C080E290E0B6010E946013A3949D
:10259000AF14C0F304C0AF1410F4FA1801C0FF2444
:1025A00084FE0FC080E390E0B6010E94601382FEBB
:1025B0001FC081FE03C088E590E010C088E790E06E
:1025C0000DC0C40186789070009791F081FC02C024
:1025D00080E201C08BE2B7FC8DE290E0B6010E9480
:1025E000601306C080E390E0B6010E946013EA9495
:1025F0007E14C0F37A94F201E70DF11D808190E022
:10260000B6010E9460137720A9F706C080E290E02F
:10261000B6010E946013FA94FF20C1F737CEF6018D
:102620002681378102C02FEF3FEFC9012C96E2E1EE
:102630000C940614DC01CB01FC01F999FECF06C015
:10264000F2BDE1BDF89A319600B40D924150504070
:10265000B8F70895F999FECF92BD81BDF89A9927F0
:1026600080B50895DC01CB0103C02D910E943D137C
:1026700041505040D0F70895262FF999FECF1FBA48
:1026800092BD81BD20BD0FB6F894FA9AF99A0FBE9B
:1026900001960895FC010590615070400110D8F733
:1026A000809590958E0F9F1F0895FC01615070409A
:1026B00001900110D8F7809590958E0F9F1F089577
:1026C0000F931F93CF93DF938C01EB018B8181FFDD
:1026D0001BC082FF0DC02E813F818C819D812817F8
:1026E000390764F4E881F9810193F983E88306C02E
:1026F000E885F985802F0995009731F48E819F81B7
:1027000001969F838E8302C00FEF1FEFC801DF91F8
:10271000CF911F910F910895FA01AA27283051F106
:10272000203181F1E8946F936E7F6E5F7F4F8F4F02
:102730009F4FAF4FB1E03ED0B4E03CD0670F781F61
:10274000891F9A1FA11D680F791F8A1F911DA11D46
:102750006A0F711D811D911DA11D20D009F468947F
:102760003F912AE0269F11243019305D3193DEF627
:10277000CF010895462F4770405D4193B3E00FD0DD
:10278000C9F7F6CF462F4F70405D4A3318F0495DC8
:1027900031FD4052419302D0A9F7EACFB4E0A695AB
:1027A0009795879577956795BA95C9F700976105CD
:1027B000710508959B01AC010A2E06945795479523
:1027C00037952795BA95C9F7620F731F841F951F18
:1027D000A01D08952F923F924F925F926F927F9229
:1027E0008F929F92AF92BF92CF92DF92EF92FF9221
:1027F0000F931F93CF93DF93CDB7DEB7CA1BDB0BCD
:102800000FB6F894DEBF0FBECDBF09942A88398871
:1028100048885F846E847D848C849B84AA84B98478
:10282000C884DF80EE80FD800C811B81AA81B98184
:10283000CE0FD11D0FB6F894DEBF0FBECDBFED0198
:062840000895F894FFCF9B
:10284600010053706569636865726520446174654B
:102856006E002000253032642E253032642E25305D
:1028660032642000253032643A253032643A25300D
:102876003264002D25692E2569430025692E2569B8
:10288600430054656D70657261747572204F66669B
:102896007365743A004C4D37363A202020202020AC
:1028A60020004B6F72722E2054656D703A20004FD7
:1028B60066667365743A2020202020002020004898
:1028C60065697A65722065696E3A004865697A6558
:1028D60072206175733A0048797374657265736521
:1028E6003A00253032643A253032643A2530326473
:1028F600200054656D703A00204D61783A00204DF5
:10290600696E3A00483A00204B3A00204C3A0020C3
:0C2916004D4C3A00414C41524D21000054
:00000001FF
