S0100000755175617269756D2E73726563BB
S11300000C9446020C946B020C946B020C946B02DD
S11300100C946B020C946B020C946B020C946B02A8
S11300200C946B020C946B020C946B020C946B0298
S11300300C946B020C946B020C946B020C946B0288
S11300400C946B020C946B020C94F8150C946B02D8
S11300500C94AB160C946B020C94D6160C946B0295
S11300600C946B020C946B020C946B020C946B0258
S11300700C9400170C946B020C942B17342D37201E
S1130080526567656E7A656974203500342D3620B3
S1130090526567656E7A656974203400342D3520A5
S11300A0526567656E7A656974203300342D342097
S11300B0526567656E7A656974203200342D332089
S11300C0526567656E7A656974203100342D32207B
S11300D0416E7A61686C20526567656E7A00342DD2
S11300E03120526567656E7A6569742045696E00D2
S11300F0332D35204D4C2048656C6C69676B656900
S11301007400332D34204D4C2061757300332D332E
S1130110204D4C2065696E00332D32204C616D708A
S1130120652061757300332D31204C616D7065203D
S113013065696E00322D3220446174756D206569E5
S11301406E73742E00322D31205A656974206569EE
S11301506E73742E00312D3420416C61726D200059
S1130160312D33204C75656674657200312D322053
S11301704865697A657200312D312054656D7020AF
S11301804F666673657400362041626F7574202073
S113019020202020003520546167657377657274D0
S11301A06520003420526567656E7A656974656EF2
S11301B00033204C69636874202020202020003202
S11301C0205A6569742020202020202000312054EA
S11301D0656D706572617475720048752D4D696E38
S11301E03A0048752D4D61783A002D4D696E3A00FC
S11301F02D4D61783A0053573A56312E3200485704
S1130200204D3A56312E3020463A56312E30005386
S1130210746566616E204B656C6C6572007554651F
S11302207272617269756D2E00616E7061737365AF
S11302306E3A20004D6F6E646C6963687420486583
S11302406C6C69676B656974005A656974204569EB
S11302506E7374656C6C756E67656E20204D6F6E81
S1130260646C6963687420617573736368616C742A
S1130270656E3A005A6569742045696E7374656CDD
S11302806C756E67656E20204D6F6E646C69636873
S1130290742065696E7374656C6C656E3A005265A2
S11302A067656E7A65697420353A00526567656ED4
S11302B07A65697420343A00526567656E7A6569B7
S11302C07420333A00526567656E7A65697420322A
S11302D03A00526567656E7A65697420313A004563
S11302E0696E736368616C746461756572206465BA
S11302F07220526567656E70756D70653A005A6557
S113030069742045696E7374656C6C756E67656E8F
S113031020204C616D706520617573736368616C36
S113032074656E3A005A6569742045696E73746524
S11303306C6C756E67656E20204C616D7065206510
S1130340696E736368616C74656E3A00416B7475B1
S1130350656C6C65205568727A656974202020206C
S113036065696E676562656E00416B7475656C6C7A
S1130370657320446174756D202020202065696EAA
S1130380676562656E0054656D702E204D61783A24
S11303900054656D702E204D696E3A00487973746F
S11303A065726573653A0054656D70657261747544
S11303B072204D696E2F4D61783A004C75656674F4
S11303C065722065696E3A004C75656674657220C5
S11303D06175733A004879737465726573653A00A0
S11303E04C7565667465722065696E7374656C6CB2
S11303F0756E67004865697A65722065696E3A00B2
S11304004865697A6572206175733A004879737436
S113041065726573653A004865697A657220426F52
S113042064656E2045696E73742E00416C6C65734F
S1130430204F4B0049324320455252210054656DF0
S113044070202B2B210054656D70202D2D21007000
S113045048202B2B210000007048202D2D21000066
S1130460005744542045525221004200004D0000E0
S11304704800002020004D6F004469004D6900448D
S11304806F00467200536100536F000011241FBEB9
S1130490C0E0D8E0DEBFCDBFE2E9F4E08AEA91E152
S11304A08193E030F907E0F312E0A0E0B1E0E6E880
S11304B0F6E302C005900D92A43DB107D9F724E0FC
S11304C0A4EDB2E001C01D92A239B207E1F70E9487
S11304D05E140C94411B0C940000CF9380ED0E9499
S11304E04305882339F00E948E0581E08093EF0252
S11304F0CF91089580E00E94960581ED0E948C05BD
S11305000E94B105C82F0E948E0580ED0E9443050C
S113051080E00E9496058C2F8F770E949605CF91DC
S11305200C948E05CF92DF92EF92FF920F931F935C
S1130530CF93DF93EC0180ED0E944305882331F0D3
S11305400E948E0581E08093EF0257C080E00E94F4
S1130550960581ED0E948C050E94A705D82E0E9465
S1130560A705E82E0E94A705F82E0E94A705C82E0D
S11305700E94A705082F0E94A705182F0E94B10505
S11305809D2D92959F702D2D2F70D22E3AE0939F22
S1130590D00C1124D9829E2D92959F702E2D2F70F0
S11305A0E22E3AE0939FE00C1124E8829F2D92956D
S11305B09F702F2D2F70F22E3AE0939FF00C112490
S11305C0FA82902F92959F700F702AE0929F000DEF
S11305D011240B83CC82912F92959F701F703AE067
S11305E0939F100D11241D83982F92959F708F70E7
S11305F02AE0929F800D11248E83DF91CF911F9169
S11306000F91FF90EF90DF90CF9008950F931F9379
S1130610CF938C0180ED0E944305882349F00E940A
S11306208E0581E08093EF02CF911F910F91089581
S113063080E00E949605F8018181CAE06C2F0E9437
S11306405517292FF0E18F9FC0011124822B0E949E
S11306509605F80180816C2F0E945517292FF0E12F
S11306608F9FC0011124822B0E949605F80182817C
S11306706C2F0E945517292FF0E18F9FC001112480
S1130680822B0E949605CF911F910F910C948E0599
S11306901F93CF93DF93EC0180ED0E9443058823E1
S11306A049F00E948E0581E08093EF02DF91CF91A3
S11306B01F91089583E00E9496058C810E949605FF
S11306C08B811AE0612F0E945517292F30E1839FF7
S11306D0C0011124822B0E9496058D81612F0E94F6
S11306E05517292F30E1839FC0011124822B0E94CA
S11306F096058E81612F0E945517292F30E1839F23
S1130700C0011124822B0E949605DF91CF911F9185
S11307100C948E05AF92BF92CF92DF92EF92FF922C
S11307200F931F93CF93DF93182F5B01EA010E946D
S11307304305882359F00E948E0581E08093EF02DF
S1130740F50111821082198218824FC0FFEF23EF46
S113075081E0F15020408040E1F700C0000081E0DA
S1130760810F0E9443050E94A705E82E0E94A70559
S1130770F82E0E94A705082F0E94B105182F0E9489
S11307808E058E2D8F734F2D50E060E070E09A013E
S1130790AB01382BA4E6B0E00E94CC17CC24CA9459
S11307A02FE3D22EE12CF12CA70196010E9497177A
S11307B0F50131832083812F90E0A0E0B0E0902BFD
S11307C09C01AD0162E055954795379527956A954B
S11307D0D1F7A5EAB0E00E94CC17A70196010E94C8
S11307E097172852310939832883DF91CF911F91BC
S11307F00F91FF90EF90DF90CF90BF90AF9008954E
S1130800CF93C82F80E70E946505809100019091E5
S11308100101892B19F08C2F806402C08C2F8F7BEF
S11308200E949605CF910C948E05CF93C82FC06873
S11308308C2F0E9400048C2F0E94000480E0CF9132
S11308400C940004CF93C82F82958F7080610E940E
S113085015048C2F8F708061CF910C941504CF9365
S1130860BC0184ED92E00E94D717C0E0EC2FF0E0C9
S1130870EC52FD4F8081882329F080810E9422045C
S1130880CF5FF4CFCF9108950F931F93CF938C0133
S1130890C0E0F801EC0FF11D8081882321F00E9453
S11308A02204CF5FF6CFCF911F910F910895CF937C
S11308B09FEF980F9430F8F49FEF960F9431D8F48B
S11308C0833041F0843041F0823011F0CFE705C02D
S11308D0CFEB03C0C3E901C0C3EDC60F8C2F8295D3
S11308E08F7080680E9415048C2F8F7080680E941E
S11308F0150481E001C080E0CF910895CF93DF9388
S1130900D42F0E945704C82F882319F08D2F0E94DA
S113091022048C2FDF91CF910895FF920F931F93A0
S1130920CF93DF93F82EC62F8A01D0E0F801ED0FA4
S1130930F11D4081442361F06C2F8F2D0E947E04B1
S1130940882339F0CF5FC53108F0C1E0DF5FEECF17
S113095081E0DF91CF911F910F91FF900895EF9265
S1130960FF921F93CF93DF93C82FD62F7A0110E005
S1130970F701E10FF11D4081442381F06D2F8C2F8D
S11309800E947E04882359F0DF5FD53110F0CF5FD9
S1130990D1E0C53008F0C1E01F5FEACF81E0DF910C
S11309A0CF911F91FF90EF9008950F931F93CF93D2
S11309B08A010E945704C82F882319F0C8010E9495
S11309C044048C2FCF911F910F910895AC0120E026
S11309D030E085E02417350731F0982F9A95F1F728
S11309E02F5F3F4FF7CF089520E030E040EA5FE00B
S11309F02817390731F0FA013197F1F72F5F3F4F8C
S1130A00F7CF0895CF93C82F82958F700E94150455
S1130A108C2F8F700E94150481E090E0CF910C948C
S1130A20F40480E190E00E94F40483E00E94150441
S1130A3085E090E00E94F40483E00E94150485E6BA
S1130A4090E00E94E60483E00E94150482E00E9484
S1130A50150488E20E94020588E00E94020581E0F4
S1130A600E94020586E00E9402058CE00C940205B7
S1130A70909301018093000108951092B90088E4D5
S1130A808093B800089594EA9093BC009091BC00C0
S1130A9097FFFCCF9091B900987F983021F0903166
S1130AA011F081E008958093BB0084E88093BC003A
S1130AB08091BC0087FFFCCF8091B900887F88318A
S1130AC011F0803471F780E0089524EA34E844E9B1
S1130AD02093BC009091BC0097FFFCCF9091B9008B
S1130AE0987F983011F0903199F78093BB00309340
S1130AF0BC009091BC0097FFFCCF9091B900987F07
S1130B00903211F0983539F44093BC009091BC00B8
S1130B1094FDFCCFDDCF08950C94430584E98093C4
S1130B20BC008091BC0084FDFCCF08958093BB0081
S1130B3084E88093BC008091BC0087FFFCCF909137
S1130B40B900987F81E0983209F480E0089584EC3C
S1130B508093BC008091BC0087FFFCCF8091BB00D8
S1130B60089584E88093BC008091BC0087FFFCCF8B
S1130B708091BB000895EEEDF1E082E091E0968370
S1130B808583918B808B948F838F97A386A3E8ECC6
S1130B90F1E096838583918B808B948F838F97A3C9
S1130BA086A392AB81AB95AF84AF909310028093F0
S1130BB00F0290931B0280931A02E1E9F1E09683FD
S1130BC08583918B808B948F838F97A386A392AB1D
S1130BD081AB90934A01809349019093AD03809334
S1130BE0AC031092E802E9EEF2E010821182128264
S1130BF013820895E091AC03F091AD0392818230A9
S1130C00E9F130F4882359F0813009F469C008957A
S1130C108430E9F098F1853009F462C00895E091D8
S1130C20E802F0E0E751FD4F8081E091E802F0E056
S1130C30811105C08FEF890FE751FD4F04C0E751C3
S1130C40FD4F80818150808381E00C940205E09106
S1130C50E802F0E0E751FD4F208130E0892F90E079
S1130C600197E091E802F0E0E751FD4F28173907BA
S1130C7011F41082E9CF80818F5FE5CFA091E80263
S1130C80B0E0A751BD4F8C91DF019BE0899FA00D7F
S1130C90B11D112411968C91A091E802B0E0A751E6
S1130CA0BD4F811112C08C919BE0899FE00DF11D15
S1130CB01124838194819093AD038093AC0380913C
S1130CC0E8028F5F8093E802BFCF8C919BE0899FFD
S1130CD0E00DF11D11240184F285E02D0995B4CFB6
S1130CE082E091E09093AD038093AC0381E00E9495
S1130CF002051092E8021092E9021092EA021092A0
S1130D00EB021092EC0208951F93CF93DF9361E0FE
S1130D1081E00E945704E091E802F0E0E751FD4FC2
S1130D201081C12FD1E061E08D2F0E9457041C1364
S1130D3002C0D13041F5E091E802F0E0E751FD4F07
S1130D4080818C1303C08EE30E94220462E08D2F05
S1130D500E945704E091AC03F091AD038BE0C89F6F
S1130D60E00DF11D1124878190850E942F04CF5F2F
S1130D70E091AC03F091AD038281C81708F0C0E0A4
S1130D80DF5FD53081F6DF91CF911F910895CF9326
S1130D90DF93C82F0E944305882341F00E948E05EB
S1130DA081E08093EF0280E090E01BC080E00E942D
S1130DB0960581E08C0F0E948C050E94A705C82F20
S1130DC00E94B105D82F0E948E058C2FCC0F990B51
S1130DD0982F88278D0F911D33E0959587953A9527
S1130DE0E1F7DF91CF91089585B5856085BDEEE685
S1130DF0F0E0108280818160808381E280938000B2
S1130E0083E080938100789408958FE081B980E332
S1130E108AB987B1806C87B90895EF92FF920F93D6
S1130E201F93CF93DF93162F072F21E732E0DC01C6
S1130E300E94C51720E137E240E050E00E94971776
S1130E40F22EE32EC22FD32F28EE33E040E050E001
S1130E500E94971737FF2FC0319521953109CD2B6B
S1130E60A9F43F932F931F921F928AE092E09F93DD
S1130E708F930F931F930E9417188DB79EB70896F0
S1130E800FB6F8949EBF0FBE8DBF29C03F932F931A
S1130E90EF92FF928BE092E09F938F930F931F93B7
S1130EA00E9417188DB79EB708960FB6F8949EBF88
S1130EB00FBE8DBF14C03F932F93EF92FF928BE030
S1130EC092E09F938F930F931F930E9417188DB7EF
S1130ED09EB708960FB6F8949EBF0FBE8DBFDF91E4
S1130EE0CF911F910F91FF90EF9008958F929F9251
S1130EF0AF92BF92CF92DF92EF92FF920F931F9324
S1130F00CF93DF93EC017B0110E001E08BE3982E9B
S1130F1097E1892E22E1C22E22E0D22E39E0A32EBF
S1130F2034E0B32E8FE00E940205612F660F610F3B
S1130F306E5F83E00E94570488E00E94961688231F
S1130F4029F0123009F4E3C01F5F3BC082E00E9425
S1130F509616882321F01123B9F1115032C080E292
S1130F600E9480168111C4C084E00E9480168823E8
S1130F7041F18CE00E94020581E00E940205E11427
S1130F80F10449F0F89447E050E0B701CE010E9423
S1130F90F21A789403C0CE010E94060347E352E09C
S1130FA061E081E00E948D042FEF89E698E12150F1
S1130FB080409040E1F700C0000081E00E940205FB
S1130FC097C0002311F104C0002309F469C012E0A2
S1130FD089811F928F9388811F928F938A811F9298
S1130FE08F93DF92CF92BF92AF920E94171849E07D
S1130FF054E061E083E00E94D5048DB79EB70A9661
S11310000FB6F8949EBF0FBE8DBF113041F1123060
S113101009F446C081E00E948016182F81E00E94E6
S11310208B16812B39F08A81873111F41A8215C00D
S11310308F5F12C080E10E948016182F80E10E9409
S11310408B16812B19F410E000E06CCF8A8181119A
S113105002C08A8202C081508A8310E047C081E0C6
S11310600E948016082F81E00E948B16802B39F095
S113107088818B3311F4188239C08F5F0FC080E1EF
S11310800E948016082F80E10E948B16802BE1F2CB
S11310908881811102C0988229C08150888326C02A
S11310A081E00E948016182F81E00E948B16812B0C
S11310B049F089818B3311F4198202C08F5F8983CF
S11310C001E001C000E080E10E948016182F80E159
S11310D00E948B16812B11F412E024CF8981811197
S11310E002C0998202C08150898312E001E01ACFC4
S11310F081E0DF91CF911F910F91FF90EF90DF90EE
S1131100CF90BF90AF909F908F900C9402050023D6
S113111009F480CF10E05CCF7F928F929F92AF92C0
S1131120BF92CF92DF92EF92FF920F931F93CF93D0
S1131130DF93EC018FE00E94020500E011E031E250
S1131140E32E32E0F32E49E0C42E44E0D42E5CE0DA
S1131150B52E63E6A62E7FE1972EE7E08E2E602F54
S1131160660F600F6E5F83E00E94570488E00E9460
S11311709616882321F0033089F10F5F32C082E094
S11311800E949616882321F0002351F1015029C0B2
S113119080E20E9480168111F2C084E00E948016D1
S11311A08823F9F08CE00E94020581E00E94020588
S11311B0CE010E94480347E352E061E081E00E94CF
S11311C08D042FEF89E698E1215080409040E1F7AB
S11311D000C0000081E00E940205D1C000E001C00F
S11311E003E01123B1F16C8170E0CB01880F991FEA
S11311F0680F791F6D587B4F87EB93E00E94D717D8
S11312000E94440447EB53E061E083E00E94D5046C
S113121086E692E00E9444048E811F928F938D8112
S11312201F928F938B811F928F93FF92EF92DF9285
S1131230CF920E94171849E054E064E083E00E94D2
S1131240D5048DB79EB70A960FB6F8949EBF0FBE0D
S11312508DBF81E0023009F449C0033009F46AC04B
S1131260013021F10E948016182F81E00E948B1614
S1131270812B39F08C81873011F481E014C08F5FA9
S113128012C080E10E948016182F80E10E948B1604
S1131290812B19F400E010E062CF8C81813011F4CD
S11312A08C8202C081508C8300E067C00E9480164B
S11312B0182F81E00E948B16812B39F08B818F319E
S11312C011F40B835AC08F5F0FC080E10E94801617
S11312D0182F80E10E948B16812BE9F28B818130DB
S11312E011F49B824AC081508B8347C00E948016B0
S11312F0182F81E00E948B16812B49F08D818C3050
S113130011F481E001C08F5F8D8311E001C010E012
S113131080E10E948016782E80E10E948B16872936
S113132009F41DCF8D81813011F4BD8226C0815016
S11313308D8323C00E948016182F81E00E948B1693
S1131340812B49F08E81833611F41E8202C08F5F97
S11313508E8311E001C010E080E10E948016782E97
S113136080E10E948B16872909F4F9CE8E818111C0
S113137002C0AE8202C081508E8311E0F0CE81E0C3
S1131380DF91CF911F910F91FF90EF90DF90CF905D
S1131390BF90AF909F908F907F900C9402058F9296
S11313A09F92BF92CF92DF92EF92FF920F931F937F
S11313B0CF93DF93EC01B62EE42E6901088147E454
S11313C052E061E081E00E948D04F12C8B2D0E949B
S11313D0C7064C0169E074E00E940D074AE552E03B
S11313E061E082E00E948D044AE050E06FE274E024
S11313F0C7010E94E7178FE294E00E94440480E64C
S113140092E00E94440489E094E00E94440448E687
S113141052E061E083E00E948D04888169E074E019
S11314209401280F311D87FD3A95C9010E940D07CB
S113143089E094E00E944404888169E074E0082E05
S1131440000C990B0E940D0746E752E061E084E02E
S11314500E948D0489E094E00E94440485E692E0B1
S11314600E94440481E00E948016182F81E00E94AB
S11314708B16812B19F088818E5F888380E10E940E
S11314808016182F80E10E948B16812B19F0888119
S11314908250888384E00E948016182F84E00E9482
S11314A08B16812B31F181E00E94020547E352E063
S11314B061E081E00E948D04F8946881C6010E9475
S11314C0FC1A78943FEF89E698E1315080409040CF
S11314D0E1F700C0000081E0DF91CF911F910F91EF
S11314E0FF90EF90DF90CF90BF909F908F900C94DF
S11314F0020580E20E948016182F80E20E948B165B
S1131500812B09F463CF0883DF91CF911F910F9151
S1131510FF90EF90DF90CF90BF909F908F900895B1
S11315206F927F928F929F92AF92BF92CF92DF92EF
S1131530EF92FF920F931F93CF93DF93CDB7DEB754
S11315402D970FB6F894DEBF0FBECDBF3C014B0103
S11315506A017901580196E0F901DE0118960190BB
S11315600D929A95E1F71982A30161E082E00E944D
S11315708D04A40161E083E00E948D04A60161E072
S113158084E00E948D0412E001E088E5C82E82E028
S1131590D82E61E1812F0E9457048FE00E9402053A
S11315A088E00E949616882321F0133009F042C087
S11315B0E4C082E00E949616882321F0123009F0DC
S11315C0DCC038C084E00E948016882309F18CE0D6
S11315D00E94020581E00E94020547E352E061E0B7
S11315E081E00E948D04F89446E050E0B501C70103
S11315F00E94F21A78942FEF49E658E121504040B6
S11316005040E1F700C0000081E00E940205BAC02A
S113161080E20E948016882349F086E0FE01389615
S1131620D70101900D928A95E1F7ACC0002309F42B
S113163042C004C0002309F461C013E0BE016F5F1F
S11316407F4FF701808191810E940D07AE014F5FAA
S11316505F4F6EE082E00E948D04BE016F5F7F4F9A
S1131660F701828193810E940D07AE014F5F5F4FA6
S11316706EE083E00E948D04F701808191812281D4
S11316803381BE016F5F7F4F821793071CF0821B6B
S1131690930B04C0A901481B590BCA010E940D07F2
S11316A0AE014F5F5F4F6EE084E00E948D0486E6DA
S11316B092E00E944404133009F181E00E948016F4
S11316C0182F81E00E948B16812B69F0F70180812D
S11316D091818835F2E09F0721F4F701118210828D
S11316E02EC0019629C080E10E948016182F80E147
S11316F00E948B16812BB9F412E013C081E00E9482
S11317008016182F81E00E948B16812BD1F480E182
S11317100E948016182F80E10E948B16812BF1F411
S113172013E000E036CFF70180819181009719F42E
S1131730D182C08204C00197F7019183808312E0B3
S11317401AC0F701828193818835F2E09F0721F462
S1131750F701138212820EC0019609C0F70182813B
S11317609381009719F4D382C28204C00197F701D0
S11317709383828313E001E00CCF002309F49DCF0F
S113178012E05CCF2D960FB6F894DEBF0FBECDBF2E
S1131790DF91CF911F910F91FF90EF90DF90CF9049
S11317A0BF90AF909F908F907F906F90089581E04D
S11317B00E9402051092080440910804433098F4F2
S11317C0842F90E09C012A583F4FFC01E053FD4FC9
S11317D0608184509D4F0E94CF09809108048F5FDF
S11317E080930804E9CF81E00C940205EF92FF9204
S11317F00F931F93CF93DF9381E00E94020567E16B
S113180074E087EB93E00E94D717AC0161E081E0BC
S11318100E94AF046CE074E08FE294E00E94D7175A
S11318207C0160E074E089E094E00E94D717EC0149
S113183064EF73E087EB93E00E94D71709E610E0AA
S113184021EE33E0A701BE010E94900A81E0DF91FE
S1131850CF911F910F91FF90EF900C940205EF929E
S1131860FF920F931F93CF93DF9381E00E940205B1
S113187060EE73E087EB93E00E94D717AC0161E060
S113188081E00E94AF0465ED73E08FE294E00E9472
S1131890D7177C0168EC73E089E094E00E94D717C5
S11318A0EC016BEB73E087EB93E00E94D71703E640
S11318B010E021EB33E0A701BE010E94900A81E011
S11318C0DF91CF911F910F91FF90EF900C9402053F
S11318D0EF92FF920F931F93CF93DF9381E00E94C7
S11318E0020567EA73E087EB93E00E94D717AC0127
S11318F061E081E00E94AF046CE973E08FE294E060
S11319000E94D7177C0161E973E089E094E00E94AA
S1131910D717EC0166E873E087EB93E00E94D717D2
S11319200FE610E02EEE33E0A701BE010E94900AFC
S113193081E0DF91CF911F910F91FF90EF900C9474
S1131940020581E00E94020569E673E087EB93E0FB
S11319500E94D717AC0161E081E00E94AF0487EEDA
S113196093E00C948C0881E00E9402056CE473E01F
S113197087EB93E00E94D717AC0161E081E00E94FD
S1131980AF0460E070E087EE93E00C94760781E0AA
S11319900E94020565E273E087EB93E00E94D7178B
S11319A0AC0161E081E00E94AF0460E470E086E293
S11319B094E00C94760781E00E9402056EEF72E0D9
S11319C087EB93E00E94D717AC0161E081E00E94AD
S11319D0AF0469E370E08FE194E00C94760781E052
S11319E00E9402056FED72E087EB93E00E94D71727
S11319F0AC0161E081E00E94AF0464E270E08AE837
S1131A0094E00C94760781E00E94020562ED72E096
S1131A1087EB93E00E94D717AC0161E081E00E945C
S1131A20AF0461E070E087E694E00C94760781E00F
S1131A300E94020565EC72E087EB93E00E94D717E1
S1131A40AC0161E081E00E94AF0468E070E08EE6E2
S1131A5094E00C94760781E00E94020568EB72E042
S1131A6087EB93E00E94D717AC0161E081E00E940C
S1131A70AF046FE070E085E794E00C94760781E0B2
S1131A800E9402056BEA72E087EB93E00E94D7178D
S1131A90AC0161E081E00E94AF0466E170E08CE794
S1131AA094E00C94760781E00E9402056EE972E0EE
S1131AB087EB93E00E94D717AC0161E081E00E94BC
S1131AC0AF046DE170E083E894E00C947607DF9254
S1131AD0EF92FF920F931F93CF93DF93D091F00275
S1131AE081E00E94020543E852E061E081E00E9447
S1131AF08D0407E912E089E0E82E84E0F82E95E0F1
S1131B00D92E8091F002282F082E000C330B3F931E
S1131B108F931F930F93FF92EF920E94171849E03F
S1131B2054E061E082E00E94D5040F900F900F9082
S1131B300F900F900F9084E00E948016C82F84E0CD
S1131B400E948B168C2B21F181E00E94020547E351
S1131B5052E061E081E00E948D04F8946091F0020B
S1131B6080E090E00E94FC1A78942FEF89E698E1D7
S1131B70215080409040E1F700C0000081E0DF91F7
S1131B80CF911F910F91FF90EF90DF900C9402057D
S1131B9080E20E948016C82F80E20E948B168C2B54
S1131BA051F0D093F002DF91CF911F910F91FF90EC
S1131BB0EF90DF90089581E00E948016C82F81E0A5
S1131BC00E948B168C2B49F08091F002853019F419
S1131BD01092F00296CF8F5F12C080E10E948016AF
S1131BE0C82F80E10E948B168C2B09F4A4CF80911E
S1131BF0F002811103C0D092F00283CF8150809310
S1131C00F0027FCF81E00E94020564E772E087EB77
S1131C1093E00E94D717AC0161E081E00E94AF0419
S1131C2062E370E085E494E00C94760781E00E941E
S1131C30020569E472E087EB93E00E94D717AC01D8
S1131C4061E081E00E94AF046BE270E08CE494E018
S1131C500E94760781E00C94020581E00E9402054F
S1131C606DE172E087EB93E00E94D717AC0161E06D
S1131C7081E00E94AF046FE072E087EB93E00E9482
S1131C80D717AC0161E082E00E94AF046EEF71E00F
S1131C9087EB93E00E94D717AC0161E083E00E94D8
S1131CA0AF0466EF71E087EB93E00E94D717AC01B5
S1131CB061E084E00E94AF048FEF0E9480168823C5
S1131CC0D9F381E00C940205EF92FF920F931F93D6
S1131CD0CF93DF9381E00E9402056091060470E0D7
S1131CE0CB01880F991F680F791F66597B4F87EBCB
S1131CF093E00E94D717AC0161E081E00E948D045B
S1131D0060EF71E087EB93E00E94D7170E944404D0
S1131D1069E074E08091F4039091F5030E940D074B
S1131D2089E094E00E9444048091F9031F928F9308
S1131D308091F8031F928F938091FA031F928F93DF
S1131D4002E112E01F930F93C9E0D4E0DF93CF9335
S1131D500E941718AE016DE081E00E94AF0460910B
S1131D60070470E0CB01880F991F680F791F66592B
S1131D707B4F87EB93E00E94D717AC0161E082E0D0
S1131D800E948D046AEE71E087EB93E00E94D717FE
S1131D900E944404BE018091F6039091F7030E94CF
S1131DA00D07CE010E944404809100041F928F937A
S1131DB08091FF031F928F93809101041F928F9350
S1131DC01F930F93DF93CF930E941718AE016DE01A
S1131DD082E00E94AF0462EE71E087EB93E00E9420
S1131DE0D717AC0161E083E00E94AF0480915404F2
S1131DF08F93809153048F934BE2E42E42E0F42EB0
S1131E00FF92EF92DF93CF930E941718CE010E94A6
S1131E10440485E20E942204809158041F928F9307
S1131E20809157041F928F93809159041F928F932E
S1131E301F930F93DF93CF930E9417188DB79EB70C
S1131E4084960FB6F8949EBF0FBE8DBFAE016DE0B1
S1131E5083E00E94AF046AED71E087EB93E00E9497
S1131E60D717AC0161E084E00E94AF04809156046E
S1131E708F93809155048F93FF92EF92DF93CF93CA
S1131E800E941718CE010E94440485E20E94220495
S1131E9080915F041F928F9380915E041F928F93B1
S1131EA0809160041F928F931F930F93DF93CF93BE
S1131EB00E941718AE016DE084E00E94AF048DB754
S1131EC09EB740960FB6F8949EBF0FBE8DBF8FEF9E
S1131ED00E9480168823D9F381E0DF91CF911F916E
S1131EE00F91FF90EF900C940205FA01208131814B
S1131EF0FB01408151814217530744F0FC0180816A
S1131F0091812817390724F080E0089581E008952D
S1131F1082E008954F925F926F927F928F929F9288
S1131F20AF92BF92CF92DF92EF92FF92CF93DF9363
S1131F305C01EB01FA01DC014C9112962C9130E02A
S1131F40A0E1BEE00E94B6176B017C01242F30E0B3
S1131F50ACE3B0E00E94B617C60ED71EE81EF91E09
S1131F60D50111968C91C80ED11CE11CF11C48813D
S1131F702A8130E0A0E1BEE00E94B6174B015C016B
S1131F80242F30E0ACE3B0E00E94B617860E971E13
S1131F90A81EB91E8981880E911CA11CB11C408108
S1131FA0228130E0A0E1BEE00E94B6172B013C0183
S1131FB0242F30E0ACE3B0E00E94B617AB01BC01C3
S1131FC0440D551D661D771D8181480F511D611DEE
S1131FD0711D8C149D04AE04BF0438F481E0C41652
S1131FE0D506E606F70698F418C0C814D904EA041E
S1131FF0FB0439F481E0C416D506E606F70661F45D
S11320000CC0C416D506E606F70630F481E0481580
S113201059056A057B0508F080E0DF91CF91FF90B8
S1132020EF90DF90CF90BF90AF909F908F907F9074
S11320306F905F904F900895FF920F931F93CF93EB
S1132040DF931092080402E093E0F92E1091080443
S1132050133008F047C0C12FD0E0CC0FDD1FCA50A9
S1132060DD4FAE0161EB73E083EB93E00E94750FEB
S1132070813031F0823049F4809191048D7F03C026
S1132080809191048260809391048091EF02811188
S113209010C0AE016EEE73E080EF93E00E94750F06
S11320A0813029F0823029F4F092EF0202C00093CB
S11320B0EF0246EF52E063EE73E081EE93E00E949C
S11320C0750F813031F0823049F480919104816040
S11320D003C0809191048E7F809391041F5F1093BD
S11320E00804B4CFDF91CF911F910F91FF90089511
S11320F0CF92DF92EF92FF92FC018091A403909122
S1132100A503A091A603B091A703892B8A2B8B2B3F
S113211019F54081228130E0A0E1BEE00E94B617AB
S11321206B017C01242F30E0ACE3B0E00E94B617D1
S1132130DC01CB018C0D9D1DAE1DBF1D2181820FC5
S1132140911DA11DB11D8093A4039093A503A09399
S1132150A603B093A70308C01092A4031092A5038A
S11321601092A6031092A703FF90EF90DF90CF90F8
S113217008950F931F93CF93DF9347EE53E06FE1DE
S113218074E086E294E00E948A0F9091910488237F
S113219011F0946001C09B7F9093910447EE53E04B
S11321A06CE474E085E494E00E948A0F90919104B9
S11321B0882311F0986001C0977F90939104C7E63B
S11321C0D4E000E010E08091F002082E000C990B9E
S11321D008171907A4F48091910485FD0CC047EEFB
S11321E053E0BE01CE010E948A0F882321F08AE8C1
S11321F094E00E9478100F5F1F4F2796E4CFDF9181
S1132200CF911F910F910895F89486E790E00E9472
S1132210EA1A8093FC0285E790E00E94EA1A809310
S1132220F10246E150E067E470E08EE893E00E943A
S1132230DA1A47E050E060E470E086E294E00E943D
S1132240DA1A47E050E069E370E08FE194E00E941D
S1132250DA1A47E050E062E370E085E494E00E941B
S1132260DA1A47E050E06BE270E08CE494E00E94FC
S1132270DA1A46E050E06FE670E08EEE93E00E94DA
S1132280DA1A46E050E069E670E081EE93E00E94DD
S1132290DA1A46E050E063E670E081EB93E00E94D6
S11322A0DA1A46E050E064E270E08AE894E00E94C2
S11322B0DA1A43E250E061E070E087E694E00E94BD
S11322C0DA1A80E090E00E94EA1A8093F00278948F
S11322D008952FEF829FC001112464E670E00E94EC
S11322E0611770938B0060938A0008959F92AF9258
S11322F0BF92CF92DF92EF92FF920F931F93CF93EF
S1132300DF93EC015B0108814CE952E061E083E07A
S11323100E948D0411E08BEAE82E82E0F82E99E009
S1132320C92E94E0D92E24E6922E88810E94691148
S11323301123A9F088811F928F93FF92EF92DF926D
S1132340CF920E94171849E054E06DE083E00E94A8
S1132350D5040F900F900F900F900F900F9084E082
S11323600E948016182F84E00E948B16812B51F155
S113237010928B0010928A0081E00E94020547E3CC
S113238052E061E081E00E948D04F8946881C50107
S11323900E94FC1A78942FEF89E698E1215080403E
S11323A09040E1F700C0000081E0DF91CF911F91E0
S11323B00F91FF90EF90DF90CF90BF90AF909F90E0
S11323C00C94020580E20E948016182F80E20E947D
S11323D08B16812B89F0088310928B0010928A004F
S11323E0DF91CF911F910F91FF90EF90DF90CF90ED
S11323F0BF90AF909F90089581E00E948016182F9F
S113240081E00E948B16812B39F08881843611F487
S1132410188214C08F5F11C080E10E948016182FAB
S113242080E10E948B16812B11F410E07ECF88810D
S1132430811102C0988202C08150888311E075CF57
S113244081E00E94020564E372E087EB93E00E945E
S1132450D717AC0161E081E00E948D0469E272E06B
S113246087EB93E00E94D717AC0161E082E00E9401
S11324708D0465E770E081EF92E00E94761181E0BF
S11324800C9402050F931F93CF938091910484FFC2
S113249097C0479A8091910480FF02C0129A01C0AC
S11324A012988091910481FF02C0119A01C0119881
S11324B08091910482FF02C0139A01C01398809105
S11324C0910483FF05C08091F1020E94691104C048
S11324D010928B0010928A008091EF02882311F0F1
S11324E0469A02C046985D9810920804C091080468
S11324F0C330D0F50C2F10E0000F111F0A501D4FF0
S1132500A80164EF73E086EF93E00E94750F8130B9
S1132510A9F0823029F5F801808191819093F70325
S11325208093F60387E0E7EEF3E0AFEFB3E00190CA
S11325300D928A95E1F7C093070412C0F8018081D7
S113254091819093F5038093F40387E0E7EEF3E041
S1132550A8EFB3E001900D928A95E1F7C0930604C9
S1132560CF5FC0930804C2CF44EF52E063E574E048
S113257085E594E00E94750F813081F0823051F539
S11325808091F4029091F50290935604809355043F
S113259087E0E7EEF3E0AEE5B4E00DC08091F4022D
S11325A09091F502909354048093530487E0E7EEEE
S11325B0F3E0A7E5B4E001900D928A95E1F70AC033
S11325C0479812981198139A46985D9810928B0028
S11325D010928A008091910485FF02C0109A01C074
S11325E01098CF911F910F9108958091EA039091D3
S11325F0ED02891709F442C02091F6023091F702E6
S11326003093F5032093F4033093F7032093F603F8
S113261097E0E7EEF3E0A8EFB3E001900D929A950E
S1132620E1F797E0E7EEF3E0AFEFB3E001900D924E
S11326309A95E1F710920604109207042091F4028F
S11326403091F5023093540420935304309356048C
S11326502093550497E0E7EEF3E0A7E5B4E001909A
S11326600D929A95E1F797E0E7EEF3E0AEE5B4E07A
S113267001900D929A95E1F78093ED020895CF931E
S1132680DF938CE00E940205C9E0D4E0FE010190D2
S11326900020E9F7AF014950544060E070E0CE01FA
S11326A00E94DE178091E8031F928F938091E703C5
S11326B01F928F938091E9031F928F9382E192E09E
S11326C09F938F93DF93CF930E941718AE0161E01D
S11326D081E00E948D0480E20E942204E7EBF3E093
S11326E001900020E9F7AF01475B534060E070E0E0
S11326F087EB93E00E94DE176091EB0370E0CB015F
S1132700880F991F680F791F6D587B4F87EB93E0F3
S11327100E94D7170E944404FE0101900020E9F7AB
S1132720AF014950544060E070E0CE010E94DE17D2
S1132730BE018091F8029091F9020E940D0742EBCC
S113274052E061E082E00E948D04CE010E944404C4
S1132750FE0101900020E9F7AF014950544060E0C8
S113276070E0CE010E94DE17BE018091FA029091C2
S1132770FB020E940D0745EB52E06EE082E00E94EE
S11327808D04CE010E94440448EB52E061E083E0F2
S11327900E948D04FE0101900020E9F7AF01495029
S11327A0544060E070E0CE010E94DE178091F50293
S11327B08F938091F4028F938BE292E09F938F9397
S11327C0DF93CF930E941718CE010E94440485E240
S11327D00E94220409900020E9F7AE0149505440B8
S11327E060E070E089E094E00E94DE1769E074E044
S11327F08091F6029091F7020E940D074CEB52E093
S11328006EE083E00E948D0489E094E00E94440419
S113281045EB52E061E084E00E948D048DB79EB7E1
S113282040960FB6F8949EBF0FBE8DBF029902C0AA
S11328308FE501C08EE50E9422048FEB92E00E9496
S11328404404019902C08FE501C08EE50E94220470
S113285083EC92E00E944404039902C08FE501C016
S11328608EE50E94220487EC92E00E944404809149
S1132870910483FD02C08FE501C08EE50E9422040D
S11328808CEC92E00E944404009902C08FE501C0E0
S11328908EE50E9422046091EF0299E0699FB001E5
S11328A01124655D7B4F87EB93E00E94D717AC0141
S11328B06DE081E0DF91CF910C948D0404B603FEAA
S11328C006C086E08093EF0284B7877F84BF0FB68B
S11328D0F894A895809160008861809360001092BC
S11328E060000FBE0E94F4060E9404110E949D160F
S11328F00E943D050E946D020E9411050E94050779
S113290078942FEF83ED90E3215080409040E1F7DD
S113291000C000009EE088E10FB6F894A89580936B
S113292060000FBE9093600010920804E0910804C8
S1132930E330E8F4F0E0E053FD4F80810E94C706E5
S113294020910804422F50E0FA01EE0FFF1FEA50D5
S1132950FD4FDA01A450BD4F3C91830F911D37FD0B
S11329609A95918380832F5F20930804DFCF87EEAD
S113297093E00E94920242EF52E064EF72E08EE430
S11329800E948A038091F6029091F7029093F503D6
S11329908093F4039093F7038093F6038091F402F9
S11329A09091F502909354048093530490935604A9
S11329B0809355048091910480618F7D809391046C
S11329C00E94BB0585E00E94FA0581E00E94020591
S11329D080E090E00E9438058CE00E940205C8E186
S11329E0DEE078942FEF84E39CE021508040904017
S11329F0E1F700C00000F894A8950E943F1384E01A
S1132A000E948016882309F44EC00FB6F894A89546
S1132A1080916000886180936000109260000FBE16
S1132A2081E00E94020580E090E00E9438050E9447
S1132A30840681E00E948016882311F080E006C09D
S1132A4082E00E948016882321F081E00E94FA052A
S1132A50EECF84E00E948016882311F082E0F6CF46
S1132A6088E00E948016882311F083E0EFCF80E194
S1132A700E948016882311F084E0E8CF80E20E944F
S1132A8080168823A1F20FB6F894A895C09360002D
S1132A900FBED093600085E00E94FA0581E00E9499
S1132AA002051092EE0280E80E948016882389F0C5
S1132AB08091910484FB222720F991E0922790FBD6
S1132AC084F98093910480E090E00E94380510928C
S1132AD0EE0280E40E948016882351F08AE894E094
S1132AE00E94781080E090E00E9438051092EE0277
S1132AF080E20E948016882361F08091EE028E317C
S1132B0010F41092EF0280E090E00E9438051092D9
S1132B10EE028BE30E948016882331F080E090E07F
S1132B200E9438051092EE028091AF038823F9F0D9
S1132B301092AF0387EE93E00E9492020E94B910B4
S1132B400E94F5124091A4035091A5036091A6033D
S1132B507091A70380919104452B462B472B11F0CC
S1132B60806201C08F7D809391040E944212809103
S1132B70AA03882309F435CF1092AA0310920804FB
S1132B80E0910804E33028F5F0E0E053FD4F808144
S1132B900E94C7062091080430E0F901EE0FFF1FE0
S1132BA0EA50FD4FD901A450BD4F2C91820F911DC5
S1132BB027FD9A959183808342EF52E064EF72E09F
S1132BC08EE40E948A03809108048F5F8093080436
S1132BD0D7CF0E941C108091EE028F3128F081E043
S1132BE090E00E943805FDCE8F5F8093EE02F9CE0F
S1132BF01F920F920FB60F9211242F938F939F93CE
S1132C00AF93BF9384E686BD83B19091B003809562
S1132C10282F2927909103039223892F809580934D
S1132C200303909102039223982790930203822333
S1132C3089239091B00398279093B0032091B00317
S1132C409091AE038223892B8093AE038091B003CD
S1132C50811103C082E380930103809101038150B9
S1132C6019F0809301030AC08AE0809301039091D4
S1132C70B0038091AB03892B8093AB038091000355
S1132C808F5F823319F08093000330C010920003E9
S1132C9091E09093AF038091FF028F5F823019F02F
S1132CA08093FF0223C01092FF029093AA038091A5
S1132CB0A4039091A503A091A603B091A703892B27
S1132CC08A2B8B2B99F08091A4039091A503A0915A
S1132CD0A603B091A7030197A109B1098093A403A6
S1132CE09093A503A093A603B093A703BF91AF91BC
S1132CF09F918F912F910F900FBE0F901F90189559
S1132D00F8949091AE0389239091AE039827909301
S1132D10AE0378940895F8949091AB03892390912D
S1132D20AB0398279093AB0378940895F89490910B
S1132D30B003909589230C9480161092A4031092EA
S1132D40A5031092A6031092A70384B114B885B109
S1132D508FEF85B908951F920F920FB60F92112429
S1132D602F938F939F93EF93FF938091C000909143
S1132D70C6008871E0914B03EF5FEF7120914A0325
S1132D80E21739F0E0934B03F0E0E25BFC4F9083F1
S1132D9001C082E080934903FF91EF919F918F914D
S1132DA02F910F900FBE0F901F9018951F920F92A6
S1132DB00FB60F9211248F939F93EF93FF939091EB
S1132DC04D0380914C03981769F0E0914C03EF5F39
S1132DD0EF71E0934C03F0E0E259FC4F8081809363
S1132DE0C60005C08091C1008F7D8093C100FF9112
S1132DF0EF919F918F910F900FBE0F901F90189598
S1132E001F920F920FB60F9211242F938F939F93BB
S1132E10EF93FF938091C8009091CE008871E09168
S1132E200603EF5FEF7120910503E21739F0E09399
S1132E300603F0E0E75FFC4F908301C082E08093DB
S1132E400403FF91EF919F918F912F910F900FBEEB
S1132E500F901F9018951F920F920FB60F92112486
S1132E608F939F93EF93FF939091080380910703AF
S1132E70981769F0E0910703EF5FEF71E0930703A0
S1132E80F0E0E75DFC4F80818093CE0005C0809127
S1132E90C9008F7D8093C900FF91EF919F918F911D
S1132EA00F900FBE0F901F901895991B79E004C0E6
S1132EB0991F961708F0961B881F7A95C9F7809575
S1132EC00895AA1BBB1B51E107C0AA1FBB1FA6176D
S1132ED0B70710F0A61BB70B881F991F5A95A9F7BF
S1132EE080959095BC01CD010895A1E21A2EAA1BEC
S1132EF0BB1BFD010DC0AA1FBB1FEE1FFF1FA217A6
S1132F00B307E407F50720F0A21BB30BE40BF50BA2
S1132F10661F771F881F991F1A9469F7609570952B
S1132F20809590959B01AC01BD01CF010895052EBC
S1132F3097FB1EF400940E94AE1757FD07D00E9421
S1132F40751707FC03D04EF40C94AE1750954095BA
S1132F50309521953F4F4F4F5F4F08959095809541
S1132F60709561957F4F8F4F9F4F0895A29FB00139
S1132F70B39FC001A39F700D811D1124911DB29FA9
S1132F80700D811D1124911D08950E94B617B7FF7D
S1132F900895821B930B08950E94B617A59F900D68
S1132FA0B49F900DA49F800D911D11240895FB01E1
S1132FB0DC0105900D920020E1F70895FB01DC018E
S1132FC002C001900D9241505040D8F70895453207
S1132FD0510520F4423010F00C94F217FB011082DA
S1132FE0CB010895BB274A3031F4992322F4BDE282
S1132FF0909581959F4F0C94FE17BB27FB01552795
S1133000AA27880F991FAA1FA41710F0A41B839541
S11330105051B9F7A05DAA3308F0A95DA1930097B8
S113302079F7B111B1931192CB010C94301AAEE03F
S1133030B0E0EDE1F8E10C94181B0D891E8986E0DF
S11330408C831A8309838FEF9FE79E838D83AE0160
S1133050475E5F4F6F89788DCE0101960E943918C3
S1133060EF81F885E00FF11F10822E96E4E00C94B6
S1133070341BABE0B0E0EFE3F8E10C940A1B6C0105
S11330807B018A01FC0117821682838181FFCCC1F6
S1133090CE0101963C01F6019381F70193FD8591E0
S11330A093FF81917F01882309F4BAC1853239F4F1
S11330B093FD859193FF81917F01853229F4B601B7
S11330C090E00E94401AE7CF912C212C312CFFE193
S11330D0F315D8F08B3279F038F4803279F08332FA
S11330E0A1F4232D20611DC08D3261F0803369F479
S11330F0232D216016C0832D8260382EE32DE460D9
S11331003E2E2AC0F32DF8601DC037FC2DC020EDE3
S1133110280F2A3040F08E32B9F436FC81C1232DB9
S11331202064322E19C036FE06C08AE0989E200D17
S11331301124922E11C0EAE02E9E200D1124222E7D
S1133140F32DF0623F2E08C08C3621F4832D806865
S1133150382E02C0883641F4F70193FD859193FF20
S113316081917F018111B3CF982F9F7D9554933026
S113317028F40C5F1F4F9FE399830DC0833631F011
S1133180833771F0833509F059C021C0F80180817B
S113319089830E5F1F4F88248394912C530113C09D
S11331A02801F2E04F0E511CF801A080B18036FED8
S11331B003C0692D70E002C06FEF7FEFC5010E946C
S11331C0251A4C018201F32DFF773F2E16C02801EA
S11331D022E0420E511CF801A080B18036FE03C0EB
S11331E0692D70E002C06FEF7FEFC5010E941A1ACB
S11331F04C01F32DF0683F2E820133FC1BC0822D5D
S113320090E088169906B0F4B60180E290E00E943E
S1133210401A2A94F4CFF50137FC859137FE819149
S11332205F01B60190E00E94401A21102A9421E027
S1133230821A91088114910471F7E8C0843611F060
S1133240893641F5F80137FE07C0608171818281BA
S113325093810C5F1F4F08C060817181072E000CA1
S1133260880B990B0E5F1F4FF32DFF763F2E97FFB0
S113327009C090958095709561957F4F8F4F9F4FB2
S1133280F0683F2E2AE030E0A3010E947C1A882EC9
S1133290861845C0853731F4232D2F7EB22E2AE0BF
S11332A030E025C0932D997FB92E8F36C1F018F4E4
S11332B0883579F0B5C0803719F0883721F0B0C06F
S11332C0E92FE061BE2EB4FE0DC0FB2DF460BF2ECD
S11332D009C034FE0AC0292F2660B22E06C028E099
S11332E030E005C020E130E002C020E132E0F80126
S11332F0B7FE07C060817181828193810C5F1F4F8B
S113330006C06081718180E090E00E5F1F4FA301D1
S11333100E947C1A882E8618FB2DFF773F2E36FEDE
S11333200DC0232D2E7FA22E891458F434FE0BC019
S113333032FC09C0832D8E7EA82E05C0B82CA32C88
S113334003C0B82C01C0B92CA4FE0FC0FE01E80DC7
S1133350F11D8081803321F49A2D997EA92E09C014
S1133360A2FE06C0B394B39404C08A2D867809F0F3
S1133370B394A3FC11C0A0FE06C0B21488F4280CB8
S1133380922C9B180EC0B21460F4B60180E290E057
S11333900E94401AB394F7CFB21418F42B1802C049
S11333A0982C212CA4FE10C0B60180E390E00E946A
S11333B0401AA2FE17C0A1FC03C088E790E002C037
S11333C088E590E0B6010CC08A2D867859F0A1FEFC
S11333D002C08BE201C080E2A7FC8DE2B60190E05E
S11333E00E94401A891438F4B60180E390E00E94E8
S11333F0401A9A94F7CF8A94F301E80DF11D808165
S1133400B60190E00E94401A8110F5CF222009F401
S113341042CEB60180E290E00E94401A2A94F6CF90
S1133420F6018681978102C08FEF9FEF2B96E2E130
S11334300C94261BFC010590615070400110D8F7D4
S1133440809590958E0F9F1F0895FC0161507040E8
S113345001900110D8F7809590958E0F9F1F0895C5
S1133460DC01FC01672F71917723E1F7329704C0E7
S11334707C916D9370836291AE17BF07C8F3089572
S11334800F931F93CF93DF93FB01238121FD03C08F
S11334908FEF9FEF2CC022FF16C0468157812481F5
S11334A035814217530744F4A081B1819D012F5FF8
S11334B03F4F318320838C93268137812F5F3F4F89
S11334C03783268314C08B01EC01FB010084F18552
S11334D0E02D0995892BE1F6D80116968D919C91E2
S11334E01797019617969C938E931697CE01DF91AA
S11334F0CF911F910F910895FA01AA27283051F115
S1133500203181F1E8946F936E7F6E5F7F4F8F4F10
S11335109F4FAF4FB1E03ED0B4E03CD0670F781F6F
S1133520891F9A1FA11D680F791F8A1F911DA11D54
S11335306A0F711D811D911DA11D20D009F468948D
S11335403F912AE0269F11243019305D3193DEF635
S1133550CF010895462F4770405D4193B3E00FD0EB
S1133560C9F7F6CF462F4F70405D4A3318F0495DD6
S113357031FD4052419302D0A9F7EACFB4E0A695B9
S11335809795879577956795BA95C9F700976105DB
S1133590710508959B01AC010A2E06945795479531
S11335A037952795BA95C9F7620F731F841F951F26
S11335B0A01D0895DC01CB01FC01F999FECF06C0E2
S11335C0F2BDE1BDF89A319600B40D9241505040DD
S11335D0B8F70895F999FECF92BD81BDF89A99275D
S11335E080B50895DC01CB0103C02D910E94FD1A22
S11335F041505040D0F70895262FF999FECF1FBAB5
S113360092BD81BD20BD0FB6F894FA9AF99A0FBE07
S1133610019608952F923F924F925F926F927F92FC
S11336208F929F92AF92BF92CF92DF92EF92FF92CE
S11336300F931F93CF93DF93CDB7DEB7CA1BDB0B7A
S11336400FB6F894DEBF0FBECDBF09942A8839881F
S113365048885F846E847D848C849B84AA84B98426
S1133660C884DF80EE80FD800C811B81AA81B98132
S1133670CE0FD11D0FB6F894DEBF0FBECDBFED0146
S10936800895F894FFCF49
S11336860100000006DE010000CD01000001000675
S1133696C8010000BF01000002000691010000B14C
S11336A601000003000644010000A3010000040118
S11336B606000000009501640E05010600000000E6
S11336C687012D0E28010700000000DE00EF0C29FB
S11336D6010700000000CC00670D2A010700000066
S11336E600BC00030D2B010700000000AC00170D01
S11336F62C0107000000009C002B0D2D0107000083
S113370600008C003F0D2E0107000000007C0053D2
S11337160D1E0105000000002601C70C1F0105004F
S11337260000001801DB0C200105000000000D015B
S1133736020E210105000000000201160E220105F9
S113374600000000F00020121401020000000045F1
S113375601B30C150102000000003401A10C0A019A
S113376604000000007701D70B0B010400000000E1
S11337766C01F60B0C01040000000060012F0C0D17
S11337860104000000005501680C2D25692E2569E9
S11337964300253032643A253032643A25303264A7
S11337A600253032642E253032642E2530326400F2
S11337B625752E25752000537065696368657265E5
S11337C620446174656E0054656D7065726174752C
S11337D672204F66667365743A004C4D37362D0079
S11337E63A202020202020004B6F72722E2E205467
S11337F6656D703A20004F66667365743A20202022
S1133806202000416E7A61686C20526567656E7A85
S1133816656974656E3A00253031750048656C6CCF
S113382669676B6569743A20202000253033752555
S113383625004D3A00483A0048793A00423A0020B9
S11338464B3A00204C3A00204D4C3A0020503A00A6
S107385690929400B4
S9030000FC
