:100000000C948B020C94B0020C94B0020C94B002CD
:100010000C94B0020C94B0020C94B0020C94B00298
:100020000C94B0020C94B0020C94B0020C94B00288
:100030000C94B0020C94B0020C94B0020C94B00278
:100040000C94B0020C94B0020C9456150C94B002AF
:100050000C94B0020C94B0020C94B0020C94B00258
:100060000C94B0020C94B0020C94B0020C94B00248
:100070000C94B0020C94B0020C94B002342D3120D8
:100080007048206B616C69622E00332D35204D4C19
:100090002065696E00332D34204C616D70652061E0
:1000A000757320504D00332D33204C616D706520E9
:1000B00065696E20504D00332D32204C616D7065A6
:1000C0002061757320414D00332D31204C616D70DE
:1000D000652065696E20414D00322D3320467574D0
:1000E00074657273746F707000322D3220446174C5
:1000F000756D2065696E73742E00322D31205A653E
:1001000069742065696E73742E00312D3420416C42
:1001100061726D2000312D33204C756566746572F7
:1001200000312D32204865697A657200312D312009
:1001300054656D70204F66667365740036204162A9
:100140006F757420202020202000352054616765C1
:100150007377657274652000342050482D5765729E
:1001600074202020200033204C69636874202020F4
:100170002020200032205A65697420202020202071
:100180002000312054656D70657261747572007065
:10019000484D696E3A0070484D61783A00542D4DD3
:1001A000696E3A00542D4D61783A0053573A5631F2
:1001B0002E32004857204D3A56312E3020463A56BE
:1001C000312E300053746566616E204B656C6C6532
:1001D0007200755175617269756D204469706C6F3C
:1001E0006D6172622E005A6569742045696E737480
:1001F000656C6C756E67656E20204D6F6E646C6902
:100200006368742065696E7374656C6C656E3A0022
:100210004675747465722053746F707020446175F4
:100220006572202065696E676562656E3A005A6581
:10023000697420504D2045696E7374656C6C2E2076
:1002400020204C616D706520617573736368616C0B
:1002500074656E3A005A65697420504D2045696E88
:100260007374656C6C2E2020204C616D7065206568
:10027000696E736368616C74656E3A005A6569747F
:1002800020414D2045696E7374656C6C2E202020D2
:100290004C616D706520617573736368616C746522
:1002A0006E3A005A65697420414D2045696E737439
:1002B000656C6C2E2020204C616D70652065696E28
:1002C000736368616C74656E3A00416B7475656C3C
:1002D0006C65205568727A656974202020206569F4
:1002E0006E676562656E00416B7475656C6C6573F5
:1002F00020446174756D202020202065696E67653B
:1003000062656E0054656D702E204D61783A005420
:10031000656D702E204D696E3A0048797374657270
:100320006573653A0054656D70657261747572200D
:100330004D696E2F4D61783A004C75656674657233
:100340002065696E3A004C7565667465722061754A
:10035000733A004879737465726573653A004C7539
:1003600065667465722065696E7374656C6C756E14
:1003700067004865697A65722065696E3A0048656C
:10038000697A6572206175733A0048797374657291
:100390006573653A004865697A65722045696E73D0
:1003A00074656C6C756E67656E00455343206472AE
:1003B0007565636B656E2020202020004B616C69A1
:1003C0006272696572756E672020202020202020CF
:1003D000616267657363686C6F7373656E00732029
:1003E00077617274656E202D3E204F4B20200053A4
:1003F0006F6E646520696E207048392E3020202091
:100400002020204C6F6573756E672074617563687A
:10041000656E00732077617274656E202D3E204FEB
:100420004B202000536F6E646520696E2070483742
:100430002E302020202020204C6F6573756E6720A1
:100440007461756368656E00732077617274656EA0
:10045000202D3E204F4B202000536F6E6465206995
:100460006E207048342E302020202020204C6F65D4
:1004700073756E67207461756368656E2020202037
:10048000202000455343206B616C69622E2061621D
:100490006272656368656E004F4B206B616C6962C8
:1004A0002E207374617274656E00704820536F6EF5
:1004B0006465206B616C696272696572656E00418A
:1004C0006C6C6573204F4B004932432045525221DA
:1004D0000054656D70202B2B210054656D70202D0C
:1004E0002D21007048202B2B210000007048202D6A
:1004F0002D21000000574454204552522100202055
:10050000004D6F004469004D6900446F0046720061
:10051000536100536F0011241FBEC0E0D8E0DEBF5E
:10052000CDBFE6E9F3E08AEA91E18193E030F90793
:10053000E0F312E0A0E0B1E0E6EFF3E302C00590E3
:100540000D92A838B107D9F723E0A8E8B2E001C0BE
:100550001D92A639B207E1F70E94F4130C94F91921
:100560000C940000EAE7F0E0808187608083ECE78C
:10057000F0E080818083089590917A009068909354
:100580007A0090917C00892B80937C0080917A0086
:10059000806480937A0080917A0086FDFCCF809100
:1005A00078009091790020E180E090E030917A002D
:1005B000306430937A0030917A0036FDFCCF409160
:1005C000780050917900840F951F215079F7209180
:1005D0007A002F7720937A0024E0969587952A95C4
:1005E000E1F708954F925F926F927F928F929F9260
:1005F000AF92BF92CF92DF92EF92FF920F931F9331
:10060000CF93DF938C016B017A01E901FB01A0809C
:10061000B180FA01208131812A193B0940E050E084
:1006200060E27EE480E090E00E9439162E873F87EA
:10063000488B598BD5010E94901620E7422E21E16C
:10064000522E66246394712CA3019201261B370B52
:10065000480B590B2A8B3B8B4C8B5D8BF80100812F
:1006600011819501201B310B40E050E060E375E7FC
:1006700080E090E00E9439162E833F834887598797
:10068000D8010E94901630E4832E3CE9932EA12CD1
:10069000B12CA5019401261B370B480B590B2A8757
:1006A0003B874C875D8719830883F60180819181A0
:1006B0009B838A83F701808191819D838C83DF9165
:1006C000CF911F910F91FF90EF90DF90CF90BF904F
:1006D000AF909F908F907F906F905F904F90089514
:1006E0000F931F93CF93DF93EC0184E00E94BC0231
:1006F0006A817B819C0140E050E08617970758F49F
:100700006E817F81888599850E9409160A851B85DF
:100710002C853D850AC06E857F85888999890E94D0
:1007200009160A891B892C893D89600F711F821F58
:10073000931F2AE030E040E050E00E943916C901E2
:10074000DF91CF911F910F910895CF9380ED0E947B
:100750000506882339F00E94500681E08093A902A3
:10076000CF91089580E00E94580681ED0E944E06C8
:100770000E947306C82F0E94500680ED0E94050655
:1007800080E00E9458068C2F8F770E945806CF91E8
:100790000C945006CF92DF92EF92FF920F931F932B
:1007A000CF93DF93EC0180ED0E940506882331F0A2
:1007B0000E94500681E08093A90257C080E00E9409
:1007C000580681ED0E944E060E946906D82E0E94AE
:1007D0006906E82E0E946906F82E0E946906C82E56
:1007E0000E946906082F0E946906182F0E9473064E
:1007F0009D2D92959F702D2D2F70D22E3AE0939FB4
:10080000D00C1124D9829E2D92959F702E2D2F7081
:10081000E22E3AE0939FE00C1124E8829F2D9295FE
:100820009F702F2D2F70F22E3AE0939FF00C112421
:10083000FA82902F92959F700F702AE0929F000D80
:1008400011240B83CC82912F92959F701F703AE0F8
:10085000939F100D11241D83982F92959F708F7078
:100860002AE0929F800D11248E83DF91CF911F91FA
:100870000F91FF90EF90DF90CF9008950F931F930B
:10088000CF938C0180ED0E940506882349F00E94D9
:10089000500681E08093A902CF911F910F91089596
:1008A00080E00E945806F8018181CAE06C2F0E9406
:1008B0001916292FF0E18F9FC0011124822B0E946D
:1008C0005806F80180816C2F0E941916292FF0E13B
:1008D0008F9FC0011124822B0E945806F80182814B
:1008E0006C2F0E941916292FF0E18F9FC00111244F
:1008F000822B0E945806CF911F910F910C945006A5
:100900001F93CF93DF93EC0180ED0E9405068823AF
:1009100049F00E94500681E08093A902DF91CF91B7
:100920001F91089583E00E9458068C810E9458060A
:100930008B811AE0612F0E941916292F30E1839FC5
:10094000C0011124822B0E9458068D81612F0E94C4
:100950001916292F30E1839FC0011124822B0E9498
:1009600058068E81612F0E941916292F30E1839F2E
:10097000C0011124822B0E945806DF91CF911F9154
:100980000C945006CF93C82F80E70E9427068091D1
:10099000000190910101892B19F08C2F806402C015
:1009A0008C2F8F7B0E945806CF910C945006CF93CA
:1009B000C82FC0688C2F0E94C2048C2F0E94C204D2
:1009C00080E0CF910C94C204CF93C82F82958F7092
:1009D00080610E94D7048C2F8F708061CF910C941E
:1009E000D704CF93BC0188E892E00E949B16C0E038
:1009F000EC2FF0E0E857FD4F8081882329F08081BB
:100A00000E94E404CF5FF4CFCF9108950F931F931A
:100A1000CF938C01C0E0F801EC0FF11D8081882399
:100A200021F00E94E404CF5FF6CFCF911F910F9188
:100A30000895CF939FEF980F9430F8F49FEF960F9F
:100A40009431D8F4833041F0843041F0823011F099
:100A5000CFE705C0CFEB03C0C3E901C0C3EDC60FAC
:100A60008C2F82958F7080680E94D7048C2F8F7096
:100A700080680E94D70481E001C080E0CF91089592
:100A8000CF93DF93D42F0E941905C82F882319F024
:100A90008D2F0E94E4048C2FDF91CF910895FF9257
:100AA0000F931F93CF93DF93F82EC62F8A01D0E0C8
:100AB000F801ED0FF11D4081442361F06C2F8F2D63
:100AC0000E944005882339F0CF5FC53108F0C1E0AE
:100AD000DF5FEECF81E0DF91CF911F910F91FF900B
:100AE0000895EF92FF921F93CF93DF93C82FD62FD5
:100AF0007A0110E0F701E10FF11D4081442381F0FC
:100B00006D2F8C2F0E944005882359F0DF5FD5316F
:100B100010F0CF5FD1E0C53008F0C1E01F5FEACF31
:100B200081E0DF91CF911F91FF90EF9008950F9397
:100B30001F93CF938A010E941905C82F882319F0AB
:100B4000C8010E9406058C2FCF911F910F91089527
:100B5000AC0120E030E085E02417350731F0982F14
:100B60009A95F1F72F5F3F4FF7CF089520E030E0DF
:100B700040EA5FE02817390731F0FA013197F1F7C1
:100B80002F5F3F4FF7CF0895CF93C82F82958F7077
:100B90000E94D7048C2F8F700E94D70481E090E0D0
:100BA000CF910C94B60580E190E00E94B60583E0F9
:100BB0000E94D70485E090E00E94B60583E00E9481
:100BC000D70485E690E00E94A80583E00E94D70440
:100BD00082E00E94D70488E20E94C40588E00E9457
:100BE000C40581E00E94C40586E00E94C4058CE033
:100BF0000C94C40590930101809300010895109214
:100C0000B90088E48093B800089594EA9093BC00FA
:100C10009091BC0097FFFCCF9091B900987F9830DD
:100C200021F0903111F081E008958093BB0084E8B9
:100C30008093BC008091BC0087FFFCCF8091B900FD
:100C4000887F883111F0803471F780E0089524EABC
:100C500034E844E92093BC009091BC0097FFFCCF9E
:100C60009091B900987F983011F0903199F7809366
:100C7000BB003093BC009091BC0097FFFCCF9091DB
:100C8000B900987F903211F0983539F44093BC0048
:100C90009091BC0094FDFCCFDDCF08950C94050627
:100CA00084E98093BC008091BC0084FDFCCF089552
:100CB0008093BB0084E88093BC008091BC0087FFD8
:100CC000FCCF9091B900987F81E0983209F480E0E0
:100CD000089584EC8093BC008091BC0087FFFCCF1A
:100CE0008091BB00089584E88093BC008091BC0093
:100CF00087FFFCCF8091BB000895E7EAF1E082E036
:100D000091E096838583918B808B948F838F97A3BB
:100D100086A3E6E8F1E096838583918B808B948FA0
:100D2000838FEFE4F1E096838583918B808B948FA2
:100D3000838F97A386A392AB81AB90934A01809354
:100D400049019093D0028093CF0210929C02EDE96A
:100D5000F2E010821182128213820895E091CF0294
:100D6000F091D00292818230E9F130F4882359F079
:100D7000813009F469C008958430E9F098F1853034
:100D800009F462C00895E0919C02F0E0E356FD4F43
:100D90008081E0919C02F0E0811105C08FEF890F06
:100DA000E356FD4F04C0E356FD4F808181508083A0
:100DB00081E00C94C405E0919C02F0E0E356FD4F05
:100DC000208130E0892F90E00197E0919C02F0E0D3
:100DD000E356FD4F2817390711F41082E9CF8081BF
:100DE0008F5FE5CFA0919C02B0E0A356BD4F8C91E0
:100DF000DF019BE0899FA00DB11D112411968C91FC
:100E0000A0919C02B0E0A356BD4F811112C08C91FD
:100E10009BE0899FE00DF11D1124838194819093C3
:100E2000D0028093CF0280919C028F5F80939C02BE
:100E3000BFCF8C919BE0899FE00DF11D11240184AF
:100E4000F285E02D0995B4CF82E091E09093D00235
:100E50008093CF0281E00E94C40510929C02109200
:100E60009D0210929E0210929F021092A00208957D
:100E70001F93CF93DF9361E081E00E941905E09119
:100E80009C02F0E0E356FD4F1081C12FD1E061E0FC
:100E90008D2F0E9419051C1302C0D13041F5E0913D
:100EA0009C02F0E0E356FD4F80818C1303C08EE37B
:100EB0000E94E40462E08D2F0E941905E091CF02A8
:100EC000F091D0028BE0C89FE00DF11D11248781C5
:100ED00090850E94F104CF5FE091CF02F091D002A3
:100EE0008281C81708F0C0E0DF5FD53081F6DF915E
:100EF000CF911F910895CF93DF93C82F0E940506CD
:100F0000882341F00E94500681E08093A90280E08E
:100F100090E01BC080E00E94580681E08C0F0E9488
:100F20004E060E946906C82F0E947306D82F0E94A1
:100F300050068C2FCC0F990B982F88278D0F911D61
:100F400033E0959587953A95E1F7DF91CF91089534
:100F5000DF92EF92FF920F931F93CF93DF93CDB762
:100F6000DEB728970FB6F894DEBF0FBECDBFD82EE0
:100F70008E010F5F1F4F7E0189E0E80EF11C8D2D61
:100F80000E947B07F801819391938F01EE15FF0575
:100F9000B1F789819A816B817C8121E0861797075F
:100FA00009F420E04D815E816417750709F021E0A6
:100FB0006F8178856417750721F4211102C00097AD
:100FC00041F481E08093A9028091A1029091A20254
:100FD00004C09093A2028093A10228960FB6F894C1
:100FE000DEBF0FBECDBFDF91CF911F910F91FF905C
:100FF000EF90DF90089585B5856085BDEEE6F0E061
:1010000080818160808381E28093800083E080938F
:101010008100789408958FE081B980E38AB987B11F
:10102000806C87B90895EF92FF920F931F93CF932F
:10103000DF93162F072F21E732E0DC010E9489168B
:1010400020E137E240E050E00E945B16F22EE32EF2
:10105000C22FD32F28EE33E040E050E00E945B1611
:1010600037FF2FC0319521953109CD2BA9F43F933E
:101070002F931F921F9283ED91E09F938F930F9375
:101080001F930E94CF168DB79EB708960FB6F8949F
:101090009EBF0FBE8DBF29C03F932F93EF92FF924B
:1010A00084ED91E09F938F930F931F930E94CF162F
:1010B0008DB79EB708960FB6F8949EBF0FBE8DBF32
:1010C00014C03F932F93EF92FF9284ED91E09F9392
:1010D0008F930F931F930E94CF168DB79EB70896DC
:1010E0000FB6F8949EBF0FBE8DBFDF91CF911F91B9
:1010F0000F91FF90EF9008959B01C29668EE73E008
:101100000E942516462FE72F64E670E00E94251600
:101110007F936F93EF934F9389EF91E09F938F931A
:101120003F932F930E94CF168DB79EB708960FB6A8
:10113000F8949EBF0FBE8DBF08958F929F92AF927D
:10114000BF92CF92DF92EF92FF920F931F93CF93B4
:10115000DF93EC017B0110E001E08BE3982E97E137
:10116000892E2BEDC22E21E0D22E38E4A32E33E0BF
:10117000B32E8FE00E94C405612F660F610F6E5F72
:1011800083E00E94190588E00E94F415882329F065
:10119000123009F4E3C01F5F3BC082E00E94F415E7
:1011A000882321F01123B9F1115032C080E20E944E
:1011B000DE158111C4C084E00E94DE15882341F150
:1011C0008CE00E94C40581E00E94C405E114F10492
:1011D00049F0F89447E050E0B701CE010E94AA1907
:1011E000789403C0CE010E943E0440E052E061E0EA
:1011F00081E00E944F052FEF89E698E12150804061
:101200009040E1F700C0000081E00E94C40597C053
:10121000002311F104C0002309F469C012E08981A0
:101220001F928F9388811F928F938A811F928F9331
:10123000DF92CF92BF92AF920E94CF1648E453E064
:1012400061E083E00E9497058DB79EB70A960FB6BE
:10125000F8949EBF0FBE8DBF113041F1123009F4DA
:1012600046C081E00E94DE15182F81E00E94E9153A
:10127000812B39F08A81873111F41A8215C08F5F72
:1012800012C080E10E94DE15182F80E10E94E9154E
:10129000812B19F410E000E06CCF8A81811102C02B
:1012A0008A8202C081508A8310E047C081E00E9498
:1012B000DE15082F81E00E94E915802B39F0888126
:1012C0008B3311F4188239C08F5F0FC080E10E9408
:1012D000DE15082F80E10E94E915802BE1F288815C
:1012E000811102C0988229C08150888326C081E084
:1012F0000E94DE15182F81E00E94E915812B49F02C
:1013000089818B3311F4198202C08F5F898301E0D8
:1013100001C000E080E10E94DE15182F80E10E94EC
:10132000E915812B11F412E024CF8981811102C0CB
:10133000998202C08150898312E001E01ACF81E0D6
:10134000DF91CF911F910F91FF90EF90DF90CF90A1
:10135000BF90AF909F908F900C94C405002309F428
:1013600080CF10E05CCF7F928F929F92AF92BF921E
:10137000CF92DF92EF92FF920F931F93CF93DF9361
:10138000EC018FE00E94C40500E011E03AEEE32E8C
:1013900031E0F32E48E4C42E43E0D42E5CE0B52EB9
:1013A00063E6A62E7FE1972EE7E08E2E602F660F74
:1013B000600F6E5F83E00E94190588E00E94F415BB
:1013C000882321F0033089F10F5F32C082E00E9450
:1013D000F415882321F0002351F1015029C080E247
:1013E0000E94DE158111F2C084E00E94DE15882380
:1013F000F9F08CE00E94C40581E00E94C405CE0192
:101400000E94800440E052E061E081E00E944F05CC
:101410002FEF89E698E1215080409040E1F700C02D
:10142000000081E00E94C405D1C000E001C003E0DB
:101430001123B1F16C8170E0CB01880F991F680F07
:10144000791F62507B4F8CEE92E00E949B160E94A7
:1014500006054CEE52E061E083E00E9497058EE2C3
:1014600092E00E9406058E811F928F938D811F92BC
:101470008F938B811F928F93FF92EF92DF92CF9287
:101480000E94CF1648E453E064E083E00E94970591
:101490008DB79EB70A960FB6F8949EBF0FBE8DBF4C
:1014A00081E0023009F449C0033009F46AC0013018
:1014B00021F10E94DE15182F81E00E94E915812B91
:1014C00039F08C81873011F481E014C08F5F12C035
:1014D00080E10E94DE15182F80E10E94E915812B22
:1014E00019F400E010E062CF8C81813011F48C821D
:1014F00002C081508C8300E067C00E94DE15182F67
:1015000081E00E94E915812B39F08B818F3111F434
:101510000B835AC08F5F0FC080E10E94DE15182F29
:1015200080E10E94E915812BE9F28B81813011F471
:101530009B824AC081508B8347C00E94DE15182FC2
:1015400081E00E94E915812B49F08D818C3011F4E6
:1015500081E001C08F5F8D8311E001C010E080E168
:101560000E94DE15782E80E10E94E915872909F492
:101570001DCF8D81813011F4BD8226C081508D83B5
:1015800023C00E94DE15182F81E00E94E915812BEF
:1015900049F08E81833611F41E8202C08F5F8E83E4
:1015A00011E001C010E080E10E94DE15782E80E19C
:1015B0000E94E915872909F4F9CE8E81811102C0B4
:1015C000AE8202C081508E8311E0F0CE81E0DF91C7
:1015D000CF911F910F91FF90EF90DF90CF90BF9030
:1015E000AF909F908F907F900C94C405FF920F93C3
:1015F0001F93CF93DF93EC01F88040E152E061E06C
:1016000081E00E944F0580E90E947B078C0168E41D
:1016100073E00E94130843E252E061E082E00E941E
:101620004F0588E493E00E94060540E352E061E044
:1016300083E00E944F05888168E473E09801280FD9
:10164000311D87FD3A95C9010E94130888E493E093
:101650000E940605888168E473E0082E000C990B4F
:101660000E9413084EE352E061E084E00E944F05BF
:1016700088E493E00E9406058DE292E00E94060550
:1016800081E00E94DE15182F81E00E94E915812B70
:1016900019F088818E5F888380E10E94DE15182F03
:1016A00080E10E94E915812B19F08881825088839E
:1016B00084E00E94DE15182F84E00E94E915812B3A
:1016C00009F181E00E94C40540E052E061E081E060
:1016D0000E944F05F89468818EE690E00E94B4194C
:1016E00078943FEF89E698E1315080409040E1F7EF
:1016F00000C0000081E0DF91CF911F910F91FF901A
:101700000C94C40580E20E94DE15182F80E20E942E
:10171000E915812B09F477CFF882DF91CF911F91E2
:101720000F91FF9008956F927F928F929F92AF9248
:10173000BF92CF92DF92EF92FF920F931F93CF93BE
:10174000DF93CDB7DEB72D970FB6F894DEBF0FBE8F
:10175000CDBF3C014B016A017901580196E0F901C6
:10176000DE01189601900D929A95E1F71982A30176
:1017700061E082E00E944F05A40161E083E00E94E5
:101780004F05A60161E084E00E944F0512E001E0F0
:1017900088E5C82E82E0D82E61E1812F0E941905CC
:1017A0008FE00E94C40588E00E94F415882321F090
:1017B000133009F042C0E4C082E00E94F41588238F
:1017C00021F0123009F0DCC038C084E00E94DE1540
:1017D000882309F18CE00E94C40581E00E94C405C1
:1017E00040E052E061E081E00E944F05F89446E05D
:1017F00050E0B501C7010E94AA1978942FEF49E67D
:1018000058E1215040405040E1F700C0000081E025
:101810000E94C405BAC080E20E94DE15882349F008
:1018200086E0FE013896D70101900D928A95E1F786
:10183000ACC0002309F442C004C0002309F461C015
:1018400013E0BE016F5F7F4FF701808191810E949D
:101850001308AE014F5F5F4F6EE082E00E944F05BC
:10186000BE016F5F7F4FF701828193810E94130851
:10187000AE014F5F5F4F6EE083E00E944F05F701BE
:101880008081918122813381BE016F5F7F4F8217FA
:1018900093071CF0821B930B04C0A901481B590B32
:1018A000CA010E941308AE014F5F5F4F6EE084E0F3
:1018B0000E944F058EE292E00E940605133009F166
:1018C00081E00E94DE15182F81E00E94E915812B2E
:1018D00069F0F701808191818835F2E09F0721F45A
:1018E000F701118210822EC0019629C080E10E946A
:1018F000DE15182F80E10E94E915812BB9F412E062
:1019000013C081E00E94DE15182F81E00E94E915C6
:10191000812BD1F480E10E94DE15182F80E10E9416
:10192000E915812BF1F413E000E036CFF701808157
:101930009181009719F4D182C08204C00197F70108
:101940009183808312E01AC0F701828193818835E8
:10195000F2E09F0721F4F701138212820EC0019674
:1019600009C0F70182819381009719F4D382C28262
:1019700004C00197F7019383828313E001E00CCF49
:10198000002309F49DCF12E05CCF2D960FB6F8949A
:10199000DEBF0FBECDBFDF91CF911F910F91FF90A2
:1019A000EF90DF90CF90BF90AF909F908F907F90FF
:1019B0006F900895CF92DF92EF92FF921F93CF9393
:1019C000DF9300D000D000D0CDB7DEB781E00E9419
:1019D000C4056AEA74E08CEE92E00E949B16AC01AA
:1019E00061E081E00E944F0568E974E08CEE92E0CE
:1019F0000E949B16AC0161E082E00E944F0563E803
:101A000074E08CEE92E00E949B16AC0161E083E0F2
:101A10000E944F0584EBC82ED12CE12CF12C80E2E2
:101A20000E94DE15882389F081E00E94C405269675
:101A30000FB6F894DEBF0FBECDBFDF91CF911F91DF
:101A4000FF90EF90DF90CF90089584E00E94DE1524
:101A5000182F84E00E94E915812B09F3C092C70278
:101A6000D092C802E092C902F092CA0269E574E01D
:101A70008CEE92E00E949B16AC0161E082E00E9435
:101A800071058091C7029091C802A091C902B091DE
:101A9000CA02BC01CD0161507109810991092AE096
:101AA00030E048E453E00E94A21648E453E061E0CD
:101AB00084E00E944F0568E474E08CEE92E00E949E
:101AC0009B160E9406058091C7029091C802A091C2
:101AD000C902B091CA02892B8A2B8B2B91F684E024
:101AE0000E94BC029E838D8384E00E94DE1584E008
:101AF0000E94DE158823D9F3C092C702D092C80293
:101B0000E092C902F092CA0264E274E08CEE92E0C4
:101B10000E949B16AC0161E082E00E9471058091F9
:101B2000C7029091C802A091C902B091CA02BC013B
:101B3000CD0161507109810991092AE030E048E442
:101B400053E00E94A21648E453E061E084E00E9462
:101B50004F0563E174E08CEE92E00E949B160E94B8
:101B600006058091C7029091C802A091C902B09168
:101B7000CA02892B8A2B8B2B91F684E00E94BC022F
:101B80009C838B8384E00E94DE1584E00E94DE1536
:101B90008823D9F3C092C702D092C802E092C9024A
:101BA000F092CA026FEE73E08CEE92E00E949B16F8
:101BB000AC0161E082E00E9471058091C7029091C2
:101BC000C802A091C902B091CA02BC01CD01615006
:101BD0007109810991092AE030E048E453E00E944C
:101BE000A21648E453E061E084E00E944F056EEDE8
:101BF00073E08CEE92E00E949B160E940605809195
:101C0000C7029091C802A091C902B091CA02892B63
:101C10008A2B8B2B91F684E00E94BC029A838983E5
:101C200021EB32E0AE014F5F5F4FBE016D5F7F4F32
:101C3000CE0105960E94F20284E00E94DE156CEB54
:101C400073E08CEE92E00E949B16AC0161E082E0B2
:101C50000E9471056AEA73E08CEE92E00E949B1686
:101C6000AC0161E084E00E949705D9CE81E00E943A
:101C7000C4058BEA92E00E94F60A81E00C94C40548
:101C8000EF92FF920F931F93CF93DF9381E00E9417
:101C9000C40565E973E08CEE92E00E949B16AC01EE
:101CA00061E081E00E9471056AE873E08BE693E0F1
:101CB0000E949B167C016EE773E088E493E00E942B
:101CC0009B16EC0162E773E08CEE92E00E949B169B
:101CD00001E610E025E133E0A701BE010E94930B6D
:101CE00081E0DF91CF911F910F91FF90EF900C94C5
:101CF000C405EF92FF920F931F93CF93DF9381E080
:101D00000E94C4056EE573E08CEE92E00E949B1683
:101D1000AC0161E081E00E94710563E573E08BE650
:101D200093E00E949B167C0166E473E088E493E0F4
:101D30000E949B16EC0169E373E08CEE92E00E9436
:101D40009B160BE510E026EE32E0A701BE010E94D3
:101D5000930B81E0DF91CF911F910F91FF90EF9056
:101D60000C94C405EF92FF920F931F93CF93DF93D0
:101D700081E00E94C40565E273E08CEE92E00E946F
:101D80009B16AC0161E081E00E9471056AE173E09D
:101D90008BE693E00E949B167C016FE073E088E481
:101DA00093E00E949B16EC0164E073E08CEE92E0FD
:101DB0000E949B1607E610E029E233E0A701BE016E
:101DC0000E94930B81E0DF91CF911F910F91FF90C3
:101DD000EF900C94C40581E00E94C40567EE72E0A8
:101DE0008CEE92E00E949B16AC0161E081E00E94C3
:101DF000710582E293E00C94B30981E00E94C4056E
:101E00006AEC72E08CEE92E00E949B16AC0161E0FD
:101E100081E00E94710560E070E082E293E00C9442
:101E20009D0881E00E94C40563EA72E08CEE92E0B6
:101E30000E949B16AC0161E081E00E94710568E39D
:101E400070E08DE593E00C949D0881E00E94C4054C
:101E50006CE772E08CEE92E00E949B16AC0161E0B0
:101E600081E00E94710561E370E081E493E00C94ED
:101E70009D0881E00E94C40565E572E08CEE92E069
:101E80000E949B16AC0161E081E00E9471056EE04A
:101E900070E08EE893E00C949D0881E00E94C405F8
:101EA0006EE272E08CEE92E00E949B16AC0161E063
:101EB00081E00E94710567E070E08BE193E00C9493
:101EC0009D0881E00E94C40560E172E08CEE92E022
:101ED0000E949B16AC0161E081E00E9471056CE1FB
:101EE00070E084E693E00C949D0881E00E94C405B4
:101EF00066EE71E08CEE92E00E949B16AC0161E010
:101F000081E00E9471056AE270E080E893E00C9441
:101F10009D080E94DA0CF89446E150E06FE370E00F
:101F200081EB92E00E94AA197894089581E00E94C2
:101F3000C40562ED71E08CEE92E00E949B16AC014C
:101F400061E081E00E94710564EC71E08CEE92E04A
:101F50000E949B16AC0161E082E00E94710563EB78
:101F600071E08CEE92E00E949B16AC0161E083E090
:101F70000E9471056BEA71E08CEE92E00E949B1664
:101F8000AC0161E084E00E9471058FEF0E94DE15D4
:101F90008823D9F381E00C94C4050F931F93CF934A
:101FA000DF9381E00E94C40564EA71E08CEE92E068
:101FB0000E949B16AC0161E081E00E94710568E41B
:101FC00073E080912F03909130030E94130888E4FE
:101FD00093E00E940605809134031F928F938091B5
:101FE00033031F928F93809135031F928F930BEDD4
:101FF00011E01F930F93C8E4D3E0DF93CF930E94C7
:10200000CF16AE016DE081E00E9471056DE971E0CF
:102010008CEE92E00E949B16AC0161E082E00E948F
:102020007105BE0180913103909132030E94130823
:10203000CE010E94060580913B031F928F938091F1
:102040003A031F928F9380913C031F928F931F93AB
:102050000F93DF93CF930E94CF16AE016DE082E025
:102060000E94710566E971E08CEE92E00E949B1679
:10207000AC0161E083E00E947105BE018091D40251
:102080009091D5020E947C08CE010E9406058091A5
:10209000D9021F928F938091D8021F928F938091C3
:1020A000DA021F928F931F930F93DF93CF930E94B7
:1020B000CF16AE016DE083E00E9471056FE871E01C
:1020C0008CEE92E00E949B16AC0161E084E00E94DD
:1020D0007105BE018091D6029091D7020E947C08C2
:1020E000CE010E9406058091E0021F928F9380919D
:1020F000DF021F928F938091E1021F928F931F93B3
:102100000F93DF93CF930E94CF168DB79EB788961B
:102110000FB6F8949EBF0FBE8DBFAE016DE084E098
:102120000E9471058FEF0E94DE158823D9F381E0AC
:10213000DF91CF911F910F910C94C405FA0120817A
:102140003181FB01408151814217530744F0FC016A
:10215000808191812817390724F080E0089581E07B
:10216000089582E008954F925F926F927F928F92CE
:102170009F92AF92BF92CF92DF92EF92FF92CF9356
:10218000DF937C01EB01FA01DC014C9112962C915A
:1021900030E0A0E1BEE00E947A164B015C01242FE2
:1021A00030E0ACE3B0E00E947A16860E971EA81EBF
:1021B000B91ED70111968C91880E911CA11CB11CDF
:1021C00048812A8130E0A0E1BEE00E947A166B01CE
:1021D0007C01242F30E0ACE3B0E00E947A16C60EFA
:1021E000D71EE81EF91E8981C80ED11CE11CF11C06
:1021F0004081228130E0A0E1BEE00E947A162B01EE
:102200003C01242F30E0ACE3B0E00E947A16AB0131
:10221000BC01440D551D661D771D8181480F511D60
:10222000611D711DC814D904EA04FB0438F481E06F
:1022300084169506A606B70638F40CC084169506D3
:10224000A606B70630F481E04C155D056E057F05E6
:1022500008F080E0DF91CF91FF90EF90DF90CF907A
:10226000BF90AF909F908F907F906F905F904F90B6
:102270000895CF9342E253E061E473E08DE593E08B
:102280000E94B310C091950381110AC042E253E04D
:102290006BE173E08EE893E00E94B310882311F0A5
:1022A000C46001C0CB7FC093950342E253E067E86E
:1022B00073E080E893E00E94B31090919503882327
:1022C00011F0986001C0977F90939503CF91089586
:1022D00047EA52E066EE72E088EE92E00E949E10BD
:1022E000813031F0823049F4809195038D7F03C0B5
:1022F0008091950382608093950347EA52E069E2FA
:1023000073E08BE293E00E949E10813021F08230D6
:1023100029F483E001C082E08093A90247EA52E0F9
:1023200067E173E085E193E00E949E10813019F02F
:10233000823029F00895809195038E7F03C08091AB
:1023400095038160809395030895CF92DF92EF9279
:10235000FF92FC018091C7029091C802A091C9022E
:10236000B091CA02892B8A2B8B2B19F540812281CF
:1023700030E0A0E1BEE00E947A166B017C01242FC0
:1023800030E0ACE3B0E00E947A16DC01CB018C0DAA
:102390009D1DAE1DBF1D2181820F911DA11DB11D6F
:1023A0008093C7029093C802A093C902B093CA0257
:1023B00008C01092C7021092C8021092C90210926F
:1023C000CA02FF90EF90DF90CF900895F8948EE6C8
:1023D00090E00E94A2198093AB028DE690E00E94EB
:1023E000A2198093AA0246E150E06FE370E081EB0E
:1023F00092E00E94921947E050E068E370E08DE5BA
:1024000093E00E94921947E050E061E370E081E4BC
:1024100093E00E94921947E050E06EE070E08EE891
:1024200093E00E94921947E050E067E070E08BE192
:1024300093E00E94921947E050E06AE270E080E881
:1024400093E00E94921947E050E063E270E087E871
:1024500093E00E94921946E050E067E670E089E25E
:1024600093E00E94921946E050E061E670E085E159
:1024700093E00E94921946E050E06BE570E086EE32
:1024800092E00E94921946E050E06CE170E084E630
:1024900093E00E949219789408952FEF829FC001D3
:1024A000112464E670E00E94251670938B006093FF
:1024B0008A0008958091950384FF83C0479A809194
:1024C000950380FF02C0129A01C012988091950373
:1024D00081FF02C0119A01C011988091950382FF7B
:1024E00002C0139A01C013988091950383FF05C021
:1024F0008091AA020E944D1204C010928B0010928B
:102500008A008091A902882319F0469A5D9A02C038
:1025100046985D9847EA52E06FE273E081E393E00A
:102520000E949E10813081F08230F9F48091A702E0
:102530009091A802909332038093310387E0E2E206
:10254000F3E0AAE3B3E00DC08091A7029091A80246
:102550009093300380932F0387E0E2E2F3E0A3E35C
:10256000B3E001900D928A95E1F745EA52E064EDFF
:1025700072E086ED92E00E949E10813081F0823000
:1025800051F58091A5029091A6029093D702809375
:10259000D60287E0E2E2F3E0AFEDB2E00DC0809159
:1025A000A5029091A6029093D5028093D40287E071
:1025B000E2E2F3E0A8EDB2E001900D928A95E1F736
:1025C0000AC0479812981198139A46985D981092ED
:1025D0008B0010928A008091950385FF02C0109AAB
:1025E000089510980895809125039091A30289176A
:1025F000F1F12091A7023091A8023093300320938B
:102600002F03309332032093310397E0E2E2F3E0AB
:10261000A3E3B3E001900D929A95E1F797E0E2E22F
:10262000F3E0AAE3B3E001900D929A95E1F72091CF
:10263000A5023091A6023093D5022093D4023093A4
:10264000D7022093D60297E0E2E2F3E0A8EDB2E0F1
:1026500001900D929A95E1F797E0E2E2F3E0AFED99
:10266000B2E001900D929A95E1F78093A30208954C
:102670008CE00E94C405809123031F928F93809168
:1026800022031F928F93809124031F928F938BEDCF
:1026900091E09F938F9388E493E09F938F930E94A0
:1026A000CF1648E453E061E081E00E944F0580E2EC
:1026B0000E94E4046091260370E0CB01880F991F0B
:1026C000680F791F62507B4F8CEE92E00E949B1640
:1026D0000E94060568E473E08091A7029091A80229
:1026E0000E94130841E652E061E082E00E944F053B
:1026F00088E493E00E94060547E652E06BE082E042
:102700000E944F056BE673E080912F039091300398
:102710000E9413088BE693E00E9406054DE652E006
:102720006BE083E00E9471056BE673E080913103FA
:10273000909132030E9413088BE693E00E940605F5
:1027400043E752E061E084E00E944F058DB79EB7F9
:102750000A960FB6F8949EBF0FBE8DBF029902C0B5
:102760008FE501C08EE50E94E40486E792E00E94B6
:102770000605019902C08FE501C08EE50E94E404C0
:102780008AE792E00E940605039902C08FE501C026
:102790008EE50E94E4048EE792E00E940605809197
:1027A000950383FD02C08FE501C08EE50E94E4041D
:1027B00083E892E00E940605009902C08FE501C0FF
:1027C0008EE50E94E4046091A90299E0699FB0013E
:1027D000112461547B4F8CEE92E00E949B16AC0159
:1027E0006DE081E00C944F0504B603FE06C086E060
:1027F0008093A90284B7877F84BF0FB6F894A89509
:1028000080916000886180936000109260000FBE2C
:102810000E94FB070E94E6110E94FB150E94FF0523
:102820000E94A5030E94D3050E940B080E94B202D9
:1028300078942FEF83ED90E3215080409040E1F7B2
:1028400000C000009EE088E10FB6F894A895809340
:1028500060000FBE9093600080E90E947B0720918A
:10286000AB02820F911D27FD9A959093A802809349
:10287000A70282E293E00E94CA0381EB92E00E94E9
:1028800070039093A6028093A5022091A702309135
:10289000A8023093300320932F0330933203209308
:1028A00031039093D5028093D4029093D702809302
:1028B000D6028091950380618062809395030E9487
:1028C0007D0685E00E94AE0681E00E94C40580E09E
:1028D00090E00E94FA058CE00E94C405C8E1DEE0A9
:1028E000A8950E94381384E00E94DE15882309F41D
:1028F0004EC00FB6F894A8958091600088618093CF
:102900006000109260000FBE81E00E94C40580E06C
:1029100090E00E94FA050E94380781E00E94DE15CF
:10292000882311F080E006C082E00E94DE15882333
:1029300021F081E00E94AE06EECF84E00E94DE1519
:10294000882311F082E0F6CF88E00E94DE1588230C
:1029500011F083E0EFCF80E10E94DE15882311F0B3
:1029600084E0E8CF80E20E94DE158823A1F20FB652
:10297000F894A895C09360000FBED093600085E0E6
:102980000E94AE0681E00E94C4051092A40280E875
:102990000E94DE15882389F08091950384FB22270D
:1029A00020F991E0922790FB84F98093950380E0D1
:1029B00090E00E94FA051092A40280E40E94DE15C5
:1029C000882351F084E693E00E94A51180E090E016
:1029D0000E94FA051092A40280E20E94DE1588236C
:1029E00061F08091A4028E3110F41092A90280E06F
:1029F00090E00E94FA051092A4028BE30E94DE157B
:102A0000882331F080E090E00E94FA051092A40241
:102A10008091D2028823F9F01092D20282E293E0F0
:102A20000E94CA030E9439110E94F3124091C7020A
:102A30005091C8026091C9027091CA0280919503B9
:102A4000452B462B472B11F08F7D01C08062809370
:102A500095030E945A128091CD02882309F440CF39
:102A60001092CD0280E90E94A8072091AB02820F4C
:102A7000911D27FD9A959093A8028093A70281EB60
:102A800092E00E9470039093A6028093A5020E9498
:102A900068118091A4028F3128F081E090E00E94BB
:102AA000FA051ECF8F5F8093A4021ACF1F920F9258
:102AB0000FB60F9211242F938F939F93AF93BF93D1
:102AC00084E686BD83B19091D3028095282F292773
:102AD0009091B0029223892F80958093B0029091BB
:102AE000AF02922398279093AF028223892390917B
:102AF000D30298279093D3022091D3029091D102D0
:102B00008223892B8093D1028091D302811103C04B
:102B100082E38093AE028091AE02815019F08093DF
:102B2000AE020AC08AE08093AE029091D3028091F7
:102B3000CE02892B8093CE028091AD028F5F8233CB
:102B400019F08093AD0230C01092AD0291E09093E5
:102B5000D2028091AC028F5F823019F08093AC0278
:102B600023C01092AC029093CD028091C702909145
:102B7000C802A091C902B091CA02892B8A2B8B2B63
:102B800099F08091C7029091C802A091C902B091BA
:102B9000CA020197A109B1098093C7029093C802A4
:102BA000A093C902B093CA02BF91AF919F918F9138
:102BB0002F910F900FBE0F901F901895F894909141
:102BC000D10289239091D10298279093D1027894D1
:102BD0000895F8949091CE0289239091CE0298277F
:102BE0009093CE0278940895F8949091D3029095A2
:102BF00089230C94DE151092C7021092C80210921D
:102C0000C9021092CA0284B114B885B18FEF85B998
:102C10000895DB018F939F930E949016BF91AF910F
:102C2000A29F800D911DA39F900DB29F900D112426
:102C30000895991B79E004C0991F961708F0961B18
:102C4000881F7A95C9F780950895AA1BBB1B51E18F
:102C500007C0AA1FBB1FA617B70710F0A61BB70B0C
:102C6000881F991F5A95A9F780959095BC01CD01B1
:102C70000895A1E21A2EAA1BBB1BFD010DC0AA1FBD
:102C8000BB1FEE1FFF1FA217B307E407F50720F0D5
:102C9000A21BB30BE40BF50B661F771F881F991F50
:102CA0001A9469F760957095809590959B01AC0199
:102CB000BD01CF010895052E97FB1EF400940E94DC
:102CC000721657FD07D00E94391607FC03D04EF448
:102CD0000C94721650954095309521953F4F4F4F6B
:102CE0005F4F089590958095709561957F4F8F4FB8
:102CF0009F4F0895A29FB001B39FC001A39F700D85
:102D0000811D1124911DB29F700D811D1124911DF3
:102D100008950E947A16B7FF0895821B930B0895B9
:102D20000E947A16A59F900DB49F900DA49F800DD0
:102D3000911D11240895FB01DC0105900D920020E6
:102D4000E1F708952532310520F4223010F00C947B
:102D5000AD16FA011082CA010895BB27FA01A62F09
:102D60006217710581059105330B30FB66F0AA27C8
:102D7000660F771F881F991FAA1FA21710F0A21BAA
:102D800063953850A9F7A05DAA3308F0A95DA19317
:102D900036F7B111B1931082CA010C94E818AEE075
:102DA000B0E0E5EDF6E10C94D0190D891E8986E0BE
:102DB0008C831A8309838FEF9FE79E838D83AE01F7
:102DC000475E5F4F6F89788DCE0101960E94F116A4
:102DD000EF81F885E00FF11F10822E96E4E00C944D
:102DE000EC19ABE0B0E0E7EFF6E10C94C2196C012E
:102DF0007B018A01FC0117821682838181FFCCC18D
:102E0000CE0101963C01F6019381F70193FD859176
:102E100093FF81917F01882309F4BAC1853239F487
:102E200093FD859193FF81917F01853229F4B6014D
:102E300090E00E94F818E7CF912C212C312CFFE173
:102E4000F315D8F08B3279F038F4803279F0833290
:102E5000A1F4232D20611DC08D3261F0803369F40F
:102E6000232D216016C0832D8260382EE32DE4606F
:102E70003E2E2AC0F32DF8601DC037FC2DC020ED7A
:102E8000280F2A3040F08E32B9F436FC81C1232D50
:102E90002064322E19C036FE06C08AE0989E200DAE
:102EA0001124922E11C0EAE02E9E200D1124222E14
:102EB000F32DF0623F2E08C08C3621F4832D8068FC
:102EC000382E02C0883641F4F70193FD859193FFB7
:102ED00081917F018111B3CF982F9F7D95549330BD
:102EE00028F40C5F1F4F9FE399830DC0833631F0A8
:102EF000833771F0833509F059C021C0F801808112
:102F000089830E5F1F4F88248394912C530113C033
:102F10002801F2E04F0E511CF801A080B18036FE6E
:102F200003C0692D70E002C06FEF7FEFC5010E9402
:102F3000DD184C018201F32DFF773F2E16C02801CA
:102F400022E0420E511CF801A080B18036FE03C081
:102F5000692D70E002C06FEF7FEFC5010E94D218AB
:102F60004C01F32DF0683F2E820133FC1BC0822DF3
:102F700090E088169906B0F4B60180E290E00E94D5
:102F8000F8182A94F4CFF50137FC859137FE81912A
:102F90005F01B60190E00E94F81821102A9421E008
:102FA000821A91088114910471F7E8C0843611F0F7
:102FB000893641F5F80137FE07C060817181828151
:102FC00093810C5F1F4F08C060817181072E000C38
:102FD000880B990B0E5F1F4FF32DFF763F2E97FF47
:102FE00009C090958095709561957F4F8F4F9F4F49
:102FF000F0683F2E2AE030E0A3010E943419882EA9
:10300000861845C0853731F4232D2F7EB22E2AE055
:1030100030E025C0932D997FB92E8F36C1F018F47A
:10302000883579F0B5C0803719F0883721F0B0C005
:10303000E92FE061BE2EB4FE0DC0FB2DF460BF2E63
:1030400009C034FE0AC0292F2660B22E06C028E02F
:1030500030E005C020E130E002C020E132E0F801BC
:10306000B7FE07C060817181828193810C5F1F4F21
:1030700006C06081718180E090E00E5F1F4FA30168
:103080000E943419882E8618FB2DFF773F2E36FEBE
:103090000DC0232D2E7FA22E891458F434FE0BC0B0
:1030A00032FC09C0832D8E7EA82E05C0B82CA32C1F
:1030B00003C0B82C01C0B92CA4FE0FC0FE01E80D5E
:1030C000F11D8081803321F49A2D997EA92E09C0AB
:1030D000A2FE06C0B394B39404C08A2D867809F08A
:1030E000B394A3FC11C0A0FE06C0B21488F4280C4F
:1030F000922C9B180EC0B21460F4B60180E290E0EE
:103100000E94F818B394F7CFB21418F42B1802C029
:10311000982C212CA4FE10C0B60180E390E00E9400
:10312000F818A2FE17C0A1FC03C088E790E002C017
:1031300088E590E0B6010CC08A2D867859F0A1FE92
:1031400002C08BE201C080E2A7FC8DE2B60190E0F4
:103150000E94F818891438F4B60180E390E00E94C8
:10316000F8189A94F7CF8A94F301E80DF11D808145
:10317000B60190E00E94F8188110F5CF222009F4E2
:1031800042CEB60180E290E00E94F8182A94F6CF71
:10319000F6018681978102C08FEF9FEF2B96E2E1C7
:1031A0000C94DE19FC010590615070400110D8F7B5
:1031B000809590958E0F9F1F0895FC01615070407F
:1031C00001900110D8F7809590958E0F9F1F08955C
:1031D000DC01FC01672F71917723E1F7329704C07E
:1031E0007C916D9370836291AE17BF07C8F3089509
:1031F0000F931F93CF93DF93FB01238121FD03C026
:103200008FEF9FEF2CC022FF16C04681578124818B
:1032100035814217530744F4A081B1819D012F5F8E
:103220003F4F318320838C93268137812F5F3F4F1F
:103230003783268314C08B01EC01FB010084F185E8
:10324000E02D0995892BE1F6D80116968D919C9178
:103250001797019617969C938E931697CE01DF9140
:10326000CF911F910F910895FA01AA27283051F1AB
:10327000203181F1E8946F936E7F6E5F7F4F8F4FA7
:103280009F4FAF4FB1E03ED0B4E03CD0670F781F06
:10329000891F9A1FA11D680F791F8A1F911DA11DEB
:1032A0006A0F711D811D911DA11D20D009F4689424
:1032B0003F912AE0269F11243019305D3193DEF6CC
:1032C000CF010895462F4770405D4193B3E00FD082
:1032D000C9F7F6CF462F4F70405D4A3318F0495D6D
:1032E00031FD4052419302D0A9F7EACFB4E0A69550
:1032F0009795879577956795BA95C9F70097610572
:10330000710508959B01AC010A2E069457954795C7
:1033100037952795BA95C9F7620F731F841F951FBC
:10332000A01D0895DC01CB01FC01F999FECF06C078
:10333000F2BDE1BDF89A319600B40D924150504073
:10334000B8F70895F999FECF92BD81BDF89A9927F3
:1033500080B50895DC01CB0103C02D910E94B51901
:1033600041505040D0F70895262FF999FECF1FBA4B
:1033700092BD81BD20BD0FB6F894FA9AF99A0FBE9E
:10338000019608952F923F924F925F926F927F9293
:103390008F929F92AF92BF92CF92DF92EF92FF9265
:1033A0000F931F93CF93DF93CDB7DEB7CA1BDB0B11
:1033B0000FB6F894DEBF0FBECDBF09942A883988B6
:1033C00048885F846E847D848C849B84AA84B984BD
:1033D000C884DF80EE80FD800C811B81AA81B981C9
:1033E000CE0FD11D0FB6F894DEBF0FBECDBFED01DD
:0633F0000895F894FFCFE0
:1033F6000100000006A7010000820100000100068E
:1034060086010000740100000200064F01000066FC
:1034160001000003000644010000580100000401F9
:1034260006000000004A01CD0F050106000000005D
:103436003C01960F280101000000007C00890F1E48
:10344600010500000000C800110F1F010500000063
:1034560000B700250F20010500000000A600390F67
:103466002101050000000095004D0F220105000016
:1034760000008A00750F14010300000000FA00FD29
:103486000E15010300000000E900EB0E1601030013
:10349600000000D900610F0A0104000000002C01A1
:1034A600360E0B0104000000002101400E0C010441
:1034B600000000001501790E0D0104000000000A4D
:1034C60001B20E2D25692E25694300253032643A56
:1034D600253032643A2530326400253032642E2598
:1034E6003032642E253032640025752E2575200075
:1034F60053706569636865726520446174656E0022
:1035060054656D70657261747572204F6666736579
:10351600743A004C4D37363A2020202020202000D7
:103526004B6F72722E2E2054656D703A20004F66D6
:10353600667365743A20202020200048656C6C690B
:10354600676B6569743A2020200025303375252580
:103556000054656D703A00204D61783A00204D693F
:103566006E3A00483A00204B3A00204C3A00204D73
:083576004C3A0020503A00001D
:00000001FF
