:100000000C941D010C943A010C943A010C943A01A1
:100010000C943A010C943A010C943A010C943A0174
:100020000C943A010C943A010C943A010C943A0164
:100030000C943A010C943A010C943A010C943A0154
:100040000C943A010C943A010C94FC0F0C943A0174
:100050000C9478100C94A3100C943A010C943A016F
:100060000C943A010C943A010C943A010C943A0124
:100070000C9438110C9463110C943A012020004D1B
:100080006F004469004D6900446F0046720053617F
:1000900000536F002F30004D656E756531004D6562
:1000A0006E756532004D656E7565330097009E0074
:1000B000A5004B089B0965062A4D41494E31206138
:1000C00075736675656872656E2A002A4D41494EE2
:1000D00032206175736675656872656E2A004D41E0
:1000E000494E33206175736675656872656E00549C
:1000F0006F704D656EFC005A6569742045696E73BA
:1001000074656C6C756E67656E20204D6F6E646CE7
:100110006963687420617573736368616C74656E7C
:100120003A005A6569742045696E7374656C6C7524
:100130006E67656E20204D6F6E646C696368742015
:1001400065696E7374656C6C656E3A005A656974A6
:100150002045696E7374656C6C756E67656E2020E2
:100160004C616D706520617573736368616C746553
:100170006E3A005A6569742045696E7374656C6CDB
:10018000756E67656E20204C616D70652065696EC7
:10019000736368616C74656E3A00416B7475656C6D
:1001A0006C65205568727A65697420202020656925
:1001B0006E676562656E0048797374657265736514
:1001C0003A0054656D702E204D696E3A0054656D8D
:1001D000702E204D61783A0054656D7065726174BF
:1001E0007572204D696E2F4D61783A0048797374AD
:1001F00065726573653A004C756566746572206159
:1002000075733A004C7565667465722065696E3A5F
:10021000004C7565667465722065696E7374656CF3
:100220006C756E67004865697A65722065696E73E2
:1002300074656C6C756E67656E0011241FBECFEF20
:10024000D0E1DEBFCDBF11E0A0E0B1E0ECE1FBE228
:1002500002C005900D92A83CB107D9F713E0A8ECB5
:10026000B1E001C01D92A231B107E1F70E94D40BA9
:100270000C948C150C94000008951F9380ED0E943F
:1002800053048823A9F480E00E94AA0481ED0E940F
:100290009F040E94C504182F0E94A20480ED0E94B2
:1002A000530480E00E94AA04812F8F770E94AA0441
:1002B0000E94A2041F910895CF92DF92EF92FF92C5
:1002C0000F931F93CF93DF93EC0180ED0E945304B3
:1002D000882319F00E94A20460C080E00E94AA0452
:1002E00081ED0E949F040E94BB04D82E0E94BB0493
:1002F000E82E0E94BB04F82E0E94BB04C82E0E9468
:10030000BB04082F0E94BB04182F0E94C5042D2D8A
:1003100022952F70220F922F990F990F920F2D2D4A
:100320002F70920F99832E2D22952F70220F922FCE
:10033000990F990F920F2E2D2F70920F98832F2DBA
:1003400022952F70220F922F990F990F920F2F2D18
:100350002F70920F9A83202F22952F70220F922FA9
:10036000990F990F920F0F70900F9B83CC82212FC2
:1003700022952F70220F922F990F990F920F1F70B5
:10038000910F9D83282F22952F70220F922F990F66
:10039000990F920F8F70980F9E83DF91CF911F91CD
:1003A0000F91FF90EF90DF90CF900895EF92FF9222
:1003B0000F931F93CF93DF938C01EB017A0180EDB4
:1003C0000E945304882311F580E00E94AA04F701DB
:1003D00080819AE0E92E6E2D0E9417128295807F0F
:1003E000892B0E94AA0488816E2D0E941712829583
:1003F000807F892B0E94AA04F80180816E2D0E94C3
:1004000017128295807F892B0E94AA040E94A20461
:10041000DF91CF911F910F91FF90EF900895CF92B0
:10042000DF92EF92FF920F931F93CF93DF936C01B4
:100430008B017A01E90180ED0E945304882329F59C
:1004400083E00E94AA04F80180810E94AA04F601B8
:1004500080810AE0602F0E9417128295807F892B8D
:100460000E94AA04F7018081602F0E9417128295D2
:10047000807F892B0E94AA048881602F0E94171216
:100480008295807F892B0E94AA040E94A204DF919A
:10049000CF911F910F91FF90EF90DF90CF90089533
:1004A00094EA9093BC009091BC0097FFFCCF80939E
:1004B000BB0084E88093BC008091BC0087FFFCCF28
:1004C00084E88093BC008091BC0087FFFCCF309112
:1004D000BB0084E88093BC008091BC0087FFFCCF08
:1004E0002091BB0084EC8093BC008091BC0087FF0E
:1004F000FCCF84E98093BC00932F80E030E0282B70
:10050000392BC90108951F93182F80E70E947804A2
:1005100020910001309101012115310519F0812F41
:10052000806402C0812F8F7B0E94AA040E94A204D3
:100530001F9108951F93182F1068812F0E94830226
:10054000812F0E94830280E00E9483021F91089500
:100550001F93182F82958F7080610E949A02812FBD
:100560008F7080610E949A021F9108951F93CF930C
:10057000DF93EC0110E003C00E94A8021F5FFE01A0
:10058000E10FF11D80818823B9F7DF91CF911F9191
:1005900008951F93BC0188EC91E00E94741210E052
:1005A00004C080810E94A8021F5FE12FF0E0E853A1
:1005B000FE4F80818823A9F71F9108951F93162F5E
:1005C000853000F56531F0F48823E1F06623D1F041
:1005D000833041F0843041F0823011F0115805C071
:1005E000115403C01D5601C01D52812F82958F707A
:1005F00080680E949A02812F8F7080680E949A0200
:1006000081E001C080E01F910895CF93DF93EA015C
:100610000E94DE02882329F0CE010E94B60281E00A
:1006200001C080E0DF91CF910895DF93CF930F92C7
:10063000CDB7DEB749830E94DE024981882329F0C5
:10064000842F0E94A80281E001C080E00F90CF912A
:10065000DF910895FF920F931F93CF93DF93082F9D
:10066000162FEA01FF240FC0802F612F0E9415036F
:10067000882389F01F5F153110F00F5F11E00530FE
:1006800008F001E0F394FE01EF0DF11D40814423D9
:1006900059F781E001C080E0DF91CF911F910F9168
:1006A000FF900895FF920F931F93CF93DF93082F2E
:1006B000162FEA01FF240BC0802F612F0E94150323
:1006C000882369F01F5F153108F011E0F394FE01F3
:1006D000EF0DF11D4081442379F781E001C080E0F6
:1006E000DF91CF911F910F91FF900895DF93CF93EA
:1006F0000F92CDB7DEB781E70E9478040E94C5044F
:1007000089830E94A20489810F90CF91DF9108957F
:100710001F93882311F08FEB01C08FEA0E948302A0
:100720000E947603182F80E00E948302812F1F9180
:1007300008950F931F93182F0E948803082F812F6D
:100740000E9488038F700295007F800F1F910F9188
:1007500008950F931F93CF93DF93EC018B0180E0FB
:100760000E94990387FD1CC0982F907F943171F0EF
:10077000953118F4992331F013C0903429F0943551
:1007800079F406C091E005C092E003C093E001C097
:1007900094E098838F708F5FF801808381E001C0BF
:1007A00080E0DF91CF911F910F910895DF93CF9358
:1007B00000D0CDB7DEB719821A82CE010196BE01F4
:1007C0006E5F7F4F0E94A90389818F5F61E00E9465
:1007D000DE020F900F90CF91DF91089580E00E948C
:1007E0009903881F8827881F089520E030E055E08E
:1007F00005C0452F4A95F1F72F5F3F4F281739075E
:10080000C0F3089520E030E040EA5FE005C0FA015F
:100810003197F1F72F5F3F4F28173907C0F308953D
:100820001F93182F82958F700E949A02812F8F70CC
:100830000E949A0281E090E00E9402041F910895B4
:1008400080E190E00E94020483E00E949A0285E029
:1008500090E00E94020483E00E949A0285E690E004
:100860000E94F50383E00E949A0282E00E949A02AD
:1008700088E20E94100488E00E94100481E00E9437
:10088000100486E00E9410048CE00E941004089579
:10089000909301018093000108951092B90088E4BB
:1008A0008093B800089594EA9093BC009091BC00A6
:1008B00097FFFCCF9091B900987F983011F090315C
:1008C00099F48093BB0084E88093BC008091BC00C5
:1008D00087FFFCCF9091B900987F983139F081E083
:1008E000903429F480E0089581E0089580E008952F
:1008F00044EA34E824E94093BC009091BC0097FF9F
:10090000FCCF9091B900987F983011F0903199F711
:100910008093BB003093BC009091BC0097FFFCCF4C
:100920009091B900987F903211F0983539F4209366
:10093000BC009091BC0094FDFCCFDDCF08950E94D7
:100940005304089584E98093BC008091BC0084FD29
:10095000FCCF08958093BB0084E88093BC00809115
:10096000BC0087FFFCCF9091B900987F81E098325E
:1009700009F480E0089584EC8093BC008091BC0071
:1009800087FFFCCF8091BB00089584E88093BC0072
:100990008091BC0087FFFCCF8091BB0008951F931E
:1009A000DF93CF930F92CDB7DEB780E90E94530457
:1009B000882339F00E94A2040E943C0120E030E02C
:1009C00018C080E00E94AA0481E90E949F040E944E
:1009D000BB04182F0E94C50489830E94A204312FF2
:1009E00020E08981280F311D83E0369527958A956F
:1009F000E1F7C9010F90CF91DF911F9108958FEE1C
:100A000090E00E94B6028FEF97EAA1E681509040F5
:100A1000A040E1F700C0000008958FE081B980E3B5
:100A20008AB987B1806C87B908956F927F928F924F
:100A30009F92AF92BF92CF92DF92EF92FF920F936D
:100A40001F93DF93CF930F92CDB7DEB73C017B01AD
:100A5000BB2491E004ED12E052E1C52E51E0D52E09
:100A60004BE3A42E37E1932E02C0BB2490E08FE02D
:100A700099830E9410046B2D660F6B0D6E5F83E0EF
:100A80000E94DE0288E00E945C109981882331F088
:100A90008B2D823009F445C0B39447C082E099831E
:100AA0000E945C109981882321F0BB20E1F1BA9467
:100AB0003CC080E299830E944610882309F0F2C06E
:100AC00084E00E9446109981882379F18CE00E948D
:100AD000100481E00E941004E114F10439F0C30114
:100AE000B70147E050E00E949D1408C08CEA92E0F4
:100AF0006AEA72E04BEA52E00E94D60181E061E0CE
:100B000042E051E00E9452038FEF99E6A8E1815044
:100B10009040A040E1F700C0000081E00E94100476
:100B2000C1C0BB2402C022E0B22E992369F1ADB747
:100B3000BEB71A970FB6F894BEBF0FBEADBFEDB7E4
:100B4000FEB7319612961C930E931197D382C282F0
:100B5000D30112968C911297848315828C9186838F
:100B6000178211968C91808711860E947B12EDB7B7
:100B7000FEB73A960FB6F894FEBF0FBEEDBF83E006
:100B800061E0A8010E940503FB2DF13089F1F230EC
:100B900009F453C081E00E944610B82E81E00E9403
:100BA00051108B2961F0D30112968C9112978731E5
:100BB00021F412961C92129719C08F5F15C080E124
:100BC0000E944610B82E80E10E9451108B2909F432
:100BD0004CCFD30112968C911297882321F4129650
:100BE0009C92129703C08150F3018283BB2458C0AA
:100BF00081E00E944610882E81E00E9451108829D1
:100C000041F0D3018C918B3311F41C9249C08F5F5A
:100C100011C080E10E944610882E80E10E94511090
:100C2000882909F423CFD3018C91882311F4AC9245
:100C300037C08150F301808333C081E00E944610A9
:100C4000882E81E00E945110882979F0D3011196F5
:100C50008C9111978B3321F411961C92119703C03C
:100C60008F5FF301818391E001C090E080E199837F
:100C70000E944610882E80E10E9451108829998197
:100C8000882309F4F4CED30111968C91119788230F
:100C900021F41196AC92119703C08150F301818326
:100CA00091E0E5CE81E00E9410040F90CF91DF919A
:100CB0001F910F91FF90EF90DF90CF90BF90AF907A
:100CC0009F908F907F906F900895CF93DF9381E0F6
:100CD0000E941004C4E7D2E0CE016AE971E00E94EC
:100CE0007412AC0181E061E00E942A038AEA92E07A
:100CF00060E070E00E94150581E00E941004CE01C2
:100D000063E771E00E947412AC0181E061E00E942F
:100D10002A0381EE92E063E170E00E94150581E014
:100D20000E941004CE016CE471E00E947412AC01C8
:100D300081E061E00E942A038DEC92E06AE170E0BC
:100D40000E94150581E00E941004CE0162E271E06C
:100D50000E947412AC0181E061E00E942A038DEFD1
:100D600092E061E270E00E94150581E00E941004AB
:100D7000CE0167EF70E00E947412AC0181E061E087
:100D80000E942A0384E093E068E270E00E94150567
:100D900081E00E941004DF91CF9108950F931F937B
:100DA000CF93DF938B019C01B901882777FD809554
:100DB000982F21E732E040E050E00E94F811EDB7B3
:100DC000FEB738970FB6F894FEBF0FBEEDBFCDB794
:100DD000DEB721961283018321E231E03B832A832F
:100DE00020E137E240E050E00E9437123D832C833F
:100DF00028EE33E040E050E00E9437123F832E831C
:100E00000E947B122DB73EB7285F3F4F0FB6F89474
:100E10003EBF0FBE2DBFDF91CF911F910F9108955F
:100E2000CF93DF938CE00E9410048DB79EB70A9792
:100E30000FB6F8949EBF0FBE8DBFEDB7FEB73196CB
:100E4000C4EDD2E0ADB7BEB71296DC93CE93119746
:100E500088E291E0938382838091AC02848315823F
:100E60008091AA02868317828091AB0280871186C7
:100E70000E947B128DB79EB70A960FB6F8949EBF5C
:100E80000FBE8DBFCE010E9416118DE00E94011190
:100E900081E061E0AE010E9452036091AE0283E006
:100EA000689FB001112464587F4F84E792E00E944C
:100EB00074120E94B6028091CB029091CC0267EB33
:100EC00072E00E94CE0682E061E048E351E00E94B9
:100ED000520387EB92E00E94B60283E061E04EE3AA
:100EE00051E00E94520382E491E00E94B60284E045
:100EF00061E046E451E00E94520380B182FF02C0EB
:100F00008EE501C08FE50E94A80289E491E00E946D
:100F1000B60280B181FF02C08EE501C08FE50E945C
:100F2000A8028DE491E00E94B60280B183FF02C066
:100F30008EE501C08FE50E94A80281E591E00E9444
:100F4000B60289B184FF02C08EE501C08FE50E9420
:100F5000A80280916D02882331F083E06FE046E5BE
:100F600051E00E945203DF91CF910895FF920F93B9
:100F70001F93CF93DF93EC01F88081E061E04DE5B2
:100F800051E00E9452030E94CF048C0167EB72E093
:100F90000E94CE0682E061E040E751E00E945203E9
:100FA00087EB92E00E94B60283E061E04DE751E0FA
:100FB0000E9452038881992787FD9095800F911F89
:100FC00067EB72E00E94CE0687EB92E00E94B602C9
:100FD0008881992787FD909567EB72E00E94CE0685
:100FE00084E061E04AE851E00E94520387EB92E01E
:100FF0000E94B60287E991E00E94B60281E00E9459
:101000004610082F81E00E945110802B19F0888132
:101010008E5F888380E10E944610082F80E10E9445
:101020005110802B19F088818250888384E00E94BF
:101030004610082F84E00E945110802BD9F081E0E7
:101040000E94100481E061E042E051E00E945203FE
:1010500080E090E068810E94A7148FEF99E6A8E1F4
:1010600081509040A040E1F700C0000081E00E9464
:1010700010040BC080E20E944610082F80E20E94FC
:101080005110802B09F47FCFF882DF91CF911F910F
:101090000F91FF90089581E00E94100483EA92E08E
:1010A0000E94B60781E00E94100408956F927F921B
:1010B0008F929F92AF92BF92CF92DF92EF92FF9268
:1010C0000F931F93DF93CF93CDB7DEB72D970FB656
:1010D000F894DEBF0FBECDBF3C016B015A01790110
:1010E0004801CE010196D90126E00D90FC01019244
:1010F000CF012150D1F71F8282E061E0A3010E945D
:10110000520383E061E0A6010E94520384E061E0A3
:10111000A5010E945203F2E0BF2EAA24A3948E01DF
:10112000095F1F4FE8E5CE2EE2E0DE2E8B2D61E158
:101130000E94DE028FE00E94100488E00E945C1092
:10114000882329F0FB2DF33009F03FC03BC082E03B
:101150000E945C10882321F02B2D223099F535C098
:1011600084E00E9446108823F9F08CE00E9410046D
:1011700081E00E94100481E061E042E051E00E94C1
:101180005203C701B40146E050E00E949D148FEF66
:1011900099E6A8E181509040A040E1F700C000002E
:1011A00081E00E941004B2C080E20E9446108823B1
:1011B00071F0D701FE01319686E001900D928150C9
:1011C000E1F7A4C072E0B72E02C063E0B62EAA20F9
:1011D000A1F1D7018D919C91B8010E94CE0682E0C9
:1011E0006EE0A8010E945203F70182819381B80149
:1011F0000E94CE0683E06EE0A8010E945203D70150
:101200008D919C91119712962D913C911397821775
:10121000930718F0821B930B04C0F901E81BF90B2C
:10122000CF01B8010E94CE0684E06EE0A8010E94C2
:1012300052038AE991E00E94B602FB2DF33081F15E
:1012400081E00E944610A82E81E00E9451108A2958
:1012500071F0D7018D919C911197B2E088359B0771
:1012600021F4F7011182108218C0019612C080E1AA
:101270000E944610A82E80E10E9451108A2981F018
:10128000F70180819181009719F4D182C08205C055
:101290000197D70111969C938E93AA24A39401C021
:1012A000AA2481E00E944610782E81E00E9451100D
:1012B000872979F0F70182819381F2E088359F07D1
:1012C00031F4D70113961C921E9212971CC00196FE
:1012D00017C080E10E944610782E80E10E945110D4
:1012E000872909F423CFD70112968D919C911397EA
:1012F000009729F41396DC92CE92129704C00197BE
:10130000F70193838283AA24A39410CF2D960FB65E
:10131000F894DEBF0FBECDBFCF91DF911F910F912B
:10132000FF90EF90DF90CF90BF90AF909F908F9005
:101330007F906F900895AF92BF92CF92DF92EF921D
:10134000FF920F931F93CF93DF9381E00E941004CD
:10135000C4E7D2E0CE0165E272E00E947412AC01F3
:1013600081E061E00E942A038CE991E068EA71E083
:1013700044EB51E024EA32E007E010E00E94560816
:1013800081E00E94100481E00E941004CE0161E11E
:1013900072E00E947412AC0181E061E00E942A03B5
:1013A000CE0164E072E00E9474128C01B7EBEB2E68
:1013B000B2E0FB2EC70167EF71E00E9474126C016E
:1013C000A9EEAA2EA2E0BA2EC5016CEE71E00E9431
:1013D0007412AC01C801B6012EE632E00DE010E057
:1013E0000E94560881E00E94100481E00E941004CF
:1013F000CE0168ED71E00E947412AC0181E061E001
:101400000E942A03CE016DEC71E00E947412EC017F
:10141000C70162EC71E00E9474128C01C50167EB98
:1014200071E00E947412AC01CE01B80121EB32E0F0
:1014300001E010E00E94560881E00E941004DF9154
:10144000CF911F910F91FF90EF90DF90CF90BF90C1
:10145000AF900895FA0120813181FB0140815181D3
:101460004217530740F0FC0180819181281739070A
:1014700020F482E0089581E0089580E008954F927D
:101480005F926F927F928F929F92AF92BF92CF9214
:10149000DF92EF92FF920F931F93CF93DF93EC01B4
:1014A0007B012A016A8170E080E090E020E13EE06B
:1014B00040E050E00E94F8115B016C01688170E02F
:1014C00080E090E02CE330E040E050E00E94F81132
:1014D000A60EB71EC81ED91E8981A80EB11CC11C3C
:1014E000D11CF701628170E080E090E020E13EE0F5
:1014F00040E050E00E94F8113B014C01F70160818F
:1015000070E080E090E02CE330E040E050E00E94AA
:10151000F811660E771E881E991EF7018181680EEC
:10152000711C811C911CF201628170E080E090E0EE
:1015300020E13EE040E050E00E94F8117B018C0188
:10154000F201608170E080E090E02CE330E040E068
:1015500050E00E94F811E60EF71E081F191FF20155
:101560008181E80EF11C011D111D6A147B048C049D
:101570009D0440F4AE14BF04C006D10640F481E0DF
:1015800090E00EC0AE14BF04C006D10638F481E06E
:1015900090E0E614F7040805190510F080E090E0EB
:1015A000DF91CF911F910F91FF90EF90DF90CF903F
:1015B000BF90AF909F908F907F906F905F904F9073
:1015C000089581EE92E06DEC72E04AEA52E00E94EA
:1015D0003F0A90910D03882311F0946001C09B7F16
:1015E00090930D038DEF92E064E073E04AEA52E0DD
:1015F0000E943F0A90910D03882311F0986001C06A
:10160000977F90930D0308958091CB029091CC0227
:1016100020916E0230916F022817390748F020910F
:101620007002309171028217930708F45CC005C004
:1016300020910D03226020930D032091B10230917F
:10164000B2022817390740F02091B3023091B4025A
:101650008217930708F041C020910D032061209369
:101660000D0321E020936D0207C020910D032F7E12
:1016700020930D0310926D022091A6023091A702D3
:101680002817390740F02091A4023091A502821753
:10169000930768F105C080910D038E7F80930D0341
:1016A00080910D0380FF02C0129A01C012988091B0
:1016B0000D0381FF02C0119A01C0119880910D03A2
:1016C00082FF02C0139A01C0139880910D0383FF1B
:1016D00002C05C9A08955C9808952091E802222344
:1016E00009F0BACFC2CF20910D032D7FA4CF8091F6
:1016F0000D038160D3CF80E090E00E949514809329
:10170000A30281EE92E063E170E047E050E00E94C6
:1017100085148DEC92E06AE170E047E050E00E94B1
:1017200085148DEF92E061E270E047E050E00E94A6
:10173000851484E093E068E270E047E050E00E94A6
:10174000851481EB92E061E070E046E050E00E9499
:10175000851484EA92E067E070E046E050E00E9481
:1017600085148EE692E06DE070E046E050E00E9465
:1017700085140895882311F08EE508958FE5089566
:10178000CF93DF93C7EBD2E08091CB029091CC0254
:10179000BE010E94CE06CE010E9416118DE00E946D
:1017A0000111DF91CF9108951F930E947B0B0E943E
:1017B00069100E944D040E943D010E94200481E0B6
:1017C0000E94100480E090E00E9448048CE00E9497
:1017D00010040E940D0580E190E00E94CD107894E5
:1017E00010E080E10E945C10882321F0112351F168
:1017F00011502BC081E00E945C10882321F0123030
:1018000019F11F5F22C084E00E945C10882359F008
:10181000E12FF0E0EE0FFF1FEE54FF4F8591949102
:10182000FC01099512C080E20E945C10882319F027
:101830000E94FF040AC080E40E945C10882329F003
:10184000479A03C012E001C010E081E06FE00E94FF
:10185000DE02E12FF0E0EE0FFF1FE455FF4F259170
:101860003491C9010E94C9020E94CF042091A302B1
:10187000332727FD3095280F391F3093CC02209352
:10188000CB028AEA92E00E945C010E94040B0E9453
:10189000E10A0E9410070E94C00B8FEF9FE0A7E2B1
:1018A00081509040A040E1F700C000009ACF909393
:1018B000110380931003499690930F0380930E03B6
:1018C0006093DD010895E0911003F091110320E091
:1018D00090E004C0308D930F2F5F79962817D0F3D6
:1018E0002091DD01291710F0892F8F5F08951F9334
:1018F000182FA0911003B091110380E090E069E1EE
:1019000070E0412F50E017C0282F30E0269FF001F3
:10191000279FF00D369FF00D1124EA0FFB1FE08D7D
:101920009E0F911738F0292F30E02E1B3109241714
:10193000350734F08F5F2091DD01821728F3812F66
:101940001F910895BC01409110035091110380E054
:1019500099E109C0899F90011124240F351F621756
:10196000730751F08F5FE091DD01F0E0282F30E048
:10197000E217F3077CF780E00895EF92FF920F9350
:101980001F93CF93DF93EC01842F860F281718F451
:10199000F22EF41A01C0F62EFF20A1F0F61621F067
:1019A000CE016FEB71E002C0CE01B8010E94BA0F08
:1019B000EE24E39405C0CE01B8010E94920FE39497
:1019C000EF14C8F3DF91CF911F910F91FF90EF902B
:1019D00008952F923F924F925F926F927F928F92D3
:1019E0009F92AF92BF92CF92DF92EF92FF920F93AE
:1019F0001F93DF93CF9300D00F92CDB7DEB72C01AA
:101A0000B62EA42ED22E262F30E03B832A83842F9D
:101A100090E0A901849F9001859F300D949F300D27
:101A2000112440E005C0840D951DFC0110824F5F1C
:101A3000842F90E028173907B4F73A2C339480911B
:101A40000E0390910F030E94A20CF82E0E94770CB7
:101A50000E94630C882E00911003109111038F2DAA
:101A60000E94770C90E049E150E0849FF001859F4F
:101A7000F00D949FF00D1124E00FF11F708C8F2D4D
:101A80000E94770CDD2009F466C0BD1410F4DB2C35
:101A9000DA948F2D00E005C0882341F00E94770C76
:101AA0000F5F9091DD010917B8F300E0E02ED0162A
:101AB00008F4ED2C8E2D90E02A813B81821793074C
:101AC00014F0EB2CEA946E2C6A94CF2CDD2489E17F
:101AD000982E3AC0532D659FA0011124440D551D29
:101AE0005B834A8300911003109111038C2D69834D
:101AF0000E94770CE92D8E9FC0011124800F911F49
:101B000003960E945E0F482F8A819B8169812A2D4E
:101B100001EC11E00E94BD0C009110031091110323
:101B20008C2D0E94770CF92D8F9FB0011124600F2E
:101B3000711F6D5F7F4F8A819B810E94920F8C2D58
:101B40000E94770CC82ED394662D6D19DE1410F206
:101B5000DE2CD39403C0DD24D394EE248B2D8E1978
:101B6000823008F442C07A94780CF81419F08F2D62
:101B7000815001C0872DF71419F09F2C939401C058
:101B8000982C3E2D232D329F90011124240D351DBC
:101B90003B832A8399E1899F3001112480911003AE
:101BA00090911103860D971D03960E945E0F482F9A
:101BB0006D2D61508A819B812A2D01EC11E00E94DC
:101BC000BD0C8A819B8163EC71E00E94920F609151
:101BD000100370911103660D771D6D5F7F4F8A8131
:101BE0009B810E94920FE39401C09924632C772477
:101BF0008E2D90E0869D1001879D300C969D300CB7
:101C00001124240C351C8D2C8A9439E14F2D439FCF
:101C10006001112480911003909111038C0D9D1D82
:101C2000039639830E945E0F482FC101682D2A2D2B
:101C300001EC11E00E94BD0CC10165EC71E00E9455
:101C4000920F60911003709111036C0D7D1D6D5FFB
:101C50007F4FC1010E94920FBA94BE183981BB20F8
:101C6000D1F1592D539F60011124FF24E3948E2D4F
:101C70008F0D90E0869D1001879D300C969D300C55
:101C80001124240C351C80911003909111038C0DAC
:101C90009D1D03960E945E0F482FC101682D2A2DBD
:101CA00001EC11E00E94BD0CC10163EC71E00E94E7
:101CB000920F60911003709111036C0D7D1D6D5F8B
:101CC0007F4FC1010E94920FF39489E190E0C80E0A
:101CD000D91EFB1460F20F900F900F90CF91DF91FF
:101CE0001F910F91FF90EF90DF90CF90BF90AF903A
:101CF0009F908F907F906F905F904F903F902F902C
:101D00000895FF920F931F93CF93DF93182F809125
:101D10000E0390910F030E94A20C082F0E94770CD3
:101D20000E94630CF82EC0911003D0911103802FF4
:101D30000E94770C482F50E029E130E0429FF001EB
:101D4000439FF00D529FF00D1124EC0FFD1F808D6D
:101D500081508F0D1830A9F40F1521F0801710F065
:101D60000F1558F429E1829F9001112480911003EE
:101D700090911103820F931F5DC0802F90E0019717
:101D800019C0123029F5081710F40F1580F489E1F5
:101D90002F2D289FC0011124209110033091110391
:101DA000280F391F30930F0320930E0347C0802F55
:101DB00090E00196829FA001839F500D929F500D4D
:101DC00011248091100390911103840F951F32C04C
:101DD0001630E1F4A0910E03B0910F0358968C9148
:101DE0005897882351F0C0911003D0911103CD0171
:101DF0000E94A20C0E94630C17C0ED91FC911197F8
:101E00003097E1F012968C91099518C01430B1F416
:101E1000C0911003D091110380910E0390910F0394
:101E20000E94A20C0E94770C99E1899FC0011124A5
:101E30008C0F9D1F90930F0380930E03DF91CF9122
:101E40001F910F91FF900895FF920F931F939C0194
:101E5000042F015010E0EAE0F0E00AC0CB01BF011E
:101E60000E942312D901AF0DB11D805D8C931F5FBD
:101E7000F02EF11A141790F3240F311DF90110827E
:101E80001F910F91FF9008959C01862FB42FB150A0
:101E900050E0AAE00AC06A2F0E941712B9016E0F23
:101EA000711DFB01905D90835F5FEB2FE51B541765
:101EB00090F3240F311DF90110820895282F392F36
:101EC000F90180E09191992321F08F5F8F3FD1F745
:101ED00080E008950F931F93DF93CF9300D0CDB789
:101EE000DEB78C0169837A830E945E0F69817A81F3
:101EF000262F372FF90190E02191222341F0D801BC
:101F0000A80FB11D2C938F5F9F5F9F3FA9F7F8012A
:101F1000E80FF11D10820F900F90CF91DF911F916C
:101F20000F9108950F931F93DF93CF9300D0CDB7F8
:101F3000DEB78C0169837A830E945E0F69817A81A2
:101F4000262F372FF90190E02191222341F0D8016B
:101F5000A80FB11D2C938F5F9F5F9F3FA9F7F801DA
:101F6000E80FF11D10820F900F90CF91DF911F911C
:101F70000F9108950F931F93CF93DF93EC018B0183
:101F80000E945E0F40E090E009C0FE01E20FF31FE7
:101F9000200F311FD9012C9120834F5F242F30E077
:101FA0008217930794F7C80FD91F1982DF91CF9139
:101FB0001F910F9108950F931F93CF93DF93EC011F
:101FC0008B010E945E0F40E090E009C0FE01E20F2D
:101FD000F31F200F311FD9012C9120834F5F242F35
:101FE00030E08217930794F7C80FD91F1982DF9149
:101FF000CF911F910F9108951F920F920FB60F92DC
:1020000011242F938F939F9384E686BD90910C03A8
:1020100083B1809589279091E001982390959093C2
:10202000E0012091DF01282329272093DF01892364
:10203000822390910C03982790930C0390910B03AB
:1020400020910C032823292B20930B0380910C0350
:10205000882319F482E38093DE018091DE018150B0
:102060008093DE01882351F48AE08093DE01909111
:10207000E00280910C03892B8093E0029F918F9165
:102080002F910F900FBE0F901F901895F89490917C
:102090000B03892390910B03982790930B0378945B
:1020A0000895F8949091E00289239091E002982796
:1020B0009093E00278940895F89490910C03909591
:1020C00089230E94461008950E9451100E944610D4
:1020D000089584B114B885B18FEF85B985B5856051
:1020E00085BDEEE6F0E0808181608083789408957C
:1020F0001F920F920FB60F9211242F938F939F93DD
:10210000EF93FF938091C0009091C600E091480248
:10211000EF5FEF7120914902E21741F08871E0937F
:102120004802F0E0E65BFD4F908301C082E08093BF
:102130006A02FF91EF919F918F912F910F900FBEA7
:102140000F901F9018951F920F920FB60F921124A7
:102150008F939F93EF93FF93909126028091270294
:10216000981769F0E0912702EF5FEF71E093270283
:10217000F0E0E85DFD4F80818093C60005C080914E
:10218000C1008F7D8093C100FF91EF919F918F914E
:102190000F900FBE0F901F9018951092260210926C
:1021A0002702109248021092490297FF04C022E0D1
:1021B0002093C0009F779093C5008093C40088E966
:1021C0008093C10086E08093C200089590914802F8
:1021D00080914902981789F0E0914902EF5FEF7111
:1021E000E0934902F0E0E65BFD4F808190916A0246
:1021F000392F20E0280F311D02C020E031E0C90155
:102200000895909126029F5F9F7120912702921757
:10221000E1F3E92FF0E0E85DFD4F80839093260223
:102220008091C10080628093C1000895EF92FF9277
:10223000CF93DF93E82EE7017E01F92EE70102C07C
:102240000E94011189918823D9F7DF91CF91FF90E6
:10225000EF900895CF93DF93EC0102C00E9401112B
:10226000FE01219684918823C9F7DF91CF910895CB
:102270001F920F920FB60F9211242F938F939F935B
:10228000EF93FF938091C8009091CE00E0910302FC
:10229000EF5FEF7120910402E21741F08871E09343
:1022A0000302F0E0EB5FFD4F908301C082E080937A
:1022B0002502FF91EF919F918F912F910F900FBE6B
:1022C0000F901F9018951F920F920FB60F92112426
:1022D0008F939F93EF93FF939091E1018091E2019F
:1022E000981769F0E091E201EF5FEF71E093E2018E
:1022F000F0E0ED51FE4F80818093CE0005C08091CB
:10230000C9008F7D8093C900FF91EF919F918F91BC
:102310000F900FBE0F901F9018951092E101109230
:10232000E201109203021092040297FF04C022E01F
:102330002093C8009F779093CD008093CC0088E9CC
:102340008093C90086E08093CA00089590910302AB
:1023500080910402981789F0E0910402EF5FEF7119
:10236000E0930402F0E0EB5FFD4F80819091250245
:10237000392F20E0280F311D02C020E031E0C901D3
:1023800008959091E1019F5F9F712091E201921762
:10239000E1F3E92FF0E0ED51FE4F80839093E101EE
:1023A0008091C90080628093C9000895EF92FF92E6
:1023B000CF93DF93E82EE7017E01F92EE70102C0FB
:1023C0000E94C11189918823D9F7DF91CF91FF90A5
:1023D000EF900895CF93DF93EC0102C00E94C111EA
:1023E000FE01219684918823C9F7DF91CF9108954A
:1023F000629FD001739FF001829FE00DF11D649FE9
:10240000E00DF11D929FF00D839FF00D749FF00D74
:10241000659FF00D9927729FB00DE11DF91F639F15
:10242000B00DE11DF91FBD01CF0111240895991BC5
:1024300079E004C0991F961708F0961B881F7A95BB
:10244000C9F780950895AA1BBB1B51E107C0AA1FBD
:10245000BB1FA617B70710F0A61BB70B881F991F45
:102460005A95A9F780959095BC01CD01089597FBE9
:10247000092E05260ED057FD04D014D00AD0001C1A
:1024800038F450954095309521953F4F4F4F5F4F11
:102490000895F6F790958095709561957F4F8F4FD1
:1024A0009F4F0895A1E21A2EAA1BBB1BFD010DC070
:1024B000AA1FBB1FEE1FFF1FA217B307E407F507F4
:1024C00020F0A21BB30BE40BF50B661F771F881FD0
:1024D000991F1A9469F760957095809590959B0166
:1024E000AC01BD01CF010895FB01DC0105900D9207
:1024F0000020E1F70895AEE0B0E0E1E8F2E10C94ED
:1025000063150D891E8986E08C831A8309838FEFFA
:102510009FE79E838D839E01275E3F4FCE010196EC
:102520006F89788DA9010E949E12EF81F885E00FD6
:10253000F11F10822E96E4E00C947F15ACE0B0E021
:10254000E4EAF2E10C9455156C011B018A01FC01CF
:1025500017821682838181FFD1C12E010894411C0C
:10256000511CF6019381F10193FD859193FF8191B7
:102570001F01882309F4BEC1853239F493FD85918A
:1025800093FF81911F01853229F490E0B6010E94EA
:10259000CB14E7CFEE24FF2420E02032B0F48B32BE
:1025A00069F08C3228F4803251F0833271F40BC020
:1025B0008D3239F0803349F421602CC022602460D0
:1025C00029C0286027C0206125C027FD2CC0382FD6
:1025D00030533A3098F426FF08C08E2D880FE82E2D
:1025E000EE0CEE0CE80EE30E15C08F2D880FF82EC2
:1025F000FF0CFF0CF80EF30E20620CC08E3221F49B
:1026000026FD78C1206406C08C3611F4206802C013
:10261000883649F4F10193FD859193FF81911F0163
:10262000882309F0BACF982F9554933018F0905220
:10263000933028F40C5F1F4FFFE3F9830DC08336FE
:1026400031F0833771F0833509F060C022C0F801A2
:10265000808189830E5F1F4F420171E0A72EB12C4C
:1026600016C062E0662E712C600E711EF80180802B
:10267000918026FF03C06E2D70E002C06FEF7FEFE8
:10268000C4012C870E94C0145C0183012C852F7724
:1026900017C052E0652E712C600E711EF80180800B
:1026A000918026FF03C06E2D70E002C06FEF7FEFB8
:1026B000C4012C870E94B5145C012C85206883011D
:1026C00023FD20C008C080E290E0B6012C870E9464
:1026D000CB14FA942C858F2D90E0A816B90698F3A8
:1026E00011C0F40127FD859127FF81914F0190E0F2
:1026F000B6012C870E94CB142C85F110FA94089413
:10270000A108B108A114B10461F7F1C0843611F039
:10271000893649F527FF08C0F801608171818281FF
:1027200093810C5F1F4F09C0F80160817181882778
:1027300077FD8095982F0E5F1F4F4FE6B42EB22283
:1027400097FF09C090958095709561957F4F8F4F49
:102750009F4FF0E8BF2AA2012AE030E00E94F71460
:10276000782E741845C0853731F43FEEB32EB2226F
:102770002AE030E025C099EFB92EB2228F36C1F0A1
:10278000803720F4883509F0B5C00DC0803721F0BE
:10279000883709F0AFC002C020E1B22AB4FE0BC0F6
:1027A00084E0B82A08C0B4FE09C0E6E0BE2A06C02C
:1027B00028E030E005C020E130E002C020E132E056
:1027C000B7FE08C0F80160817181828193810C5F3E
:1027D0001F4F07C0F8016081718180E090E00E5FBB
:1027E0001F4FA2010E94F714782E7418FFE7BF2232
:1027F000B6FE0BC02EEFB2227E1438F4B4FE07C032
:10280000B2FC05C08FEEB82202C0A72C01C0AE2CCE
:102810008B2D90E0B4FE0DC0FE01E70DF11D20816F
:10282000203319F4E9EEBE2209C0A394B2FE06C01B
:1028300004C086789070009709F0A3948B2C99249B
:10284000B3FC14C0B0FE0FC0AF1428F4E72CEF0C9B
:10285000EA18AF2C08C0E72C06C080E290E0B60171
:102860000E94CB14A394AF14C0F304C0AF1410F4AF
:10287000FA1801C0FF2484FE0FC080E390E0B60187
:102880000E94CB1482FE1FC081FE03C088E590E049
:1028900010C088E790E00DC0C40186789070009762
:1028A00091F081FC02C080E201C08BE2B7FC8DE2B6
:1028B00090E0B6010E94CB1406C080E390E0B60120
:1028C0000E94CB14EA947E14C0F37A94F201E70DCF
:1028D000F11D808190E0B6010E94CB147720A9F70A
:1028E00006C080E290E0B6010E94CB14FA94FF206B
:1028F000C1F737CEF6012681378102C02FEF3FEFB7
:10290000C9012C96E2E10C947115DC01CB01FC01AC
:10291000F999FECF06C0F2BDE1BDF89A319600B438
:102920000D9241505040B8F70895F999FECF92BDED
:1029300081BDF89A992780B50895DC01CB0103C0C9
:102940002D910E94A81441505040D0F70895262F91
:10295000F999FECF1FBA92BD81BD20BD0FB6F89484
:10296000FA9AF99A0FBE01960895FC0105906150FC
:1029700070400110D8F7809590958E0F9F1F089595
:10298000FC016150704001900110D8F7809590953E
:102990008E0F9F1F08950F931F93CF93DF938C018A
:1029A000EB018B8181FF1BC082FF0DC02E813F8117
:1029B0008C819D812817390764F4E881F98101939E
:1029C000F983E88306C0E885F985802F099500978B
:1029D00031F48E819F8101969F838E8302C00FEF19
:1029E0001FEFC801DF91CF911F910F910895FA0158
:1029F000AA27283051F1203181F1E8946F936E7F3E
:102A00006E5F7F4F8F4F9F4FAF4FB1E03ED0B4E02E
:102A10003CD0670F781F891F9A1FA11D680F791F6F
:102A20008A1F911DA11D6A0F711D811D911DA11D80
:102A300020D009F468943F912AE0269F1124301990
:102A4000305D3193DEF6CF010895462F4770405D2B
:102A50004193B3E00FD0C9F7F6CF462F4F70405DDA
:102A60004A3318F0495D31FD4052419302D0A9F735
:102A7000EACFB4E0A6959795879577956795BA952F
:102A8000C9F700976105710508959B01AC010A2EF5
:102A900006945795479537952795BA95C9F7620FCC
:102AA000731F841F951FA01D08952F923F924F9270
:102AB0005F926F927F928F929F92AF92BF92CF92CE
:102AC000DF92EF92FF920F931F93CF93DF93CDB7D7
:102AD000DEB7CA1BDB0B0FB6F894DEBF0FBECDBF4F
:102AE00009942A88398848885F846E847D848C8420
:102AF0009B84AA84B984C884DF80EE80FD800C8129
:102B00001B81AA81B981CE0FD11D0FB6F894DEBF0B
:0C2B10000FBECDBFED010895F894FFCF7B
:102B1C000100537065696368657265204461746572
:102B2C006E00253032643A253032643A25303264F6
:102B3C000025692E25694300253032643A25303250
:102B4C00643A25303264200054656D703A00704848
:102B5C003A00382E3200483A00204B3A00204C3ACA
:102B6C0000204D4C3A00414C41524D210054656DB2
:102B7C0070657261747572204F66667365743A0085
:102B8C004C4D37363A20202020202020004B6F72ED
:102B9C00722E2054656D703A20004F666673657412
:102BAC003A20202020200020200020004865697A4F
:102BBC0065722065696E3A004865697A65722061B4
:102BCC0075733A004879737465726573653A0023BE
:082BDC00002B002D003E00005B
:00000001FF
