:100000000C94D0020C94ED020C94ED020C94ED02D1
:100010000C94ED020C94ED020C94ED020C94ED02A4
:100020000C94ED020C94ED020C94ED020C94ED0294
:100030000C94ED020C94ED020C94ED020C94ED0284
:100040000C94ED020C94ED020C94011B0C94ED0247
:100050000C94B61B0C94E11B0C94ED020C94ED0275
:100060000C94ED020C94ED020C94ED020C94ED0254
:100070000C94761C0C94A11C0C94ED023120546558
:100080006D706572617475720032205A65697420F2
:100090002020202020200033204C69636874202019
:1000A00020202020003420526567656E7A656974CF
:1000B000656E0035205461676573776572746520DD
:1000C00000362041626F75742020202020200031EE
:1000D0002D312054656D70204F6666736574003154
:1000E0002D32204865697A657200312D33204C75B8
:1000F000656674657200312D3420416C61726D202B
:1001000000322D31205A6569742065696E73742E32
:1001100000322D3220446174756D2065696E7374F0
:100120002E00332D31204C616D70652065696E00A5
:10013000332D32204C616D70652061757300332D55
:1001400033204D4C2065696E00332D34204D4C20FA
:1001500061757300332D35204D4C2048656C6C69FA
:10016000676B65697400342D3120526567656E7A5E
:100170006569742045696E00342D3220416E7A61C4
:10018000686C20526567656E7A00342D33205265A5
:1001900067656E7A656974203100342D34205265AC
:1001A00067656E7A656974203200342D352052659A
:1001B00067656E7A656974203300342D3620526588
:1001C00067656E7A656974203400342D3720526576
:1001D00067656E7A6569742035002020004D6F00D8
:1001E0004469004D6900446F00467200536100533A
:1001F0006F00416C6C6573204F4B004932432045C2
:100200005252210054656D70202B2B210054656DD6
:1002100070202D2D21007048202B2B210000007014
:1002200048202D2D210000005744542045525221D2
:100230000070484D696E3A0070484D61783A00543C
:100240002D4D696E3A00542D4D61783A0053573A5E
:1002500056312E30004857204D3A56312E30204628
:100260003A56312E300053746566616E204B656CD2
:100270006C657200755175617269756D20446970A5
:100280006C6F6D6172622E00616E70617373656E6A
:100290003A20004D6F6E646C696368742048656C29
:1002A0006C69676B656974005A6569742045696E8D
:1002B0007374656C6C756E67656E20204D6F6E642F
:1002C0006C6963687420617573736368616C7465CD
:1002D0006E3A005A6569742045696E7374656C6C7A
:1002E000756E67656E20204D6F6E646C696368740F
:1002F0002065696E7374656C6C656E3A0052656753
:10030000656E7A65697420353A00526567656E7A64
:1003100065697420343A00526567656E7A65697460
:1003200020333A00526567656E7A65697420323A07
:1003300000526567656E7A65697420313A004569D7
:100340006E736368616C7464617565722064657254
:1003500020526567656E70756D70653A005A656903
:10036000742045696E7374656C6C756E67656E207C
:10037000204C616D706520617573736368616C7486
:10038000656E3A005A6569742045696E7374656CD0
:100390006C756E67656E20204C616D7065206569B7
:1003A0006E736368616C74656E3A00416B74756559
:1003B0006C6C65205568727A656974202020206510
:1003C000696E676562656E00416B7475656C6C651E
:1003D0007320446174756D202020202065696E674C
:1003E0006562656E004879737465726573653A007D
:1003F00054656D702E204D696E3A0054656D702EF7
:10040000204D61783A0054656D7065726174757243
:10041000204D696E2F4D61783A004879737465728A
:100420006573653A004C7565667465722061757315
:100430003A004C7565667465722065696E3A004CC9
:100440007565667465722065696E7374656C6C752C
:100450006E67004879737465726573653A00486524
:10046000697A6572206175733A004865697A6572C8
:100470002065696E3A004865697A65722045696E43
:100480007374656C6C756E67656E004553432064CC
:10049000727565636B656E2020202020004B616CB7
:1004A000696272696572756E6720202020202020A5
:1004B00020616267657363686C6F7373656E007348
:1004C0002077617274656E202D3E204F4B202000F6
:1004D000536F6E646520696E207048392E3020207D
:1004E000202020204C6F6573756E672074617563E2
:1004F00068656E00732077617274656E202D3E20F2
:100500004F4B202000536F6E646520696E20704849
:10051000372E302020202020204C6F6573756E67A9
:10052000207461756368656E00732077617274650D
:100530006E202D3E204F4B202000536F6E646520AF
:10054000696E207048342E302020202020204C6FEF
:100550006573756E67207461756368656E20202011
:1005600020202000455343206B616C69622E20617E
:10057000626272656368656E004F4B206B616C69E7
:10058000622E207374617274656E00704820536F20
:100590006E6465206B616C696272696572656E007C
:1005A00011241FBECFEFD0E1DEBFCDBF12E0A0E02F
:1005B000B1E0E2E0F2E402C005900D92A83EB1077E
:1005C000D9F714E0A8EEB2E001C01D92AC39B10732
:1005D000E1F70E94A1190C94FF200C940000EAE7B7
:1005E000F0E0808187608083ECE7F0E080818083A9
:1005F000089590917A00906890937A0090917C0091
:10060000982B90937C0080917A00806480937A008C
:1006100080917A0086FDFCCF8091780090917900DE
:1006200040E120E030E080917A00806480937A009D
:1006300080917A0086FDFCCF8091780090917900BE
:10064000280F391F415079F780917A008F77809376
:100650007A0084E0369527958A95E1F7C9010895D7
:10066000AF92BF92CF92DF92EF92FF920F931F93C0
:10067000CF93DF937C016B015A01E901FB010081FB
:100680001181FA0120813181201B310B40E050E0C3
:1006900060E27EE480E090E00E94751DF901DA01DD
:1006A0002E87FF87488BB98B980140E050E0BF014F
:1006B000CD010E94361D9B01AC0180E791E1A1E0D4
:1006C000B0E0821B930BA40BB50B8A8B9B8BAC8B7E
:1006D000BD8BF701E080F1800E191F09980140E001
:1006E00050E060E375E780E090E00E94751DF9013D
:1006F000DA012E83FF834887B987970140E050E0F5
:10070000BF01CD010E94361D9B01AC0180E49CE934
:10071000A0E0B0E0821B930BA40BB50B8A879B87EC
:10072000AC87BD87F982E882F601808191819B8345
:100730008A83F501808191819D838C83DF91CF91A4
:100740001F910F91FF90EF90DF90CF90BF90AF90EF
:100750000895CF93DF93EC0184E00E94F9029C019D
:100760004A815B81BC0180E090E02417350758F492
:100770002E813F81488559850E94361D2A853B85FB
:100780004C855D850AC02E853F85488959890E9420
:10079000361D2A893B894C895D89620F731F841F2E
:1007A000951F2AE030E040E050E00E94751DC9012D
:1007B000DF91CF9108951F9380ED0E94B8068823A2
:1007C00031F00E94070781E08093060317C080E0A4
:1007D0000E940F0781ED0E9404070E942A07182F2C
:1007E0000E94070780ED0E94B80680E00E940F0774
:1007F000812F8F770E940F070E9407071F9108958E
:10080000CF92DF92EF92FF920F931F93CF93DF93DC
:10081000EC0180ED0E94B806882331F00E940707A2
:1008200081E08093060360C080E00E940F0781EDA5
:100830000E9404070E942007D82E0E942007E82E5D
:100840000E942007F82E0E942007C82E0E94200731
:10085000082F0E942007182F0E942A072D2D22956D
:100860002F70220F922F990F990F920F2D2D2F700D
:10087000920F99832E2D22952F70220F922F990F70
:10088000990F920F2E2D2F70920F98832F2D229556
:100890002F70220F922F990F990F920F2F2D2F70DB
:1008A000920F9A83202F22952F70220F922F990F4B
:1008B000990F920F0F70900F9B83CC82212F22955E
:1008C0002F70220F922F990F990F920F1F70910F77
:1008D0009D83282F22952F70220F922F990F990F09
:1008E000920F8F70980F9E83DF91CF911F910F9180
:1008F000FF90EF90DF90CF9008951F93CF93DF93F9
:10090000EC0180ED0E94B806882331F00E940707B1
:1009100081E08093060321C080E00E940F07898157
:100920001AE0612F0E94551D8295807F892B0E94BD
:100930000F078881612F0E94551D8295807F892B2A
:100940000E940F078A81612F0E94551D8295807F2A
:10095000892B0E940F070E940707DF91CF911F91FB
:1009600008951F93CF93DF93EC0180ED0E94B806AA
:10097000882331F00E94070781E08093060324C09A
:1009800083E00E940F078C810E940F078B811AE081
:10099000612F0E94551D8295807F892B0E940F0731
:1009A0008D81612F0E94551D8295807F892B0E9429
:1009B0000F078E81612F0E94551D8295807F892BA4
:1009C0000E940F070E940707DF91CF911F910895A2
:1009D0001F93182F80E70E94DD06209100013091BF
:1009E00001012115310519F0812F806402C0812F8A
:1009F0008F7B0E940F070E9407071F9108951F9386
:100A0000182F1068812F0E94E804812F0E94E804AB
:100A100080E00E94E8041F9108951F93182F82958B
:100A20008F7080610E94FF04812F8F7080610E940F
:100A3000FF041F9108951F93CF93DF93EC0110E003
:100A400003C00E940D051F5FFE01E10FF11D8081B3
:100A50008823B9F7DF91CF911F9108951F93BC01AF
:100A600088EE92E00E94B21D10E004C080810E94D6
:100A70000D051F5FE12FF0E0E851FD4F80818823D5
:100A8000A9F71F9108951F93162F853000F5653142
:100A9000F0F48823E1F06623D1F0833041F0843014
:100AA00041F0823011F0115805C0115403C01D5699
:100AB00001C01D52812F82958F7080680E94FF04B3
:100AC000812F8F7080680E94FF0481E001C080E068
:100AD0001F910895CF93DF93EA010E944305882375
:100AE00029F0CE010E941B0581E001C080E0DF916A
:100AF000CF910895DF93CF930F92CDB7DEB749839F
:100B00000E9443054981882329F0842F0E940D0506
:100B100081E001C080E00F90CF91DF910895FF92B6
:100B20000F931F93CF93DF93082F162FEA01FF2413
:100B30000FC0802F612F0E947A05882389F01F5FE4
:100B4000153110F00F5F11E0053008F001E0F3946B
:100B5000FE01EF0DF11D4081442359F781E001C0F2
:100B600080E0DF91CF911F910F91FF900895FF9248
:100B70000F931F93CF93DF93082F162FEA01FF24C3
:100B80000BC0802F612F0E947A05882369F01F5FB8
:100B9000153108F011E0F394FE01EF0DF11D4081D5
:100BA000442379F781E001C080E0DF91CF911F916C
:100BB0000F91FF900895DF93CF930F92CDB7DEB7DB
:100BC00081E70E94DD060E942A0789830E940707A9
:100BD00089810F90CF91DF9108951F93882311F0A1
:100BE0008FEB01C08FEA0E94E8040E94DB05182FFA
:100BF00080E00E94E804812F1F9108950F931F93B6
:100C0000182F0E94ED05082F812F0E94ED058F708F
:100C10000295007F800F1F910F9108950F931F93EE
:100C2000CF93DF93EC018B0180E00E94FE0587FDEE
:100C30001CC0982F907F943171F0953118F499234E
:100C400031F013C0903429F0943579F406C091E066
:100C500005C092E003C093E001C094E098838F70D8
:100C60008F5FF801808381E001C080E0DF91CF9148
:100C70001F910F910895DF93CF9300D0CDB7DEB7CA
:100C800019821A82CE010196BE016E5F7F4F0E94CB
:100C90000E0689818F5F61E00E9443050F900F90DF
:100CA000CF91DF91089580E00E94FE05881F88277C
:100CB000881F089520E030E055E005C0452F4A9593
:100CC000F1F72F5F3F4F28173907C0F3089520E051
:100CD00030E040EA5FE005C0FA013197F1F72F5F9D
:100CE0003F4F28173907C0F308951F93182F829597
:100CF0008F700E94FF04812F8F700E94FF0481E09B
:100D000090E00E9467061F91089580E190E00E94A4
:100D1000670683E00E94FF0485E090E00E9467067A
:100D200083E00E94FF0485E690E00E945A0683E07B
:100D30000E94FF0482E00E94FF0488E20E94750680
:100D400088E00E94750681E00E94750686E00E9498
:100D500075068CE00E9475060895909301018093BA
:100D6000000108951092B90088E48093B8000895B6
:100D700094EA9093BC009091BC0097FFFCCF9091B7
:100D8000B900987F983011F0903199F48093BB00AE
:100D900084E88093BC008091BC0087FFFCCF9091D9
:100DA000B900987F983139F081E0903429F480E0DF
:100DB000089581E0089580E0089544EA34E824E944
:100DC0004093BC009091BC0097FFFCCF9091B9007C
:100DD000987F983011F0903199F78093BB00309351
:100DE000BC009091BC0097FFFCCF9091B900987F18
:100DF000903211F0983539F42093BC009091BC00EA
:100E000094FDFCCFDDCF08950E94B806089584E9D3
:100E10008093BC008091BC0084FDFCCF089580933A
:100E2000BB0084E88093BC008091BC0087FFFCCFAE
:100E30009091B900987F81E0983209F480E008959C
:100E400084EC8093BC008091BC0087FFFCCF809134
:100E5000BB00089584E88093BC008091BC0087FFAC
:100E6000FCCF8091BB00089588EC91E0909308013D
:100E700080930701909313018093120190931E01B8
:100E800080931D0190932901809328019093340150
:100E90008093330190933F0180933E0190934A01E8
:100EA0008093490190935501809354019093600180
:100EB00080935F0190936B0180936A019093760118
:100EC00080937501909381018093800190934A01F2
:100ED0008093490190935501809354019093600150
:100EE00080935F0190936B0180936A0190937601E8
:100EF0008093750190938101809380019093C10349
:100F00008093C003109200031092FC021092FD0225
:100F10001092FE021092FF020895E091C003F0913A
:100F2000C1039281823009F45AC0833030F488239F
:100F300069F0813009F0B4C03EC08430F9F08430EB
:100F400008F44DC0853009F0ABC097C0E0910003B4
:100F5000F0E0E450FD4F8081882341F4E0910003EC
:100F6000F0E09150E450FD4F908383C0E091000386
:100F7000F0E0E450FD4F808181501BC0E091000300
:100F8000F0E0E450FD4F208130E0892F90E00197A0
:100F90002817390739F4E0910003F0E0E450FD4FE1
:100FA000108267C0E0910003F0E0E450FD4F8081C3
:100FB0008F5F80835EC088EC91E09093C103809343
:100FC000C00381E00E947506109200031092FC029B
:100FD0001092FD021092FE021092FF020895A0915D
:100FE0000003B0E0A450BD4F2C9130E08BE090E0C6
:100FF000289FD001299FB00D389FB00D1124AE0F4E
:10100000BF1F11962C9111972223F1F4A091000398
:10101000B0E0A450BD4F2C9130E0289FD001299F13
:10102000B00D389FB00D1124AE0FBF1F13968D91D8
:101030009C9114979093C1038093C0038091000307
:101040008F5F8093000315C0A0910003B0E0A4500F
:10105000BD4F2C9130E0289FD001299FB00D389FC3
:10106000B00D1124AE0FBF1F1996ED91FC911A9788
:10107000099581E00E947506089588EC91E09093AF
:10108000C1038093C00381E00E94750610920003A3
:101090001092FC021092FD021092FE021092FF02CA
:1010A0000895FF920F931F93CF93DF9381E061E048
:1010B0000E944305E0910003F0E0E450FD4FF08012
:1010C0001F2D01E0CBE0D0E0802F61E00E944305BE
:1010D0001F1511F4013071F5E0910003F0E0E450C8
:1010E000FD4F8081181719F48EE30E940D05802FA3
:1010F00062E00E944305812F90E08C9F90018D9FBC
:10110000300D9C9F300D1124E091C003F091C1037C
:10111000E20FF31F878190850E942E051F5FE091EB
:10112000C003F091C1038281181708F010E00F5F2F
:10113000053051F6DF91CF911F910F91FF900895E7
:101140001F93DF93CF930F92CDB7DEB7182F0E9476
:10115000B806882341F00E94070781E080930603C8
:1011600020E030E01DC080E00E940F07812F8F5FDC
:101170000E9404070E942007182F0E942A078983D3
:101180000E940707212F332727FD3095322F222772
:101190008981280F311D83E0359527958A95E1F7E0
:1011A000C9010F90CF91DF911F910895DF92EF92C7
:1011B000FF920F931F93DF93CF93CDB7DEB728979E
:1011C0000FB6F894DEBF0FBECDBFD82E8E010F5FD5
:1011D0001F4F29E0E22EF12CEC0EFD1E8D2D0E94FA
:1011E000A008F801819391938F01EE15FF05B1F7E7
:1011F00029813A814B815C818D819E8148175907F5
:1012000031F461E02817390719F460E001C061E0AA
:101210004F8158858417950729F4662319F4211501
:10122000310541F481E08093060320910103309160
:10123000020304C03093020320930103C9012896DE
:101240000FB6F894DEBF0FBECDBFCF91DF911F91D7
:101250000F91FF90EF90DF90089585B5856085BD73
:10126000EEE6F0E080818160808381E280938000FF
:1012700083E080938100789408958FE081B980E3C2
:101280008AB987B1806C87B90895CF92DF92EF92C7
:10129000FF920F931F93CF93DF93EB019C01B90152
:1012A000882777FD8095982F21E732E040E050E0D5
:1012B0000E94361D20E137E240E050E00E94971D79
:1012C00079018A0128EE33E040E050E00E94971D4A
:1012D000C90137FF34C0909581959F4FE114F10407
:1012E000B1F4ADB7BEB718970FB6F894BEBF0FBE36
:1012F000ADBFEDB7FEB731961296DC93CE93119742
:101300002AE032E0338322831582148215C0ADB700
:10131000BEB718970FB6F894BEBF0FBEADBFEDB7FE
:10132000FEB731961296DC93CE93119722E132E00C
:1013300033832283F582E4829783868319C08DB735
:101340009EB708970FB6F8949EBF0FBE8DBFEDB73E
:10135000FEB73196ADB7BEB71296DC93CE93119718
:1013600082E192E093838283F582E482378326834D
:101370000E94DE1D2DB73EB7285F3F4F0FB6F89491
:101380003EBF0FBE2DBFDF91CF911F910F91FF90F8
:10139000EF90DF90CF9008950F931F93DF93CF933B
:1013A000CDB7DEB727970FB6F894DEBF0FBECDBF1F
:1013B00029833A834B835C836D837E838F838DB7D0
:1013C0009EB70A970FB6F8949EBF0FBE8DBFEDB7BC
:1013D000FEB73196ADB7BEB712961C930E93119718
:1013E00089E192E0938382838B8184831582898152
:1013F000868317828A81808711860E94DE1D8DB7C1
:101400009EB70A960FB6F8949EBF0FBE8DBF279663
:101410000FB6F894DEBF0FBECDBFCF91DF911F9105
:101420000F9108950F931F93DF93CF93CDB7DEB73E
:1014300027970FB6F894DEBF0FBECDBF29833A833E
:101440004B835C836D837E838F838DB79EB70A97B2
:101450000FB6F8949EBF0FBE8DBFEDB7FEB73196A5
:10146000ADB7BEB712961C930E93119788E292E027
:10147000938382838C81848315828E8186831782F5
:101480008F81808711860E94DE1D8DB79EB70A96D8
:101490000FB6F8949EBF0FBE8DBF27960FB6F89477
:1014A000DEBF0FBECDBFCF91DF911F910F91089589
:1014B000C2962DB73EB7285030400FB6F8943EBFC5
:1014C0000FBE2DBFEDB7FEB73196ADB7BEB71296C2
:1014D0007C936E93119727E332E03383228368EE87
:1014E00073E00E94611D7583648364E670E00E946E
:1014F000611D778366830E94DE1D2DB73EB7285F8E
:101500003F4F0FB6F8943EBF0FBE2DBF08956F92A8
:101510007F928F929F92AF92BF92CF92DF92EF9283
:10152000FF920F931F93DF93CF930F92CDB7DEB748
:101530003C017B01BB2491E00BE214E049E1C42EA5
:1015400042E0D42E3BE3A32E27E1922E02C0BB241F
:1015500090E08FE099830E9475066B2D660F6B0DEE
:101560006E5F83E00E94430588E00E949B1B998187
:10157000882331F08B2D823009F442C0B39444C0EB
:1015800082E099830E949B1B9981882321F0BB20D4
:10159000C9F1BA9439C080E299830E94851B8823DF
:1015A00009F0EFC084E00E94851B9981882361F1D6
:1015B0008CE00E94750681E00E947506E114F1043A
:1015C00049F0F894C301B70147E050E00E940020C1
:1015D000789403C0C3010E947D0481E061E04EE382
:1015E00052E00E94B7058FEF99E6A8E18150904044
:1015F000A040E1F700C0000081E00E947506C1C074
:10160000BB2402C082E0B82E992369F1ADB7BEB702
:101610001A970FB6F894BEBF0FBEADBFEDB7FEB7B9
:10162000319612961C930E931197D382C282D301E6
:1016300012968C911297848315828C9186831782DF
:1016400011968C91808711860E94DE1DEDB7FEB742
:101650003A960FB6F894FEBF0FBEEDBF83E061E08F
:10166000A8010E946A05FB2DF13089F1F23009F4DE
:1016700053C081E00E94851BB82E81E00E94901B20
:101680008B2961F0D30112968C911297873121F446
:1016900012961C92129719C08F5F15C080E10E94AC
:1016A000851BB82E80E10E94901B8B2909F44FCF37
:1016B000D30112968C911297882321F412969C9252
:1016C000129703C08150F3018283BB2458C081E08C
:1016D0000E94851B882E81E00E94901B882941F082
:1016E000D3018C918B3311F41C9249C08F5F11C0D0
:1016F00080E10E94851B882E80E10E94901B882932
:1017000009F426CFD3018C91882311F4AC9237C011
:101710008150F301808333C081E00E94851B882EB5
:1017200081E00E94901B882979F0D30111968C9159
:1017300011978B3321F411961C92119703C08F5F80
:10174000F301818391E001C090E080E199830E94E0
:10175000851B882E80E10E94901B8829998188230F
:1017600009F4F7CED30111968C911197882321F4B7
:101770001196AC92119703C08150F301818391E0DF
:10178000E8CE81E00E9475060F90CF91DF911F9106
:101790000F91FF90EF90DF90CF90BF90AF909F9010
:1017A0008F907F906F9008956F927F928F929F920B
:1017B000AF92BF92CF92DF92EF92FF920F931F935F
:1017C000DF93CF930F92CDB7DEB73C018FE00E943D
:1017D0007506DD2491E00BE214E0A8E2EA2EA2E017
:1017E000FA2EFCE0CF2EE3E6BE2E7FE1A72E67E0C7
:1017F000962E02C0DD2490E06D2D660F6D0D6E5F9C
:1018000083E099830E94430588E00E949B1B998195
:10181000882329F08D2D8330B1F1D39438C082E034
:1018200099830E949B1B9981882321F0DD2069F117
:10183000DA942DC080E299830E94851B882309F0E9
:1018400040C184E00E94851B9981882301F18CE0CE
:101850000E94750681E00E947506C3010E94B104D2
:1018600081E061E04EE352E00E94B7058FEF99E618
:10187000A8E181509040A040E1F700C0000081E065
:101880000E9475061EC1DD2402C053E0D52E9923A7
:1018900009F448C0D30114966C9183E0689FB001AD
:1018A000112466527E4F8DED93E00E94B21D0E947E
:1018B0001B0583E061E04DED53E00E946A058EE474
:1018C00092E00E941B05EDB7FEB73A970FB6F89469
:1018D000FEBF0FBEEDBF3196ADB7BEB712961C93DB
:1018E0000E931197F382E282D30113968C91139792
:1018F0008483158215968C91159786831782169688
:101900008C91808711860E94DE1DEDB7FEB73A9656
:101910000FB6F894FEBF0FBEEDBF83E064E0A801F0
:101920000E946A05FD2DF23009F461C0F33009F41C
:1019300093C0F13079F181E00E94851BD82E81E0BF
:101940000E94901B8D2969F0D30114968C911497F5
:10195000873029F481E014968C93149719C08F5F17
:1019600015C080E10E94851BD82E80E10E94901B4B
:101970008D2909F43FCFD30114968C9114978130AF
:1019800021F414969C92149703C08150F301848330
:10199000DD2495C081E00E94851B882E81E00E9495
:1019A000901B882961F0D30113968C9113978F3186
:1019B00021F41396DC92139782C08F5F15C080E1EB
:1019C0000E94851B882E80E10E94901B882909F4C3
:1019D00012CFD30113968C911397813021F4139673
:1019E000AC9213976CC08150F301838368C081E08F
:1019F0000E94851B882E81E00E94901B882981F01F
:101A0000D30115968C9115978C3029F481E01596A9
:101A10008C93159703C08F5FF301858391E001C01C
:101A200090E080E199830E94851B882E80E10E94CE
:101A3000901B88299981882309F4DECED30115965D
:101A40008C911597813021F41596CC92159737C05B
:101A50008150F301858333C081E00E94851B882E6D
:101A600081E00E94901B882979F0D30116968C9111
:101A70001697833621F416961C92169703C08F5F33
:101A8000F301868391E001C090E080E199830E9498
:101A9000851B882E80E10E94901B882999818823CC
:101AA00009F4AACED30116968C911697882321F4B7
:101AB0001696BC92169703C08150F301868391E07D
:101AC0009BCE81E00E9475060F90CF91DF911F9110
:101AD0000F91FF90EF90DF90CF90BF90AF909F90CD
:101AE0008F907F906F900895FF920F931F93CF93E5
:101AF000DF93EC01F88081E061E040E552E00E9474
:101B0000B70580E90E94A0088C016BE274E00E9496
:101B1000450982E061E043E652E00E94B7058BE2AE
:101B200094E00E941B0583E061E040E752E00E94E0
:101B3000B7058881992787FD9095800F911F6BE2EB
:101B400074E00E9445098BE294E00E941B058881A5
:101B5000992787FD90956BE274E00E94450984E027
:101B600061E04EE752E00E94B7058BE294E00E94EC
:101B70001B058BE892E00E941B0581E00E94851BFB
:101B8000082F81E00E94901B802B19F088818E5FC6
:101B9000888380E10E94851B082F80E10E94901BB2
:101BA000802B19F088818250888384E00E94851BF5
:101BB000082F84E00E94901B802BE9F081E00E94B6
:101BC000750681E061E04EE352E00E94B705F894AB
:101BD00080E090E068810E940A2078948FEF99E677
:101BE000A8E181509040A040E1F700C0000081E0F2
:101BF0000E9475060BC080E20E94851B082F80E2C0
:101C00000E94901B802B09F47CCFF882DF91CF914A
:101C10001F910F91FF9008956F927F928F929F92E4
:101C2000AF92BF92CF92DF92EF92FF920F931F93EA
:101C3000DF93CF93CDB7DEB72E970FB6F894DEBF04
:101C40000FBECDBF3C016B015A0179014801CE01A5
:101C50000196D90126E00D90FC010192CF0121509F
:101C6000D1F71F8282E061E0A3010E94B70583E003
:101C700061E0A6010E94B70584E061E0A5010E9431
:101C8000B70552E0B52E91E08E01095F1F4F48E580
:101C9000C42E42E0D42E03C032E0B32E90E08B2D50
:101CA00061E19E870E9443058FE00E94750688E0EF
:101CB0000E949B1B9E85882329F0FB2DF33009F0A1
:101CC00047C043C082E09E870E949B1B9E8588235D
:101CD00021F02B2D2230C9F53BC084E09E870E9465
:101CE000851B9E85882309F18CE00E94750681E0A2
:101CF0000E94750681E061E04EE352E00E94B70564
:101D0000F894C701B40146E050E00E9400207894A6
:101D10008FEF99E6A8E181509040A040E1F700C024
:101D2000000081E00E947506B3C080E29E870E9499
:101D3000851B9E85882371F0D701FE01319686E0D0
:101D400001900D928150E1F7A3C022E0B22E02C0B3
:101D500083E0B82E9923A1F1D7018D919C91B80110
:101D60000E94450982E06EE0A8010E94B705F701D4
:101D700082819381B8010E94450983E06EE0A80149
:101D80000E94B705D7018D919C91119712962D91C4
:101D90003C911397821793071CF0821B930B04C08E
:101DA000F901E81BF90BCF01B8010E94450984E055
:101DB0006EE0A8010E94B7058EE492E00E941B0528
:101DC000FB2DF33089F181E00E94851BB82E81E064
:101DD0000E94901B8B2971F0D7018D919C911197D6
:101DE000B2E088359B0721F4F7011182108219C0F7
:101DF000019613C080E10E94851BB82E80E10E94ED
:101E0000901B8B2909F448CFF701808191810097BD
:101E100019F4D182C08205C00197D70111969C9315
:101E20008E93B2E0BB2E32C081E00E94851BA82EAB
:101E300081E00E94901B8A2979F0F70182819381C9
:101E4000F2E088359F0731F4D70113961C921E9259
:101E500012971CC0019617C080E10E94851BA82E16
:101E600080E10E94901B8A2909F418CFD7011296AD
:101E70008D919C911397009729F41396DC92CE9242
:101E8000129704C00197F7019383828391E007CFF3
:101E90002E960FB6F894DEBF0FBECDBFCF91DF9167
:101EA0001F910F91FF90EF90DF90CF90BF90AF9078
:101EB0009F908F907F906F9008957F928F929F92C6
:101EC000AF92BF92CF92DF92EF92FF920F931F9348
:101ED000DF93CF9300D000D000D0CDB7DEB781E044
:101EE0000E9475068DED93E06BE875E00E94B21DCF
:101EF000AC0181E061E00E94B7058DED93E069E7F8
:101F000075E00E94B21DAC0182E061E00E94B7055D
:101F10008DED93E064E675E00E94B21DAC0183E0B4
:101F200061E00E94B705E4EBEE2EF12C012D112D9E
:101F300073E0A72EB12CAC0EBD1E65E0862E912C51
:101F40008C0E9D1E6E010894C11CD11C80E20E9463
:101F5000851B8823B9F081E00E94750626960FB68E
:101F6000F894DEBF0FBECDBFCF91DF911F910F91CF
:101F7000FF90EF90DF90CF90BF90AF909F908F90A9
:101F80007F90089584E00E94851B782E84E00E9453
:101F9000901B8729D9F2E092B803F092B90300931D
:101FA000BA031093BB038DED93E06AE375E00E94E2
:101FB000B21DAC0182E061E00E948F056091B80320
:101FC0007091B9038091BA039091BB036150704046
:101FD000804090404BE254E02AE030E00E94B91D7E
:101FE00084E061E04BE254E00E94B7058DED93E0A0
:101FF00069E275E00E94B21D0E941B058091B80342
:102000009091B903A091BA03B091BB030097A105C9
:10201000B105A1F684E00E94F9029A83898384E0E5
:102020000E94851B84E00E94851B8823D9F3E092DF
:10203000B803F092B9030093BA031093BB038DED7C
:1020400093E065E075E00E94B21DAC0182E061E0C2
:102050000E948F056091B8037091B9038091BA0313
:102060009091BB0361507040804090404BE254E03F
:102070002AE030E00E94B91D84E061E04BE254E0C8
:102080000E94B7058DED93E064EF74E00E94B21DED
:102090000E941B058091B8039091B903A091BA03E7
:1020A000B091BB030097A105B105A1F684E00E94A1
:1020B000F9029C838B8384E00E94851B84E00E944C
:1020C000851B8823D9F3E092B803F092B9030093FB
:1020D000BA031093BB038DED93E060ED74E00E94B2
:1020E000B21DAC0182E061E00E948F056091B803EF
:1020F0007091B9038091BA039091BB036150704015
:10210000804090404BE254E02AE030E00E94B91D4C
:1021100084E061E04BE254E00E94B7058DED93E06E
:102120006FEB74E00E94B21D0E941B058091B80302
:102130009091B903A091BA03B091BB030097A10598
:10214000B105A1F684E00E94F9029E838D83C60149
:10215000B501A40122EA33E00E94300384E00E942A
:10216000851B8DED93E06DE974E00E94B21DAC011A
:1021700082E061E00E948F058DED93E06BE874E0F2
:102180000E94B21DAC0184E061E00E946A05DECECF
:1021900081E00E94750683E093E00E94740D81E067
:1021A0000E94750608950F931F93CF93DF9381E0EC
:1021B0000E947506CDEDD3E0CE0166E774E00E9483
:1021C000B21DAC0181E061E00E948F05CE016AE69C
:1021D00074E00E94B21DEC018BE294E06EE574E0C5
:1021E0000E94B21D8C018EE494E063E574E00E94CD
:1021F000B21DAC01CE01B80126E034E008E010E0E9
:102200000E940C0E81E00E947506DF91CF911F9114
:102210000F9108950F931F93CF93DF9381E00E9456
:102220007506CDEDD3E0CE016FE374E00E94B21DE0
:10223000AC0181E061E00E948F05CE0162E374E0B1
:102240000E94B21DEC018BE294E065E274E00E9412
:10225000B21D8C018EE494E06AE174E00E94B21D2C
:10226000AC01CE01B80127ED33E00EE010E00E9492
:102270000C0E81E00E947506DF91CF911F910F91A6
:1022800008950F931F93CF93DF9381E00E9475060B
:10229000CDEDD3E0CE0166E074E00E94B21DAC014A
:1022A00081E061E00E948F05CE016BEF73E00E9438
:1022B000B21DEC018BE294E060EF73E00E94B21D6E
:1022C0008C018EE494E065EE73E00E94B21DAC01D7
:1022D000CE01B80123E134E002E010E00E940C0ED0
:1022E00081E00E947506DF91CF911F910F910895B3
:1022F00081E00E9475068DED93E068EC73E00E942A
:10230000B21DAC0181E061E00E948F058CE094E099
:102310000E94D40B089581E00E9475068DED93E034
:102320006BEA73E00E94B21DAC0181E061E00E94A3
:102330008F058CE094E060E070E00E94870A0895C9
:1023400081E00E9475068DED93E064E873E00E94E1
:10235000B21DAC0181E061E00E948F0587E494E04A
:1023600060E370E00E94870A089581E00E9475068C
:102370008DED93E06DE573E00E94B21DAC0181E04C
:1023800061E00E948F0580E494E067E370E00E94C2
:10239000870A089581E00E9475068DED93E06EE353
:1023A00073E00E94B21DAC0181E061E00E948F05E4
:1023B00084E994E06CE470E00E94870A089581E06B
:1023C0000E9475068DED93E061E373E00E94B21DFB
:1023D000AC0181E061E00E948F0581E794E063E554
:1023E00070E00E94870A089581E00E9475068DEDD5
:1023F00093E064E273E00E94B21DAC0181E061E011
:102400000E948F0588E794E06AE570E00E94870AE1
:10241000089581E00E9475068DED93E067E173E019
:102420000E94B21DAC0181E061E00E948F058FE740
:1024300094E061E670E00E94870A089581E00E94BE
:1024400075068DED93E06AE073E00E94B21DAC0169
:1024500081E061E00E948F0586E894E068E670E024
:102460000E94870A089581E00E9475068DED93E031
:102470006DEF72E00E94B21DAC0181E061E00E944C
:102480008F058DE894E06FE670E00E94870A08955A
:10249000DF92EF92FF920F931F93CF93DF93F09011
:1024A000050381E00E94750681E061E04EE852E09C
:1024B0000E94B705CBE2D4E002EA12E0F5E0EF2E8D
:1024C00000D000D000D0EDB7FEB73196ADB7BEB7A3
:1024D0001296DC93CE9311971383028380910503A8
:1024E000992787FD9095958384830E94DE1D8DB783
:1024F0009EB706960FB6F8949EBF0FBE8DBF82E0C2
:1025000061E0AE010E946A0584E00E94851BD82E1E
:1025100084E00E94901B8D29F1F081E00E947506F5
:1025200081E061E04EE352E00E94B705F89486E74F
:1025300090E0609105030E940A2078948FEF99E65D
:10254000A8E181509040A040E1F700C0000081E088
:102550000E94750633C080E20E94851BD82E80E25F
:102560000E94901B8D2919F0F092050327C081E08D
:102570000E94851BD82E81E00E94901B8D2949F076
:1025800080910503853019F41092050399CF8F5F70
:1025900012C080E10E94851BD82E80E10E94901B12
:1025A0008D2909F4B1CF80910503882319F4E092B5
:1025B000050386CF81508093050382CFDF91CF91B1
:1025C0001F910F91FF90EF90DF90089581E00E949E
:1025D00075068DED93E063ED72E00E94B21DAC01D3
:1025E00081E061E00E948F0583E694E06EE370E095
:1025F0000E94870A089581E00E9475068DED93E0A0
:1026000068EA72E00E94B21DAC0181E061E00E94C4
:102610008F058AE694E065E470E00E94870A81E015
:102620000E94750608950E945D0FF89482EA93E077
:102630006AE170E046E150E00E940020789408953D
:1026400081E00E9475068DED93E064E772E00E94E0
:10265000B21DAC0181E061E00E948F058DED93E039
:1026600066E672E00E94B21DAC0182E061E00E9469
:102670008F058DED93E065E572E00E94B21DAC011F
:1026800083E061E00E948F058DED93E06DE472E0E0
:102690000E94B21DAC0184E061E00E948F058FEFC3
:1026A0000E94851B8823D9F381E00E947506089556
:1026B0000F931F93CF93DF9381E00E9475068DEDFA
:1026C00093E066E472E00E94B21DAC0181E061E03B
:1026D0000E948F05CBE2D4E08091190490911A04F6
:1026E000BE010E944509CE010E941B058DB79EB711
:1026F0000A970FB6F8949EBF0FBE8DBFEDB7FEB719
:102700003196ADB7BEB71296DC93CE93119709E11F
:1027100012E01383028380911F04848315828091C9
:102720001D048683178280911E04808711860E9473
:10273000DE1D8DB79EB70A960FB6F8949EBF0FBEEA
:102740008DBF81E06DE0AE010E948F058DED93E0BD
:102750006FE372E00E94B21DAC0182E061E00E9472
:102760008F0580911B0490911C04BE010E944509B5
:10277000CE010E941B05ADB7BEB71A970FB6F894ED
:10278000BEBF0FBEADBFEDB7FEB731961296DC935C
:10279000CE9311971383028380912604848315823C
:1027A0008091240486831782809125048087118676
:1027B0000E94DE1D8DB79EB70A960FB6F8949EBF95
:1027C0000FBE8DBF82E06DE0AE010E948F058DEDE2
:1027D00093E068E372E00E94B21DAC0183E061E027
:1027E0000E948F058091C5039091C603BE010E948F
:1027F000580ACE010E941B05ADB7BEB71A970FB697
:10280000F894BEBF0FBEADBFEDB7FEB731961296BE
:10281000DC93CE931197138302838091CB0384833F
:1028200015828091C903868317828091CA038087AD
:1028300011860E94DE1D8DB79EB70A960FB6F894DA
:102840009EBF0FBE8DBF83E06DE0AE010E948F057D
:102850008DED93E061E372E00E94B21DAC0184E073
:1028600061E00E948F058091C7039091C803BE016B
:102870000E94580ACE010E941B05ADB7BEB71A9739
:102880000FB6F894BEBF0FBEADBFEDB7FEB7319621
:102890001296DC93CE931197138302838091D20317
:1028A000848315828091D003868317828091D1031F
:1028B000808711860E94DE1D8DB79EB70A960FB6DF
:1028C000F8949EBF0FBE8DBF84E06DE0AE010E9404
:1028D0008F058FEF0E94851B8823D9F381E00E942A
:1028E0007506DF91CF911F910F910895FA01208114
:1028F0003181FB01408151814217530744F0FC01B3
:10290000808191812817390724F482E0089581E0BD
:10291000089580E008954F925F926F927F928F9218
:102920009F92AF92BF92CF92DF92EF92FF920F935E
:102930001F93CF93DF93EC015B012A016A8170E062
:1029400080E090E020E13EE040E050E00E94361D53
:102950007B018C01688170E080E090E02CE330E046
:1029600040E050E00E94361DE60EF71E081F191FBA
:102970008981E80EF11C011D111DF501628170E0D5
:1029800080E090E020E13EE040E050E00E94361D13
:102990003B014C01F501608170E080E090E02CE3A8
:1029A00030E040E050E00E94361D660E771E881E23
:1029B000991EF5018181680E711C811C911CF20128
:1029C000628170E080E090E020E13EE040E050E095
:1029D0000E94361D5B016C01F201608170E080E0B5
:1029E00090E02CE330E040E050E00E94361DA60E5F
:1029F000B71EC81ED91EF2018181A80EB11CC11CD0
:102A0000D11C6E147F048006910640F4EA14FB0486
:102A10000C051D05A8F481E090E01BC0E614F70446
:102A20000805190541F481E0EA14FB040C051D05B5
:102A300081F080E00EC0EA14FB040C051D0538F49B
:102A400081E090E0A614B704C804D90410F080E037
:102A500090E0DF91CF911F910F91FF90EF90DF9069
:102A6000CF90BF90AF909F908F907F906F905F902E
:102A70004F90089580910803909109032091D70306
:102A80003091D8032817390744F02091D9033091A9
:102A9000DA03821793075CF105C020919B04226042
:102AA00020939B04209113043091140428173907B4
:102AB00044F0209115043091160482179307DCF03E
:102AC00003C022E0209306032091080430910904FA
:102AD0002817390744F02091060430910704821723
:102AE00093075CF0089580919B048E7F09C020912C
:102AF0009B042D7FD5CF23E0E5CF80919B0481609F
:102B000080939B040895EF92FF920F931F93CF93AE
:102B1000DF93EC018091B8039091B903A091BA03BF
:102B2000B091BB030097A105B10541F56A8170E042
:102B300080E090E020E13EE040E050E00E94361D61
:102B40007B018C01688170E080E090E02CE330E054
:102B500040E050E00E94361DE60EF71E081F191FC8
:102B60008981E80EF11C011D111DE092B803F0925D
:102B7000B9030093BA031093BB0308C01092B803C3
:102B80001092B9031092BA031092BB03DF91CF9158
:102B90001F910F91FF90EF900895CF93DF9387E4FB
:102BA00094E060E474E04CE054E00E948B14909157
:102BB0009B04882311F0946001C09B7F90939B0439
:102BC00083E694E06AE674E04CE054E00E948B14E3
:102BD00090919B04882311F0986001C0977F909397
:102BE0009B04C0E0D0E01AC080919B0485FD15C015
:102BF000BE01A3E0660F771FAA95E1F76C1B7D0B62
:102C00006F587B4FCB014CE054E00E948B1488231B
:102C100021F084E994E00E948315219680910503B8
:102C2000992787FD9095C817D907F4F2DF91CF91C6
:102C30000895F89480E090E00E94F81F80930303C9
:102C400081E090E00E94F81F8093040382EA93E001
:102C50006AE170E046E150E00E94E81F87E494E0FA
:102C600060E370E047E050E00E94E81F80E494E0F9
:102C700067E370E047E050E00E94E81F83E694E0DD
:102C80006EE370E047E050E00E94E81F8AE694E0BF
:102C900065E470E047E050E00E94E81F83E194E0C3
:102CA00062E070E046E050E00E94E81F86E094E0B9
:102CB00068E070E046E050E00E94E81F87ED93E096
:102CC0006EE070E046E050E00E94E81F84E994E086
:102CD0006CE470E046E050E00E94E81F81E794E079
:102CE00063E570E043E250E00E94E81F86E790E071
:102CF0000E94F81F8093050378940895882311F0AB
:102D00008EE508958FE508950F931F93CF93DF937A
:102D1000CBE2D4E088E093E0BE010E944509CE01F9
:102D20000E94541C8DE00E943F1C80910E0390E095
:102D3000BE010E94580ACE010E94541C8DE00E94E0
:102D40003F1C8DB79EB70A970FB6F8949EBF0FBE73
:102D50008DBFEDB7FEB73196ADB7BEB71296DC9317
:102D6000CE93119789E192E09383828380910E0440
:102D7000848315820CE014E0D8018C91868317823D
:102D800011968C91808711860E94DE1D8DB79EB7AB
:102D90000A960FB6F8949EBF0FBE8DBFCE010E945B
:102DA000541C8DE00E943F1CADB7BEB71A970FB6FA
:102DB000F894BEBF0FBEADBFEDB7FEB73196129609
:102DC000DC93CE93119788E292E093838283D801BB
:102DD00013968C9113978483158215968C91159771
:102DE0008683178216968C91808711860E94DE1D3D
:102DF0008DB79EB70A960FB6F8949EBF0FBE8DBFD3
:102E0000CE010E94541C8DE00E943F1CDF91CF91A7
:102E10001F910F9108959FEF899FC001112464E6CF
:102E200070E00E94611D7093110360931003709312
:102E30008B0060938A00089580919B0484FF6CC08E
:102E4000479A80FF02C0129A01C0129880919B0499
:102E500081FF02C0119A01C0119880919B0482FFEA
:102E600002C0139A01C0139880919B0483FF03C092
:102E70008091040301C080E00E940B17809106033B
:102E8000882311F446985D9888E093E02091080328
:102E9000309109034091190450911A0442175307C5
:102EA0004CF040911B0450911C04241735070CF47E
:102EB00044C00DC090931A0480931904ADE1B4E0AE
:102EC000ECE0F4E087E001900D928150E1F7809111
:102ED0000E0390910F032091C5033091C60328176C
:102EE000390754F0E7ECF3E02091C7033091C803B1
:102EF0008217930784F119C080910E038093C50354
:102F00001092C603A9ECB3E0ECE0F4E087E0019096
:102F10000D928150E1F709C0479812981198139AC1
:102F200046985D9880E00E940B1780919B0485FF76
:102F300002C0109A08951098089590931C048093ED
:102F40001B04A4E2B4E0ECE0F4E087E001900D9211
:102F50008150E1F7BCCF80910E038093C7031182AB
:102F60003996ACE0B4E087E00D9001928150E1F732
:102F7000DCCF6F927F929F92AF92BF92CF92DF92FF
:102F8000EF92FF920F931F93DF93CF930F92CDB7E2
:102F9000DEB73C016B01DC01BC9083E061E048EAF4
:102FA00052E00E94B70591E00BE214E087EBE82EB7
:102FB00082E0F82EB4E6AB2E01C090E0F3018081F0
:102FC00099830E940B179981992309F100D000D0B1
:102FD00000D0EDB7FEB73196ADB7BEB712961C93D1
:102FE0000E931197F382E282D3018C918483158230
:102FF0000E94DE1DEDB7FEB736960FB6F894FEBF01
:103000000FBEEDBF83E06DE0A8010E946A0584E079
:103010000E94851B982E84E00E94901B892901F153
:1030200080E00E940B1781E00E94750681E061E05C
:103030004EE352E00E94B705F894C601D3016C91AB
:103040000E940A2078948FEF99E6A8E18150904081
:10305000A040E1F700C0000081E00E94750635C085
:1030600080E20E94851B982E80E20E94901B892995
:1030700031F0D301BC9280E00E940B1726C081E0A2
:103080000E94851B982E81E00E94901B892941F0A7
:10309000F3018081843611F4108215C08F5F11C056
:1030A00080E10E94851B982E80E10E94901B892957
:1030B00009F483CFF3018081882311F4A08203C037
:1030C0008150D3018C9391E079CF0F90CF91DF9114
:1030D0001F910F91FF90EF90DF90CF90BF90AF9036
:1030E0009F907F906F900895CF93DF9381E00E942F
:1030F0007506CDEDD3E0CE0163E972E00E94B21D0A
:10310000AC0181E061E00E94B705CE0168E872E0A1
:103110000E94B21DAC0182E061E00E94B70584E02C
:1031200093E061E070E00E94B91781E00E947506AB
:10313000DF91CF91089520910F0480910F038217A2
:1031400009F43CC088E093E090931A04809319043A
:1031500090931C0480931B04ADE1B4E0ECE0F4E038
:1031600087E001900D928150E1F7A4E2B4E0ECE039
:10317000F4E087E001900D928150E1F780910E0319
:103180008093C5031092C603A7ECB3E08093C703F6
:1031900011961C9211971296ECE0F4E087E00190F2
:1031A0000D928150E1F7A0EDB3E0ECE0F4E087E0B0
:1031B00001900D928150E1F720930F030895CF9372
:1031C000DF938CE00E9475068DB79EB70A970FB605
:1031D000F8949EBF0FBE8DBFEDB7FEB73196CBE220
:1031E000D4E0ADB7BEB71296DC93CE93119789E1C8
:1031F00092E09383828380910E0484831582809170
:103200000C048683178280910D04808711860E94AA
:10321000DE1D8DB79EB70A960FB6F8949EBF0FBEFF
:103220008DBF81E061E0AE010E94B70580E20E949F
:103230000D056091100483E0689FB001112466526F
:103240007E4F8DED93E00E94B21D0E941B0588E029
:1032500093E0BE010E94450982E061E04EEB52E03E
:103260000E94B705CE010E941B0582E06BE044EC92
:1032700052E00E94B7058091190490911A046EE4FF
:1032800074E00E9445098EE494E00E941B0583E0EF
:1032900061E04AEC52E00E94B70583E06BE04EEC3F
:1032A00052E00E948F0580911B0490911C046EE4F3
:1032B00074E00E9445098EE494E00E941B0584E0BE
:1032C00061E044ED52E00E94B70580B182FF02C088
:1032D0008EE501C08FE50E940D0587ED92E00E940A
:1032E0001B0580B181FF02C08EE501C08FE50E9401
:1032F0000D058BED92E00E941B0580B183FF02C09B
:103300008EE501C08FE50E940D058FED92E00E94D1
:103310001B0580919B0483FF02C08EE501C08FE5F1
:103320000E940D0584EE92E00E941B0580B180FF93
:1033300002C08EE501C08FE50E940D05DF91CF919F
:1033400008950F931F93CF93DF9304B603FE06C037
:1033500086E08093060384B7877F84BF88E10FB639
:10336000F89480936000109260000FBE0E942D09B7
:103370000E9419160E94A81B0E94B2060E94DB033D
:103380000E9485060E943D0980E190E00E940B1C8E
:1033900078948FEF93EDA0E381509040A040E1F747
:1033A00000C000002EE088E190E00FB6F894A895E8
:1033B000809360000FBE2093600080E90E94A00807
:1033C00020910303332727FD3095280F391F3093B1
:1033D0000903209308038CE094E00E94000482EA31
:1033E00093E00E94A90380930E032091080330917B
:1033F000090330931A042093190430931C0420937A
:103400001B048093C5031092C6038093C7031092D8
:10341000C80380919B0480618F7D80939B040E94F0
:10342000340785E00E948D0781E00E94750680E0E8
:1034300090E00E94AD068CE00E94750608E1C8E1AC
:10344000D0E01EE0A8950E94DF1884E00E94851B52
:10345000882309F44AC00FB6F894009360001092D4
:1034600060000FBE81E00E94750680E090E00E943F
:10347000AD060E94510881E00E94851B882311F04F
:1034800080E006C082E00E94851B882321F081E055
:103490000E948D07EECF84E00E94851B882311F0E7
:1034A00082E0F6CF88E00E94851B882311F083E03C
:1034B000EFCF80E10E94851B882311F084E0E8CFE4
:1034C00080E20E94851B8823A1F20FB6F894A8958C
:1034D000C09360000FBE1093600085E00E948D07CE
:1034E00081E00E9475061092120380E80E94851BFD
:1034F000882399F090919B04892F82958F708095F5
:1035000081708295807F9F7E982B90939B0480E0B2
:1035100090E00E94AD061092120380E40E94851B89
:10352000882351F084E994E00E94831580E090E0C4
:103530000E94AD061092120380E20E94851B882330
:1035400061F0809112038E3110F41092060380E036
:1035500090E00E94AD06109212038BE30E94851B3F
:10356000882331F080E090E00E94AD0610921203B3
:103570008091C3038823F9F01092C3038CE094E098
:103580000E9400040E94CD150E949B188091B803F0
:103590009091B903A091BA03B091BB0320919B0411
:1035A0000097A105B10511F0206201C02F7D209385
:1035B0009B040E941C178091BE03882309F442CF0C
:1035C0001092BE0380E90E94D6082091030333279E
:1035D00027FD3095280F391F3093090320930803E6
:1035E0000E943A150E948416809112038F3128F0B0
:1035F00081E090E00E94AD0625CF8F5F809312039B
:1036000021CF1F920F920FB60F9211242F938F93F9
:103610009F93AF93BF9384E686BD9091C40383B11B
:10362000809589279091170398239095909317037D
:103630002091160328232927209316038923822308
:103640009091C40398279093C4039091C203209152
:10365000C4032823292B2093C2038091C403882309
:1036600019F482E3809315038091150381508093B0
:103670001503882351F48AE0809315039091BF03CA
:103680008091C403892B8093BF03809114038F5FC3
:1036900080931403823379F51092140391E0909390
:1036A000C303809113038F5F80931303823019F556
:1036B000109213039093BE038091B8039091B903C5
:1036C000A091BA03B091BB030097A105B10599F091
:1036D0008091B8039091B903A091BA03B091BB0354
:1036E0000197A109B1098093B8039093B903A093FE
:1036F000BA03B093BB03BF91AF919F918F912F916C
:103700000F900FBE0F901F901895F8949091C203E0
:1037100089239091C20398279093C20378940895C7
:10372000F8949091BF0389239091BF0398279093B9
:10373000BF0378940895F8949091C40390958923D9
:103740000E94851B08950E94901B0E94851B08956E
:103750001092B8031092B9031092BA031092BB03EF
:1037600084B114B885B18FEF85B908951F920F9277
:103770000FB60F9211242F938F939F93EF93FF9384
:103780008091C0009091C600E0917F03EF5FEF71E0
:1037900020918003E21741F08871E0937F03F0E00D
:1037A000EF57FC4F908301C082E08093A103FF910B
:1037B000EF919F918F912F910F900FBE0F901F90BF
:1037C00018951F920F920FB60F9211248F939F930B
:1037D000EF93FF9390915D0380915E03981769F0DA
:1037E000E0915E03EF5FEF71E0935E03F0E0E15A7A
:1037F000FC4F80818093C60005C08091C1008F7D01
:103800008093C100FF91EF919F918F910F900FBE18
:103810000F901F90189510925D0310925E03109206
:103820007F031092800397FF04C022E02093C00022
:103830009F779093C5008093C40088E98093C1006E
:1038400086E08093C200089590917F038091800369
:10385000981789F0E0918003EF5FEF71E0938003A8
:10386000F0E0EF57FC4F80819091A103392F20E0C9
:10387000280F311D02C020E031E0C9010895909168
:103880005D039F5F9F7120915E039217E1F3E92F23
:10389000F0E0E15AFC4F808390935D038091C1007A
:1038A00080628093C1000895EF92FF92CF93DF93DF
:1038B000E82EE7017E01F92EE70102C00E943F1CBD
:1038C00089918823D9F7DF91CF91FF90EF900895E8
:1038D000CF93DF93EC0102C00E943F1CFE012196B2
:1038E00084918823C9F7DF91CF9108951F920F9299
:1038F0000FB60F9211242F938F939F93EF93FF9303
:103900008091C8009091CE00E0913A03EF5FEF7193
:1039100020913B03E21741F08871E0933A03F0E015
:10392000E45CFC4F908301C082E080935C03FF91D4
:10393000EF919F918F912F910F900FBE0F901F903D
:1039400018951F920F920FB60F9211248F939F9389
:10395000EF93FF939091180380911903981769F0E2
:10396000E0911903EF5FEF71E0931903F0E0E65E79
:10397000FC4F80818093CE0005C08091C9008F7D6F
:103980008093C900FF91EF919F918F910F900FBE8F
:103990000F901F901895109218031092190310920F
:1039A0003A0310923B0397FF04C022E02093C80023
:1039B0009F779093CD008093CC0088E98093C900D5
:1039C00086E08093CA00089590913A0380913B036A
:1039D000981789F0E0913B03EF5FEF71E0933B03B1
:1039E000F0E0E45CFC4F808190915C03392F20E093
:1039F000280F311D02C020E031E0C90108959091E7
:103A000018039F5F9F71209119039217E1F3E92F2B
:103A1000F0E0E65EFC4F8083909318038091C9002C
:103A200080628093C9000895EF92FF92CF93DF9355
:103A3000E82EE7017E01F92EE70102C00E94FF1C7B
:103A400089918823D9F7DF91CF91FF90EF90089566
:103A5000CF93DF93EC0102C00E94FF1CFE01219670
:103A600084918823C9F7DF91CF910895629FD00197
:103A7000739FF001829FE00DF11D649FE00DF11D29
:103A8000929FF00D839FF00D749FF00D659FF00DD8
:103A90009927729FB00DE11DF91F639FB00DE11DC5
:103AA000F91FBD01CF0111240895991B79E004C0CD
:103AB000991F961708F0961B881F7A95C9F780956D
:103AC0000895AA1BBB1B51E107C0AA1FBB1FA61765
:103AD000B70710F0A61BB70B881F991F5A95A9F7B7
:103AE00080959095BC01CD010895A1E21A2EAA1BE4
:103AF000BB1BFD010DC0AA1FBB1FEE1FFF1FA2179E
:103B0000B307E407F50720F0A21BB30BE40BF50B9A
:103B1000661F771F881F991F1A9469F76095709523
:103B2000809590959B01AC01BD01CF01089597FB55
:103B3000092E05260ED057FD04D0D7DF0AD0001C71
:103B400038F450954095309521953F4F4F4F5F4F3A
:103B50000895F6F790958095709561957F4F8F4FFA
:103B60009F4F0895FB01DC0105900D920020E1F7C5
:103B70000895FA01CF93FF93EF932230CCF02532D2
:103B8000BCF4C22F2C2F332744275527FF93EF93E4
:103B90000E94751DEF91FF91605D6A330CF0695DC5
:103BA0006193B901CA01605070408040904051F764
:103BB00010828F919F91CF910C942E20AEE0B0E0B7
:103BC000E4EEFDE10C94D6200D891E8986E08C83FD
:103BD0001A8309838FEF9FE79E838D839E01275E63
:103BE0003F4FCE0101966F89788DA9010E94011E79
:103BF000EF81F885E00FF11F10822E96E4E00C941F
:103C0000F220ACE0B0E0E7E0FEE10C94C8206C01EB
:103C10001B018A01FC0117821682838181FFD1C1B9
:103C20002E010894411C511CF6019381F10193FD72
:103C3000859193FF81911F01882309F4BEC18532CC
:103C400039F493FD859193FF81911F01853229F409
:103C500090E0B6010E943E20E7CFEE24FF2420E052
:103C60002032B0F48B3269F08C3228F4803251F07B
:103C7000833271F40BC08D3239F0803349F4216006
:103C80002CC02260246029C0286027C0206125C084
:103C900027FD2CC0382F30533A3098F426FF08C047
:103CA0008E2D880FE82EEE0CEE0CE80EE30E15C0FC
:103CB0008F2D880FF82EFF0CFF0CF80EF30E2062EC
:103CC0000CC08E3221F426FD78C1206406C08C36EB
:103CD00011F4206802C0883649F4F10193FD859102
:103CE00093FF81911F01882309F0BACF982F955433
:103CF000933018F09052933028F40C5F1F4FFFE37D
:103D0000F9830DC0833631F0833771F0833509F0C4
:103D100060C022C0F801808189830E5F1F4F42017D
:103D200071E0A72EB12C16C062E0662E712C600ED9
:103D3000711EF8018080918026FF03C06E2D70E017
:103D400002C06FEF7FEFC4012C870E9423205C012B
:103D500083012C852F7717C052E0652E712C600EE1
:103D6000711EF8018080918026FF03C06E2D70E0E7
:103D700002C06FEF7FEFC4012C870E9418205C0106
:103D80002C852068830123FD20C008C080E290E0DC
:103D9000B6012C870E943E20FA942C858F2D90E04E
:103DA000A816B90698F311C0F40127FD859127FFE5
:103DB00081914F0190E0B6012C870E943E202C8516
:103DC000F110FA940894A108B108A114B10461F7A4
:103DD000F1C0843611F0893649F527FF08C0F80193
:103DE00060817181828193810C5F1F4F09C0F8014E
:103DF00060817181882777FD8095982F0E5F1F4F16
:103E00004FE6B42EB22297FF09C090958095709529
:103E100061957F4F8F4F9F4FF0E8BF2AA2012AE0A4
:103E200030E00E946A20782E741845C0853731F43E
:103E30003FEEB32EB2222AE030E025C099EFB92E32
:103E4000B2228F36C1F0803720F4883509F0B5C032
:103E50000DC0803721F0883709F0AFC002C020E1E3
:103E6000B22AB4FE0BC084E0B82A08C0B4FE09C070
:103E7000E6E0BE2A06C028E030E005C020E130E0E0
:103E800002C020E132E0B7FE08C0F8016081718114
:103E9000828193810C5F1F4F07C0F801608171819F
:103EA00080E090E00E5F1F4FA2010E946A20782EF2
:103EB0007418FFE7BF22B6FE0BC02EEFB2227E14AD
:103EC00038F4B4FE07C0B2FC05C08FEEB82202C0C1
:103ED000A72C01C0AE2C8B2D90E0B4FE0DC0FE01CE
:103EE000E70DF11D2081203319F4E9EEBE2209C04F
:103EF000A394B2FE06C004C086789070009709F0C3
:103F0000A3948B2C9924B3FC14C0B0FE0FC0AF1443
:103F100028F4E72CEF0CEA18AF2C08C0E72C06C0F9
:103F200080E290E0B6010E943E20A394AF14C0F35B
:103F300004C0AF1410F4FA1801C0FF2484FE0FC0AF
:103F400080E390E0B6010E943E2082FE1FC081FE09
:103F500003C088E590E010C088E790E00DC0C40180
:103F600086789070009791F081FC02C080E201C0D9
:103F70008BE2B7FC8DE290E0B6010E943E2006C0C5
:103F800080E390E0B6010E943E20EA947E14C0F3E4
:103F90007A94F201E70DF11D808190E0B6010E9454
:103FA0003E207720A9F706C080E290E0B6010E948B
:103FB0003E20FA94FF20C1F737CEF60126813781E3
:103FC00002C02FEF3FEFC9012C96E2E10C94E420F0
:103FD000DC01CB01FC01F999FECF06C0F2BDE1BDC9
:103FE000F89A319600B40D9241505040B8F70895B8
:103FF000F999FECF92BD81BDF89A992780B50895B1
:10400000DC01CB0103C02D910E940B204150504098
:10401000D0F70895262FF999FECF1FBA92BD81BD22
:1040200020BD0FB6F894FA9AF99A0FBE019608953A
:10403000FC010590615070400110D8F78095909573
:104040008E0F9F1F0895FC01615070400190011078
:10405000D8F7809590958E0F9F1F0895DC01FC0185
:10406000672F71917723E1F7329704C07C916D93AC
:1040700070836291AE17BF07C8F308950F931F9323
:10408000CF93DF938C01EB018B8181FF1BC082FFFB
:104090000DC02E813F818C819D812817390764F4E2
:1040A000E881F9810193F983E88306C0E885F98501
:1040B000802F0995009731F48E819F8101969F830F
:1040C0008E8302C00FEF1FEFC801DF91CF911F91C8
:1040D0000F910895FA01AA27283051F1203181F17A
:1040E000E8946F936E7F6E5F7F4F8F4F9F4FAF4F00
:1040F000B1E03ED0B4E03CD0670F781F891F9A1F13
:10410000A11D680F791F8A1F911DA11D6A0F711DC6
:10411000811D911DA11D20D009F468943F912AE0D2
:10412000269F11243019305D3193DEF6CF010895BA
:10413000462F4770405D4193B3E00FD0C9F7F6CFEB
:10414000462F4F70405D4A3318F0495D31FD4052B3
:10415000419302D0A9F7EACFB4E0A6959795879549
:1041600077956795BA95C9F7009761057105089528
:104170009B01AC010A2E06945795479537952795D4
:10418000BA95C9F7620F731F841F951FA01D08956C
:104190002F923F924F925F926F927F928F929F9257
:1041A000AF92BF92CF92DF92EF92FF920F931F9345
:1041B000CF93DF93CDB7DEB7CA1BDB0B0FB6F894F6
:1041C000DEBF0FBECDBF09942A88398848885F8436
:1041D0006E847D848C849B84AA84B984C884DF80A7
:1041E000EE80FD800C811B81AA81B981CE0FD11D8B
:1041F0000FB6F894DEBF0FBECDBFED010895F89461
:02420000FFCFEE
:1042020001000A010400000000CF00C8100B0104E5
:1042120000000000DF00D3100C010400000000EADF
:10422200000A110D010400000000F6004111140102
:10423200020000000001018B1115010200000000C4
:10424200110178111E0105000000002201A0111FBA
:104252000105000000003001B51120010500000039
:10426200003E01E612210105000000004901FB1297
:104272002201050000000054017418280107000003
:1042820000006601CA1129010700000000780148F8
:10429200122A0107000000008A01DF112B0107002A
:1042A2000000009A01F4112C010700000000AA018D
:1042B20009122D010700000000BA011E122E01078B
:1042C20000000000CA013312000006020100007C57
:1042D2000000000100062E0100008900000002001B
:1042E2000644010000970000000300067B01000065
:1042F200A500000004010600000000B300581305E9
:10430200010600000000C10020132D25692E256939
:10431200430025692E25694300253032643A253051
:1043220032643A2530326400253032642E25303230
:10433200642E253032640025752E257520005370B9
:104342006569636865726520446174656E0020006A
:1043520054656D70657261747572204F666673651F
:10436200743A004C4D37363A20202020202020007D
:104372004B6F72722E2E2054656D703A20004F667C
:10438200667365743A202020202000202000416EB0
:104392007A61686C20526567656E7A656974656ECC
:1043A2003A0025303175250048656C6C69676B658C
:1043B20069743A2020200025303375252500546584
:1043C2006D703A00204D61783A0048793A00204DEC
:1043D200696E3A00483A00204B3A00204C3A0020DD
:0843E2004D4C3A0020503A0056
:00000001FF
