:100000000C94BF020C94E4020C94E4020C94E402FD
:100010000C94E4020C94E4020C94E4020C94E402C8
:100020000C94E4020C94E4020C94E4020C94E402B8
:100030000C94E4020C94E4020C94E4020C94E402A8
:100040000C94E4020C94E4020C9484160C94E402E4
:100050000C94E4020C94E4020C94E4020C94E40288
:100060000C94E4020C94E4020C94E4020C94E40278
:100070000C94E4020C94E4020C94E402342D31203C
:100080007048206B616C69622E00332D37204D4C17
:100090002048656C6C69676B65697400332D362088
:1000A0004D4C2061757300332D35204D4C20656912
:1000B0006E00332D34204C616D70652061757320A6
:1000C000504D00332D33204C616D70652065696E95
:1000D00020504D00332D32204C616D7065206175CC
:1000E0007320414D00332D31204C616D70652065CA
:1000F000696E20414D00322D33204675747465724F
:1001000073746F707000322D3220446174756D20ED
:1001100065696E73742E00322D31205A6569742022
:1001200065696E73742E00312D3420416C61726DDF
:100130002000312D33204C75656674657200312DB9
:1001400032204865697A657200312D312054656D21
:1001500070204F666673657400362041626F757457
:1001600020202020202000352054616765737765AA
:100170007274652000342050482D57657274202019
:1001800020200033204C6963687420202020202028
:100190000032205A65697420202020202020003160
:1001A0002054656D706572617475720070484D6998
:1001B0006E3A0070484D61783A00542D4D696E3AA0
:1001C00000542D4D61783A0053573A56312E320083
:1001D0004857204D3A56312E3020463A56312E306F
:1001E0000053746566616E204B656C6C65720075BA
:1001F0005175617269756D204469706C6F6D6172C3
:10020000622E00616E70617373656E3A20004D6FEF
:100210006E646C696368742048656C6C69676B65B3
:100220006974005A6569742045696E7374656C6CF5
:10023000756E67656E20204D6F6E646C69636874BF
:1002400020617573736368616C74656E3A005A65FA
:1002500069742045696E7374656C6C756E67656E44
:1002600020204D6F6E646C696368742065696E73DD
:1002700074656C6C656E3A004675747465722053D3
:10028000746F7070204461756572202065696E67B7
:100290006562656E3A005A65697420504D20456963
:1002A0006E7374656C6C2E2020204C616D7065201F
:1002B000617573736368616C74656E3A005A656941
:1002C0007420504D2045696E7374656C6C2E20202F
:1002D000204C616D70652065696E736368616C7434
:1002E000656E3A005A65697420414D2045696E7308
:1002F00074656C6C2E2020204C616D7065206175DA
:1003000073736368616C74656E3A005A6569742032
:10031000414D2045696E7374656C6C2E2020204C15
:10032000616D70652065696E736368616C74656E7C
:100330003A00416B7475656C6C65205568727A651E
:1003400069742020202065696E676562656E0041D2
:100350006B7475656C6C657320446174756D2020D9
:1003600020202065696E676562656E0054656D705A
:100370002E204D61783A0054656D702E204D696EC7
:100380003A004879737465726573653A0054656D17
:1003900070657261747572204D696E2F4D61783A87
:1003A000004C7565667465722065696E3A004C751F
:1003B0006566746572206175733A00487973746577
:1003C000726573653A004C7565667465722065697F
:1003D0006E7374656C6C756E67004865697A6572DA
:1003E0002065696E3A004865697A657220617573A7
:1003F0003A004879737465726573653A00486569B7
:100400007A65722045696E7374656C6C756E67658C
:100410006E004553432064727565636B656E2020E2
:10042000202020004B616C696272696572756E678D
:100430002020202020202020616267657363686C83
:100440006F7373656E00732077617274656E202D13
:100450003E204F4B202000536F6E646520696E2054
:100460007048392E302020202020204C6F65737575
:100470006E67207461756368656E007320776172C2
:1004800074656E202D3E204F4B202000536F6E640C
:100490006520696E207048372E30202020202020D3
:1004A0004C6F6573756E67207461756368656E0067
:1004B000732077617274656E202D3E204F4B202093
:1004C00000536F6E646520696E207048342E3020B2
:1004D00020202020204C6F6573756E672074617535
:1004E0006368656E20202020202000455343206B48
:1004F000616C69622E2061626272656368656E007C
:100500004F4B206B616C69622E207374617274654D
:100510006E00704820536F6E6465206B616C696279
:1005200072696572656E00416C6C6573204F4B009B
:1005300049324320455252210054656D70202B2BC7
:10054000210054656D70202D2D21007048202B2B2B
:10055000210000007048202D2D2100000057445438
:100560002045525221002020004D6F004469004D6B
:100570006900446F00467200536100536F001124FC
:100580001FBECFEFD0E1DEBFCDBFECEAF3E08AEAD9
:1005900091E18193E030F907E0F312E0A0E0B1E0EF
:1005A000E2E5F6E302C005900D92AE39B107D9F746
:1005B00023E0AEE9B2E001C01D92AC3AB207E1F728
:1005C0000E9410150C94271B0C940000EAE7F0E041
:1005D000808187608083ECE7F0E0808180830895EC
:1005E00090917A00906890937A0090917C00892B8A
:1005F00080937C0080917A00806480937A0080915F
:100600007A0086FDFCCF809178009091790020E1FE
:1006100080E090E030917A00306430937A0030913D
:100620007A0036FDFCCF4091780050917900840F1C
:10063000951F215079F720917A002F7720937A0027
:1006400024E0969587952A95E1F708954F925F9259
:100650006F927F928F929F92AF92BF92CF92DF92D2
:10066000EF92FF920F931F93CF93DF938C016B0157
:100670007A01E901FB01A080B180FA01208131817A
:100680002A193B0940E050E060E27EE480E090E01F
:100690000E9467172E873F87488B598BD5010E9490
:1006A000BE1720E7422E21E1522E66246394712C5E
:1006B000A3019201261B370B480B590B2A8B3B8B4E
:1006C0004C8B5D8BF801008111819501201B310B52
:1006D00040E050E060E375E780E090E00E9467173B
:1006E0002E833F8348875987D8010E94BE1730E484
:1006F000832E3CE9932EA12CB12CA5019401261B3D
:10070000370B480B590B2A873B874C875D8719832A
:100710000883F601808191819B838A83F701808120
:1007200091819D838C83DF91CF911F910F91FF90D9
:10073000EF90DF90CF90BF90AF909F908F907F9081
:100740006F905F904F9008950F931F93CF93DF9317
:10075000EC0184E00E94F0026A817B819C0140E010
:1007600050E08617970758F46E817F8188859985B8
:100770000E9437170A851B852C853D850AC06E852A
:100780007F85888999890E9437170A891B892C8956
:100790003D89600F711F821F931F2AE030E040E007
:1007A00050E00E946717C901DF91CF911F910F910F
:1007B0000895CF9380ED0E943906882339F00E9476
:1007C000840681E08093BF02CF91089580E00E946B
:1007D0008C0681ED0E9482060E94A706C82F0E9407
:1007E000840680ED0E94390680E00E948C068C2FE2
:1007F0008F770E948C06CF910C948406CF92DF9263
:10080000EF92FF920F931F93CF93DF93EC0180ED54
:100810000E943906882331F00E94840681E080938B
:10082000BF0257C080E00E948C0681ED0E948206C4
:100830000E949D06D82E0E949D06E82E0E949D06CD
:10084000F82E0E949D06C82E0E949D06082F0E9429
:100850009D06182F0E94A7069D2D92959F702D2D05
:100860002F70D22E3AE0939FD00C1124D9829E2D66
:1008700092959F702E2D2F70E22E3AE0939FE00C00
:100880001124E8829F2D92959F702F2D2F70F22EAC
:100890003AE0939FF00C1124FA82902F92959F706A
:1008A0000F702AE0929F000D11240B83CC82912FB0
:1008B00092959F701F703AE0939F100D11241D8335
:1008C000982F92959F708F702AE0929F800D11242F
:1008D0008E83DF91CF911F910F91FF90EF90DF906A
:1008E000CF9008950F931F93CF938C0180ED0E94BA
:1008F0003906882349F00E94840681E08093BF0274
:10090000CF911F910F91089580E00E948C06F8010D
:100910008181CAE06C2F0E944717292FF0E18F9F39
:10092000C0011124822B0E948C06F80180816C2F5B
:100930000E944717292FF0E18F9FC0011124822BBD
:100940000E948C06F80182816C2F0E944717292F84
:10095000F0E18F9FC0011124822B0E948C06CF9161
:100960001F910F910C9484061F93CF93DF93EC019A
:1009700080ED0E943906882349F00E94840681E0B8
:100980008093BF02DF91CF911F91089583E00E9471
:100990008C068C810E948C068B811AE0612F0E944C
:1009A0004717292F30E1839FC0011124822B0E9419
:1009B0008C068D81612F0E944717292F30E1839F7C
:1009C000C0011124822B0E948C068E81612F0E940F
:1009D0004717292F30E1839FC0011124822B0E94E9
:1009E0008C06DF91CF911F910C948406CF93C82F72
:1009F00080E70E945B068091000190910101892BA4
:100A000019F08C2F806402C08C2F8F7B0E948C0683
:100A1000CF910C948406CF93C82FC0688C2F0E946E
:100A2000F6048C2F0E94F60480E0CF910C94F6041B
:100A3000CF93C82F82958F7080610E940B058C2FF9
:100A40008F708061CF910C940B05CF93BC018EE920
:100A500092E00E94C917C0E0EC2FF0E0E256FD4F93
:100A60008081882329F080810E941805CF5FF4CF10
:100A7000CF9108950F931F93CF938C01C0E0F8019D
:100A8000EC0FF11D8081882321F00E941805CF5FB3
:100A9000F6CFCF911F910F910895CF939FEF980FAD
:100AA0009430F8F49FEF960F9431D8F4833041F0EE
:100AB000843041F0823011F0CFE705C0CFEB03C0A6
:100AC000C3E901C0C3EDC60F8C2F82958F7080687B
:100AD0000E940B058C2F8F7080680E940B0581E0AF
:100AE00001C080E0CF910895CF93DF93D42F0E946F
:100AF0004D05C82F882319F08D2F0E9418058C2FC3
:100B0000DF91CF910895FF920F931F93CF93DF93BF
:100B1000F82EC62F8A01D0E0F801ED0FF11D4081BB
:100B2000442361F06C2F8F2D0E947405882339F0C7
:100B3000CF5FC53108F0C1E0DF5FEECF81E0DF912C
:100B4000CF911F910F91FF900895EF92FF921F9305
:100B5000CF93DF93C82FD62F7A0110E0F701E10F72
:100B6000F11D4081442381F06D2F8C2F0E9474056C
:100B7000882359F0DF5FD53110F0CF5FD1E0C53069
:100B800008F0C1E01F5FEACF81E0DF91CF911F91B4
:100B9000FF90EF9008950F931F93CF938A010E94C7
:100BA0004D05C82F882319F0C8010E943A058C2FE3
:100BB000CF911F910F910895AC0120E030E085E0C6
:100BC0002417350731F0982F9A95F1F72F5F3F4F93
:100BD000F7CF089520E030E040EA5FE028173907BA
:100BE00031F0FA013197F1F72F5F3F4FF7CF0895BA
:100BF000CF93C82F82958F700E940B058C2F8F701A
:100C00000E940B0581E090E0CF910C94EA0580E111
:100C100090E00E94EA0583E00E940B0585E090E0E9
:100C20000E94EA0583E00E940B0585E690E00E94A1
:100C3000DC0583E00E940B0582E00E940B0588E240
:100C40000E94F80588E00E94F80581E00E94F805FE
:100C500086E00E94F8058CE00C94F8059093010161
:100C60008093000108951092B90088E48093B80041
:100C7000089594EA9093BC009091BC0097FFFCCF3C
:100C80009091B900987F983021F0903111F081E077
:100C900008958093BB0084E88093BC008091BC00E1
:100CA00087FFFCCF8091B900887F883111F08034B4
:100CB00071F780E0089524EA34E844E92093BC0009
:100CC0009091BC0097FFFCCF9091B900987F98302D
:100CD00011F0903199F78093BB003093BC00909154
:100CE000BC0097FFFCCF9091B900987F903211F033
:100CF000983539F44093BC009091BC0094FDFCCF32
:100D0000DDCF08950C94390684E98093BC0080916E
:100D1000BC0084FDFCCF08958093BB0084E88093E1
:100D2000BC008091BC0087FFFCCF9091B900987FF8
:100D300081E0983209F480E0089584EC8093BC004F
:100D40008091BC0087FFFCCF8091BB00089584E8B0
:100D50008093BC008091BC0087FFFCCF8091BB00DA
:100D60000895EDEBF1E082E091E096838583918B2D
:100D7000808B948F838F97A386A3ECE9F1E0968311
:100D80008583918B808B948F838FEFE4F1E0968342
:100D90008583918B808B948F838F97A386A392AB4F
:100DA00081AB90934A01809349019093E60280932E
:100DB000E5021092B202E3EBF2E01082118212829D
:100DC00013820895E091E502F091E602928182306B
:100DD000E9F130F4882359F0813009F469C00895AD
:100DE0008430E9F098F1853009F462C00895E0910B
:100DF000B202F0E0ED54FD4F8081E091B202F0E0EC
:100E0000811105C08FEF890FED54FD4F04C0ED54E3
:100E1000FD4F80818150808381E00C94F805E09142
:100E2000B202F0E0ED54FD4F208130E0892F90E0D8
:100E30000197E091B202F0E0ED54FD4F2817390719
:100E400011F41082E9CF80818F5FE5CFA091B202CB
:100E5000B0E0AD54BD4F8C91DF019BE0899FA00DA8
:100E6000B11D112411968C91A091B202B0E0AD5445
:100E7000BD4F811112C08C919BE0899FE00DF11D47
:100E80001124838194819093E6028093E5028091FE
:100E9000B2028F5F8093B202BFCF8C919BE0899F9B
:100EA000E00DF11D11240184F285E02D0995B4CFE8
:100EB00082E091E09093E6028093E50281E00E9457
:100EC000F8051092B2021092B3021092B40210927E
:100ED000B5021092B60208951F93CF93DF9361E09D
:100EE00081E00E944D05E091B202F0E0ED54FD4F2B
:100EF0001081C12FD1E061E08D2F0E944D051C13A0
:100F000002C0D13041F5E091B202F0E0ED54FD4F66
:100F100080818C1303C08EE30E94180562E08D2F40
:100F20000E944D05E091E502F091E6028BE0C89F3A
:100F3000E00DF11D1124878190850E942505CF5F6A
:100F4000E091E502F091E6028281C81708F0C0E066
:100F5000DF5FD53081F6DF91CF911F910895CF9358
:100F6000DF93C82F0E943906882341F00E9484062F
:100F700081E08093BF0280E090E01BC080E00E948F
:100F80008C0681E08C0F0E9482060E949D06C82F6D
:100F90000E94A706D82F0E9484068C2FCC0F990B95
:100FA000982F88278D0F911D33E0959587953A9559
:100FB000E1F7DF91CF910895DF92EF92FF920F93C7
:100FC0001F93CF93DF93CDB7DEB728970FB6F89472
:100FD000DEBF0FBECDBFD82E8E010F5F1F4F7E012B
:100FE00089E0E80EF11C8D2D0E94AF07F801819376
:100FF00091938F01EE15FF05B1F789819A816B817D
:101000007C8121E08617970709F420E04D815E81FD
:101010006417750709F021E06F81788564177507FB
:1010200021F4211102C0009741F481E08093BF02B6
:101030008091B7029091B80204C09093B802809357
:10104000B70228960FB6F894DEBF0FBECDBFDF9172
:10105000CF911F910F91FF90EF90DF90089585B58C
:10106000856085BDEEE6F0E080818160808381E26D
:101070008093800083E080938100789408958FE0CE
:1010800081B980E38AB987B1806C87B90895EF92FE
:10109000FF920F931F93CF93DF93162F072F21E714
:1010A00032E0DC010E94B71720E137E240E050E077
:1010B0000E948917F22EE32EC22FD32F28EE33E0A1
:1010C00040E050E00E94891737FF2FC031952195ED
:1010D0003109CD2BA9F43F932F931F921F9289EED4
:1010E00091E09F938F930F931F930E94FD178DB7ED
:1010F0009EB708960FB6F8949EBF0FBE8DBF29C04D
:101100003F932F93EF92FF928AEE91E09F938F93FC
:101110000F931F930E94FD178DB79EB708960FB6C9
:10112000F8949EBF0FBE8DBF14C03F932F93EF92D4
:10113000FF928AEE91E09F938F930F931F930E94EB
:10114000FD178DB79EB708960FB6F8949EBF0FBED9
:101150008DBFDF91CF911F910F91FF90EF90089578
:101160009B01C29668EE73E00E945317462FE72F4B
:1011700064E670E00E9453177F936F93EF934F9351
:101180008FE092E09F938F933F932F930E94FD17E0
:101190008DB79EB708960FB6F8949EBF0FBE8DBF51
:1011A00008958F929F92AF92BF92CF92DF92EF926B
:1011B000FF920F931F93CF93DF93EC017B0110E01D
:1011C00001E08BE3982E97E1892E21EFC22E21E0DA
:1011D000D22E3EE5A32E33E0B32E8FE00E94F80519
:1011E000612F660F610F6E5F83E00E944D0588E0FE
:1011F0000E942217882329F0123009F4E3C01F5FF0
:101200003BC082E00E942217882321F01123B9F10C
:10121000115032C080E20E940C178111C4C084E0DA
:101220000E940C17882341F18CE00E94F80581E0B0
:101230000E94F805E114F10449F0F89447E050E009
:10124000B701CE010E94D81A789403C0CE010E9443
:10125000720446E152E061E081E00E9483052FEFD5
:1012600089E698E1215080409040E1F700C00000FD
:1012700081E00E94F80597C0002311F104C000230B
:1012800009F469C012E089811F928F9388811F92AF
:101290008F938A811F928F93DF92CF92BF92AF92EA
:1012A0000E94FD174EE553E061E083E00E94CB050C
:1012B0008DB79EB70A960FB6F8949EBF0FBE8DBF2E
:1012C000113041F1123009F446C081E00E940C1740
:1012D000182F81E00E941717812B39F08A818731FE
:1012E00011F41A8215C08F5F12C080E10E940C17A2
:1012F000182F80E10E941717812B19F410E000E0ED
:101300006CCF8A81811102C08A8202C081508A8397
:1013100010E047C081E00E940C17082F81E00E9476
:101320001717802B39F088818B3311F4188239C05C
:101330008F5F0FC080E10E940C17082F80E10E9490
:101340001717802BE1F28881811102C0988229C091
:101350008150888326C081E00E940C17182F81E0FD
:101360000E941717812B49F089818B3311F4198260
:1013700002C08F5F898301E001C000E080E10E942C
:101380000C17182F80E10E941717812B11F412E01F
:1013900024CF8981811102C0998202C08150898342
:1013A00012E001E01ACF81E0DF91CF911F910F9100
:1013B000FF90EF90DF90CF90BF90AF909F908F9075
:1013C0000C94F805002309F480CF10E05CCF7F92E5
:1013D0008F929F92AF92BF92CF92DF92EF92FF9245
:1013E0000F931F93CF93DF93EC018FE00E94F805DA
:1013F00000E011E030E0E32E32E0F32E4EE5C42EA3
:1014000043E0D42E5CE0B52E63E6A62E7FE1972E56
:10141000E7E08E2E602F660F600F6E5F83E00E9404
:101420004D0588E00E942217882321F0033089F1BE
:101430000F5F32C082E00E942217882321F0002330
:1014400051F1015029C080E20E940C178111F2C0B5
:1014500084E00E940C178823F9F08CE00E94F805C4
:1014600081E00E94F805CE010E94B40446E152E0FA
:1014700061E081E00E9483052FEF89E698E1215029
:1014800080409040E1F700C0000081E00E94F80534
:10149000D1C000E001C003E01123B1F16C8170E024
:1014A000CB01880F991F680F791F6A597A4F82E024
:1014B00093E00E94C9170E943A0542E053E061E0C0
:1014C00083E00E94CB0584E492E00E943A058E817D
:1014D0001F928F938D811F928F938B811F928F9379
:1014E000FF92EF92DF92CF920E94FD174EE553E0FC
:1014F00064E083E00E94CB058DB79EB70A960FB6D5
:10150000F8949EBF0FBE8DBF81E0023009F449C040
:10151000033009F46AC0013021F10E940C17182F22
:1015200081E00E941717812B39F08C81873011F4EC
:1015300081E014C08F5F12C080E10E940C17182F49
:1015400080E10E941717812B19F400E010E062CFB0
:101550008C81813011F48C8202C081508C8300E038
:1015600067C00E940C17182F81E00E941717812B6B
:1015700039F08B818F3111F40B835AC08F5F0FC00C
:1015800080E10E940C17182F80E10E941717812B11
:10159000E9F28B81813011F49B824AC081508B83A8
:1015A00047C00E940C17182F81E00E941717812B4B
:1015B00049F08D818C3011F481E001C08F5F8D8303
:1015C00011E001C010E080E10E940C17782E80E14C
:1015D0000E941717872909F41DCF8D81813011F4DE
:1015E000BD8226C081508D8323C00E940C17182F06
:1015F00081E00E941717812B49F08E81833611F408
:101600001E8202C08F5F8E8311E001C010E080E176
:101610000E940C17782E80E10E941717872909F481
:10162000F9CE8E81811102C0AE8202C081508E83BC
:1016300011E0F0CE81E0DF91CF911F910F91FF90EB
:10164000EF90DF90CF90BF90AF909F908F907F9062
:101650000C94F805FF920F931F93CF93DF93EC0147
:10166000F88046E252E061E081E00E94830580E973
:101670000E94AF078C016EE573E00E94470849E3C2
:1016800052E061E082E00E9483058EE593E00E94D3
:101690003A0546E452E061E083E00E9483058881D8
:1016A0006EE573E09801280F311D87FD3A95C90159
:1016B0000E9447088EE593E00E943A0588816EE516
:1016C00073E0082E000C990B0E94470844E552E095
:1016D00061E084E00E9483058EE593E00E943A0574
:1016E00083E492E00E943A0581E00E940C17182FD3
:1016F00081E00E941717812B19F088818E5F888303
:1017000080E10E940C17182F80E10E941717812B8F
:1017100019F088818250888384E00E940C17182F6A
:1017200084E00E941717812B09F181E00E94F805DF
:1017300046E152E061E081E00E948305F89468810F
:101740008EE690E00E94E21A78943FEF89E698E1F5
:10175000315080409040E1F700C0000081E0DF910F
:10176000CF911F910F91FF900C94F80580E20E9499
:101770000C17182F80E20E941717812B09F477CFDE
:10178000F882DF91CF911F910F91FF9008956F9292
:101790007F928F929F92AF92BF92CF92DF92EF9201
:1017A000FF920F931F93CF93DF93CDB7DEB72D97A3
:1017B0000FB6F894DEBF0FBECDBF3C014B016A01EE
:1017C0007901580196E0F901DE01189601900D9219
:1017D0009A95E1F71982A30161E082E00E948305F6
:1017E000A40161E083E00E948305A60161E084E03A
:1017F0000E94830512E001E088E5C82E82E0D82E21
:1018000061E1812F0E944D058FE00E94F80588E07C
:101810000E942217882321F0133009F042C0E4C04F
:1018200082E00E942217882321F0123009F0DCC0E8
:1018300038C084E00E940C17882309F18CE00E94D4
:10184000F80581E00E94F80546E152E061E081E0A0
:101850000E948305F89446E050E0B501C7010E945C
:10186000D81A78942FEF49E658E121504040504073
:10187000E1F700C0000081E00E94F805BAC080E2F4
:101880000E940C17882349F086E0FE013896D701A4
:1018900001900D928A95E1F7ACC0002309F442C093
:1018A00004C0002309F461C013E0BE016F5F7F4FE5
:1018B000F701808191810E944708AE014F5F5F4F21
:1018C0006EE082E00E948305BE016F5F7F4FF701EB
:1018D000828193810E944708AE014F5F5F4F6EE0A7
:1018E00083E00E948305F701808191812281338109
:1018F000BE016F5F7F4F821793071CF0821B930B13
:1019000004C0A901481B590BCA010E944708AE0137
:101910004F5F5F4F6EE084E00E94830584E492E0B5
:101920000E943A05133009F181E00E940C17182F2C
:1019300081E00E941717812B69F0F7018081918166
:101940008835F2E09F0721F4F701118210822EC042
:10195000029629C080E10E940C17182F80E10E9496
:101960001717812BB9F412E013C081E00E940C1705
:10197000182F81E00E941717812BD1F480E10E947B
:101980000C17182F80E10E941717812BF1F413E038
:1019900000E036CFF70180819181009719F4D18260
:1019A000C08204C00297F7019183808312E01AC0BD
:1019B000F701828193818835F2E09F0721F4F701D6
:1019C000138212820EC0029609C0F70182819381B0
:1019D000009719F4D382C28204C00297F70193835F
:1019E000828313E001E00CCF002309F49DCF12E0C5
:1019F0005CCF2D960FB6F894DEBF0FBECDBFDF9142
:101A0000CF911F910F91FF90EF90DF90CF90BF90FB
:101A1000AF909F908F907F906F900895CF92DF92BC
:101A2000EF92FF921F93CF93DF9300D000D000D0AE
:101A3000CDB7DEB781E00E94F80562E175E082E093
:101A400093E00E94C917AC0161E081E00E94830528
:101A500060E075E082E093E00E94C917AC0161E0AC
:101A600082E00E9483056BEE74E082E093E00E94C6
:101A7000C917AC0161E083E00E94830584EBC82EA6
:101A8000D12CE12CF12C80E20E940C17882389F0E4
:101A900081E00E94F80526960FB6F894DEBF0FBECF
:101AA000CDBFDF91CF911F91FF90EF90DF90CF904E
:101AB000089584E00E940C17182F84E00E941717E5
:101AC000812B09F3C092DD02D092DE02E092DF02A8
:101AD000F092E00261EC74E082E093E00E94C917AA
:101AE000AC0161E082E00E94A5058091DD02909149
:101AF000DE02A091DF02B091E002BC01CD01615095
:101B00007109810991092AE030E04EE553E00E9415
:101B1000D0174EE553E061E084E00E94830560EB5E
:101B200074E082E093E00E94C9170E943A05809118
:101B3000DD029091DE02A091DF02B091E002892BDC
:101B40008A2B8B2B91F684E00E94F0029E838D837A
:101B500084E00E940C1784E00E940C178823D9F3BC
:101B6000C092DD02D092DE02E092DF02F092E0024B
:101B70006CE874E082E093E00E94C917AC0161E078
:101B800082E00E94A5058091DD029091DE02A09185
:101B9000DF02B091E002BC01CD0161507109810901
:101BA00091092AE030E04EE553E00E94D0174EE55F
:101BB00053E061E084E00E9483056BE774E082E01B
:101BC00093E00E94C9170E943A058091DD0290912E
:101BD000DE02A091DF02B091E002892B8A2B8B2BD1
:101BE00091F684E00E94F0029C838B8384E00E9443
:101BF0000C1784E00E940C178823D9F3C092DD02F1
:101C0000D092DE02E092DF02F092E00267E574E03B
:101C100082E093E00E94C917AC0161E082E00E947B
:101C2000A5058091DD029091DE02A091DF02B091C6
:101C3000E002BC01CD0161507109810991092AE0DE
:101C400030E04EE553E00E94D0174EE553E061E0EE
:101C500084E00E94830566E474E082E093E00E94E1
:101C6000C9170E943A058091DD029091DE02A09191
:101C7000DF02B091E002892B8A2B8B2B91F684E056
:101C80000E94F0029A83898327EC32E0AE014F5F15
:101C90005F4FBE016D5F7F4FCE0105960E94260308
:101CA00084E00E940C1764E274E082E093E00E94FA
:101CB000C917AC0161E082E00E94A50562E174E011
:101CC00082E093E00E94C917AC0161E084E00E94C9
:101CD000CB05D9CE81E00E94F80581EC92E00E940C
:101CE0002A0B81E00C94F805EF92FF920F931F935B
:101CF000CF93DF9381E00E94F8056DEF73E082E0FF
:101D000093E00E94C917AC0161E081E00E94A50543
:101D100062EF73E081E893E00E94C9177C0166EEF0
:101D200073E08EE593E00E94C917EC016AED73E061
:101D300082E093E00E94C91701E610E02BE233E055
:101D4000A701BE010E94C70B81E0DF91CF911F91D7
:101D50000F91FF90EF900C94F805EF92FF920F9384
:101D60001F93CF93DF9381E00E94F80566EC73E048
:101D700082E093E00E94C917AC0161E081E00E941B
:101D8000A5056BEB73E081E893E00E94C9177C0125
:101D90006EEA73E08EE593E00E94C917EC0161EAF8
:101DA00073E082E093E00E94C9170BE510E02CEF8E
:101DB00032E0A701BE010E94C70B81E0DF91CF9105
:101DC0001F910F91FF90EF900C94F805EF92FF9206
:101DD0000F931F93CF93DF9381E00E94F8056DE886
:101DE00073E082E093E00E94C917AC0161E081E0FA
:101DF0000E94A50562E873E081E893E00E94C9179C
:101E00007C0167E773E08EE593E00E94C917EC015F
:101E10006CE673E082E093E00E94C91707E610E0E9
:101E20002FE333E0A701BE010E94C70B81E0DF91E1
:101E3000CF911F910F91FF90EF900C94F80581E0E6
:101E40000E94F8056FE473E082E093E00E94C917F6
:101E5000AC0161E081E00E94A50588E393E00C9469
:101E6000E70981E00E94F80562E373E082E093E015
:101E70000E94C917AC0161E081E00E94A50560E005
:101E800070E088E393E00C94D10881E00E94F805AB
:101E90006BE073E082E093E00E94C917AC0161E05F
:101EA00081E00E94A50568E370E083E793E00C946D
:101EB000D10881E00E94F80564EE72E082E093E0D0
:101EC0000E94C917AC0161E081E00E94A50561E3B1
:101ED00070E087E593E00C94D10881E00E94F8055A
:101EE0006DEB72E082E093E00E94C917AC0161E003
:101EF00081E00E94A5056EE070E084EA93E00C9416
:101F0000D10881E00E94F80566E972E082E093E082
:101F10000E94C917AC0161E081E00E94A50567E05D
:101F200070E081E393E00C94D10881E00E94F80511
:101F300068E772E082E093E00E94C917AC0161E0BB
:101F400081E00E94A5056CE170E08AE793E00C94C3
:101F5000D10881E00E94F8056EE472E082E093E02F
:101F60000E94C917AC0161E081E00E94A5056AE208
:101F700070E086E993E00C94D10881E00E94F805B6
:101F800063E272E082E093E00E94C917AC0161E075
:101F900081E00E94A50563E270E08DE993E00E9474
:101FA000D10881E00C94F8050E940E0DF89446E1EA
:101FB00050E06FE370E087EC92E00E94D81A7894CA
:101FC000089581E00E94F8056FEE71E082E093E0F1
:101FD0000E94C917AC0161E081E00E94A50561EE95
:101FE00071E082E093E00E94C917AC0161E082E0F9
:101FF0000E94A50560ED71E082E093E00E94C917A0
:10200000AC0161E083E00E94A50568EC71E082E02C
:1020100093E00E94C917AC0161E084E00E94A5052D
:102020008FEF0E940C178823D9F381E00C94F805F8
:102030000F931F93CF93DF9381E00E94F80561EC2B
:1020400071E082E093E00E94C917AC0161E081E099
:102050000E94A5056EE573E08091450390914603CB
:102060000E9447088EE593E00E943A0580914A035A
:102070001F928F93809149031F928F9380914B03FE
:102080001F928F9301EF11E01F930F93CEE5D3E0E2
:10209000DF93CF930E94FD17AE016DE081E00E94B7
:1020A000A5056AEB71E082E093E00E94C917AC01DC
:1020B00061E082E00E94A505BE01809147039091F6
:1020C00048030E944708CE010E943A0580915103BF
:1020D0001F928F93809150031F928F938091520390
:1020E0001F928F931F930F93DF93CF930E94FD173F
:1020F000AE016DE082E00E94A50563EB71E082E035
:1021000093E00E94C917AC0161E083E00E94A5053D
:10211000BE018091EA029091EB020E94B008CE01CC
:102120000E943A058091EF021F928F938091EE02F8
:102130001F928F938091F0021F928F931F930F93A2
:10214000DF93CF930E94FD17AE016DE083E00E9404
:10215000A5056CEA71E082E093E00E94C917AC012A
:1021600061E084E00E94A505BE018091EC0290919F
:10217000ED020E94B008CE010E943A058091F6025D
:102180001F928F938091F5021F928F938091F70297
:102190001F928F931F930F93DF93CF930E94FD178E
:1021A0008DB79EB788960FB6F8949EBF0FBE8DBFB1
:1021B000AE016DE084E00E94A5058FEF0E940C1730
:1021C0008823D9F381E0DF91CF911F910F910C9477
:1021D000F805FA0120813181FB01408151814217CC
:1021E000530744F0FC01808191812817390724F0BE
:1021F00080E0089581E0089582E008954F925F9213
:102200006F927F928F929F92AF92BF92CF92DF9206
:10221000EF92FF92CF93DF937C01EB01FA01DC0197
:102220004C9112962C9130E0A0E1BEE00E94A817DC
:102230004B015C01242F30E0ACE3B0E00E94A81712
:10224000860E971EA81EB91ED70111968C91880E76
:10225000911CA11CB11C48812A8130E0A0E1BEE0A4
:102260000E94A8176B017C01242F30E0ACE3B0E0A2
:102270000E94A817C60ED71EE81EF91E8981C80E37
:10228000D11CE11CF11C4081228130E0A0E1BEE0C4
:102290000E94A8172B013C01242F30E0ACE3B0E0F2
:1022A0000E94A817AB01BC01440D551D661D771D8A
:1022B0008181480F511D611D711DC814D904EA04A4
:1022C000FB0438F481E084169506A606B70638F4B8
:1022D0000CC084169506A606B70630F481E04C15AE
:1022E0005D056E057F0508F080E0DF91CF91FF90DE
:1022F000EF90DF90CF90BF90AF909F908F907F90A6
:102300006F905F904F900895CF9348E353E067E557
:1023100073E083E793E00E94FE10C091AB0381114C
:102320000AC048E353E061E373E084EA93E00E946B
:10233000FE10882311F0C46001C0CB7FC093AB03B3
:1023400048E353E06DE973E086E993E00E94FE10F4
:102350009091AB03882311F0986001C0977F909310
:10236000AB03CF9108954DEB52E06CEF72E08EEF2E
:1023700092E00E94E910813031F0823049F480917E
:10238000AB038D7F03C08091AB0382608093AB036E
:102390004DEB52E06FE373E081E493E00E94E910BB
:1023A000813021F0823029F483E001C082E0809303
:1023B000BF024DEB52E06DE273E08BE293E00E94CE
:1023C000E910813019F0823029F008958091AB0333
:1023D0008E7F03C08091AB0381608093AB0308952F
:1023E000CF92DF92EF92FF92FC018091DD029091FB
:1023F000DE02A091DF02B091E002892B8A2B8B2BA9
:1024000019F54081228130E0A0E1BEE00E94A817CA
:102410006B017C01242F30E0ACE3B0E00E94A817F0
:10242000DC01CB018C0D9D1DAE1DBF1D2181820FD6
:10243000911DA11DB11D8093DD029093DE02A0933A
:10244000DF02B093E00208C01092DD021092DE02BB
:102450001092DF021092E002FF90EF90DF90CF9099
:102460000895F8948EE690E00E94D01A8093C102FD
:102470008DE690E00E94D01A8093C00246E150E0C1
:102480006FE370E087EC92E00E94C01A47E050E0F2
:1024900068E370E083E793E00E94C01A47E050E0F1
:1024A00061E370E087E593E00E94C01A47E050E0E6
:1024B0006EE070E084EA93E00E94C01A47E050E0CA
:1024C00067E070E081E393E00E94C01A47E050E0CB
:1024D0006AE270E086E993E00E94C01A47E050E0AB
:1024E00063E270E08DE993E00E94C01A46E050E09C
:1024F00067E670E08FE393E00E94C01A46E050E088
:1025000061E670E08BE293E00E94C01A46E050E082
:102510006BE570E08CEF92E00E94C01A46E050E05C
:102520006CE170E08AE793E00E94C01A7894089505
:102530002FEF829FC001112464E670E00E945317C0
:1025400070938B0060938A0008959F92AF92BF9220
:10255000CF92DF92EF92FF920F931F93CF93DF936F
:10256000EC015B01088141E652E061E083E00E94FA
:10257000830511E080E7E82E82E0F82E9EE5C92E63
:1025800093E0D92E24E6922E88810E94981211237E
:10259000A9F088811F928F93FF92EF92DF92CF92E2
:1025A0000E94FD174EE553E06DE083E00E94CB05ED
:1025B0000F900F900F900F900F900F9084E00E945B
:1025C0000C17182F84E00E941717812B51F11092DD
:1025D0008B0010928A0081E00E94F80546E152E0EB
:1025E00061E081E00E948305F8946881C5010E9442
:1025F000E21A78942FEF89E698E1215080409040CC
:10260000E1F700C0000081E0DF91CF911F910F91B1
:10261000FF90EF90DF90CF90BF90AF909F900C9481
:10262000F80580E20E940C17182F80E20E9417170D
:10263000812B89F0088310928B0010928A00DF9121
:10264000CF911F910F91FF90EF90DF90CF90BF90AF
:10265000AF909F90089581E00E940C17182F81E0A1
:102660000E941717812B39F08881843611F4188263
:1026700014C08F5F11C080E10E940C17182F80E1F9
:102680000E941717812B11F410E07ECF88818111F1
:1026900002C0988202C08150888311E075CF81E02A
:1026A0000E94F8056EE072E082E093E00E94C91794
:1026B000AC0161E081E00E94830563E072E082E0AA
:1026C00093E00E94C917AC0161E082E00E9483059B
:1026D0006DE670E080EC92E00E94A51281E00C941F
:1026E000F8058091AB0384FF88C0479A8091AB03C3
:1026F00080FF02C0129A01C012988091AB0381FF43
:1027000002C0119A01C011988091AB0382FF02C0F0
:10271000139A01C013988091AB0383FF05C0809189
:10272000C0020E94981204C010928B0010928A007E
:102730008091BF02882341F08091AB038064809335
:10274000AB035D98469A02C046985D984DEB52E007
:1027500065E473E087E493E00E94E910813081F042
:102760008230F9F48091BD029091BE0290934803AB
:102770008093470387E0E8E3F3E0A0E5B3E00DC012
:102780008091BD029091BE029093460380934503D1
:1027900087E0E8E3F3E0A9E4B3E001900D928A95C5
:1027A000E1F74BEB52E06AEE72E08CEE92E00E94B1
:1027B000E910813081F0823051F58091BB02909117
:1027C000BC029093ED028093EC0287E0E8E3F3E033
:1027D000A5EFB2E00DC08091BB029091BC02909336
:1027E000EB028093EA0287E0E8E3F3E0AEEEB2E0CA
:1027F00001900D928A95E1F70AC0479812981198B6
:10280000139A46985D9810928B0010928A008091DE
:10281000AB0385FF02C0109A089510980895809127
:102820003B039091B9028917F1F12091BD023091DB
:10283000BE02309346032093450330934803209310
:10284000470397E0E8E3F3E0A9E4B3E001900D92D9
:102850009A95E1F797E0E8E3F3E0A0E5B3E00190B3
:102860000D929A95E1F72091BB023091BC02309312
:10287000EB022093EA023093ED022093EC0297E002
:10288000E8E3F3E0AEEEB2E001900D929A95E1F745
:1028900097E0E8E3F3E0A5EFB2E001900D929A959E
:1028A000E1F78093B90208958CE00E94F8058091C9
:1028B00039031F928F93809138031F928F938091D9
:1028C0003A031F928F9381EF91E09F938F938EE550
:1028D00093E09F938F930E94FD174EE553E061E0D4
:1028E00081E00E94830580E20E94180560913C030C
:1028F00070E0CB01880F991F680F791F6A597A4FD2
:1029000082E093E00E94C9170E943A056EE573E0E9
:102910008091BD029091BE020E94470847E752E0B5
:1029200061E082E00E9483058EE593E00E943A0513
:102930004DE752E06BE082E00E94830561E873E0BE
:1029400080914503909146030E94470881E893E0F7
:102950000E943A0543E852E06BE083E00E94A5053F
:1029600061E873E080914703909148030E94470813
:1029700081E893E00E943A0549E852E061E084E092
:102980000E9483058DB79EB70A960FB6F8949EBF36
:102990000FBE8DBF029902C08FE501C08EE50E9477
:1029A00018058CE892E00E943A05019902C08FE573
:1029B00001C08EE50E94180580E992E00E943A0568
:1029C000039902C08FE501C08EE50E94180584E9D5
:1029D00092E00E943A058091AB0383FD02C08FE52F
:1029E00001C08EE50E94180589E992E00E943A052F
:1029F000009902C08FE501C08EE50E941805609124
:102A0000BF0299E0699FB0011124695D7A4F82E0AD
:102A100093E00E94C917AC016DE081E00C9483053E
:102A200004B603FE06C086E08093BF0284B7877FAA
:102A300084BF0FB6F894A895809160008861809358
:102A40006000109260000FBE0E942F080E94311299
:102A50000E9429170E9433060E94D9030E9407068C
:102A60000E943F080E94E60278942FEF83ED90E3E6
:102A7000215080409040E1F700C000009EE088E1D6
:102A80000FB6F894A895809360000FBE90936000F5
:102A900080E90E94AF072091C102820F911D27FD9E
:102AA0009A959093BE028093BD0288E393E00E94C2
:102AB000FE0387EC92E00E94A4039093BC028093F3
:102AC000BB022091BD023091BE0230934603209399
:102AD000450330934803209347039093EB02809380
:102AE000EA029093ED028093EC028091AB03806147
:102AF00080628093AB030E94B10685E00E94E206EB
:102B000081E00E94F80580E090E00E942E068CE0B3
:102B10000E94F805C8E1DEE0A8950E94541484E004
:102B20000E940C17882309F44EC00FB6F894A8959C
:102B300080916000886180936000109260000FBEF9
:102B400081E00E94F80580E090E00E942E060E943D
:102B50006C0781E00E940C17882311F080E006C00A
:102B600082E00E940C17882321F081E00E94E20697
:102B7000EECF84E00E940C17882311F082E0F6CF9C
:102B800088E00E940C17882311F083E0EFCF80E1EA
:102B90000E940C17882311F084E0E8CF80E20E94A5
:102BA0000C178823A1F20FB6F894A895C093600083
:102BB0000FBED093600085E00E94E20681E00E9493
:102BC000F8051092BA0280E80E940C17882389F059
:102BD0008091AB0384FB222720F991E0922790FBA0
:102BE00084F98093AB0380E090E00E942E0610925F
:102BF000BA0280E40E940C17882351F08AE793E020
:102C00000E94F01180E090E00E942E061092BA021D
:102C100080E20E940C178823F1F08091BF02882384
:102C200039F08091AB0386FD03C080648093AB03D1
:102C30008091AB0386FF09C08F7B8093AB038091AB
:102C4000BA028E3110F41092BF0280E090E00E9430
:102C50002E061092BA028BE30E940C17882331F0E3
:102C600080E090E00E942E061092BA028091E80265
:102C70008823F9F01092E80288E393E00E94FE03B3
:102C80000E9484110E940F144091DD025091DE02D7
:102C90006091DF027091E0028091AB03452B462BDF
:102CA000472B11F08F7D01C080628093AB030E949F
:102CB00071138091E302882309F42ECF1092E3026E
:102CC00080E90E94DC072091C102820F911D27FD3F
:102CD0009A959093BE028093BD0287EC92E00E9489
:102CE000A4039093BC028093BB020E94B311809115
:102CF000BA028F3128F081E090E00E942E060CCFBE
:102D00008F5F8093BA0208CF1F920F920FB60F9277
:102D100011242F938F939F93AF93BF9384E686BD27
:102D200083B19091E9028095282F29279091C602BE
:102D30009223892F80958093C6029091C502922399
:102D400098279093C502822389239091E9029827BE
:102D50009093E9022091E9029091E7028223892B66
:102D60008093E7028091E902811103C082E380939E
:102D7000C4028091C402815019F08093C4020AC039
:102D80008AE08093C4029091E9028091E402892B49
:102D90008093E4028091C3028F5F823319F08093A5
:102DA000C30230C01092C30291E09093E802809178
:102DB000C2028F5F823019F08093C20223C010924A
:102DC000C2029093E3028091DD029091DE02A09115
:102DD000DF02B091E002892B8A2B8B2B99F0809136
:102DE000DD029091DE02A091DF02B091E002019736
:102DF000A109B1098093DD029093DE02A093DF0266
:102E0000B093E002BF91AF919F918F912F910F905E
:102E10000FBE0F901F901895F8949091E7028923A8
:102E20009091E70298279093E70278940895F89498
:102E30009091E40289239091E40298279093E40210
:102E400078940895F8949091E902909589230C94D0
:102E50000C171092DD021092DE021092DF02109227
:102E6000E00284B114B885B18FEF85B90895DB0114
:102E70008F939F930E94BE17BF91AF91A29F800D29
:102E8000911DA39F900DB29F900D11240895991B41
:102E900079E004C0991F961708F0961B881F7A9551
:102EA000C9F780950895AA1BBB1B51E107C0AA1F53
:102EB000BB1FA617B70710F0A61BB70B881F991FDB
:102EC0005A95A9F780959095BC01CD010895A1E28E
:102ED0001A2EAA1BBB1BFD010DC0AA1FBB1FEE1F94
:102EE000FF1FA217B307E407F50720F0A21BB30BDF
:102EF000E40BF50B661F771F881F991F1A9469F75B
:102F000060957095809590959B01AC01BD01CF01B6
:102F10000895052E97FB1EF400940E94A01757FDFC
:102F200007D00E94671707FC03D04EF40C94A0173B
:102F300050954095309521953F4F4F4F5F4F0895E5
:102F400090958095709561957F4F8F4F9F4F089515
:102F5000A29FB001B39FC001A39F700D811D1124DA
:102F6000911DB29F700D811D1124911D08950E9425
:102F7000A817B7FF0895821B930B08950E94A81706
:102F8000A59F900DB49F900DA49F800D911D1124BD
:102F90000895FB01DC0105900D920020E1F70895F2
:102FA0002532310520F4223010F00C94DB17FA01A1
:102FB0001082CA010895BB27FA01A62F6217710576
:102FC00081059105330B30FB66F0AA27660F771F4A
:102FD000881F991FAA1FA21710F0A21B63953850D3
:102FE000A9F7A05DAA3308F0A95DA19336F7B11146
:102FF000B1931082CA010C94161AAEE0B0E0E3E07F
:10300000F8E10C94FE1A0D891E8986E08C831A83E0
:1030100009838FEF9FE79E838D83AE01475E5F4FED
:103020006F89788DCE0101960E941F18EF81F88577
:10303000E00FF11F10822E96E4E00C941A1BABE017
:10304000B0E0E5E2F8E10C94F01A6C017B018A0132
:10305000FC0117821682838181FFCCC1CE010196CB
:103060003C01F6019381F70193FD859193FF8191D6
:103070007F01882309F4BAC1853239F493FD859123
:1030800093FF81917F01853229F4B60190E00E947F
:10309000261AE7CF912C212C312CFFE1F315D8F023
:1030A0008B3279F038F4803279F08332A1F4232D19
:1030B00020611DC08D3261F0803369F4232D2160C1
:1030C00016C0832D8260382EE32DE4603E2E2AC088
:1030D000F32DF8601DC037FC2DC020ED280F2A30DD
:1030E00040F08E32B9F436FC81C1232D2064322E9B
:1030F00019C036FE06C08AE0989E200D1124922E3B
:1031000011C0EAE02E9E200D1124222EF32DF06234
:103110003F2E08C08C3621F4832D8068382E02C0E3
:10312000883641F4F70193FD859193FF81917F01EA
:103130008111B3CF982F9F7D9554933028F40C5F65
:103140001F4F9FE399830DC0833631F0833771F0B1
:10315000833509F059C021C0F801808189830E5F51
:103160001F4F88248394912C530113C02801F2E04F
:103170004F0E511CF801A080B18036FE03C0692DAE
:1031800070E002C06FEF7FEFC5010E940B1A4C0187
:103190008201F32DFF773F2E16C0280122E0420E58
:1031A000511CF801A080B18036FE03C0692D70E08B
:1031B00002C06FEF7FEFC5010E94001A4C01F32D92
:1031C000F0683F2E820133FC1BC0822D90E08816F0
:1031D0009906B0F4B60180E290E00E94261A2A9483
:1031E000F4CFF50137FC859137FE81915F01B6017F
:1031F00090E00E94261A21102A9421E0821A910858
:103200008114910471F7E8C0843611F0893641F5D4
:10321000F80137FE07C060817181828193810C5F64
:103220001F4F08C060817181072E000C880B990B1D
:103230000E5F1F4FF32DFF763F2E97FF09C090952D
:103240008095709561957F4F8F4F9F4FF0683F2E0F
:103250002AE030E0A3010E94621A882E861845C039
:10326000853731F4232D2F7EB22E2AE030E025C0A1
:10327000932D997FB92E8F36C1F018F4883579F0E7
:10328000B5C0803719F0883721F0B0C0E92FE06170
:10329000BE2EB4FE0DC0FB2DF460BF2E09C034FE5F
:1032A0000AC0292F2660B22E06C028E030E005C0F3
:1032B00020E130E002C020E132E0F801B7FE07C0B3
:1032C00060817181828193810C5F1F4F06C0608194
:1032D000718180E090E00E5F1F4FA3010E94621A8F
:1032E000882E8618FB2DFF773F2E36FE0DC0232D2E
:1032F0002E7FA22E891458F434FE0BC032FC09C074
:10330000832D8E7EA82E05C0B82CA32C03C0B82C0C
:1033100001C0B92CA4FE0FC0FE01E80DF11D808193
:10332000803321F49A2D997EA92E09C0A2FE06C0F1
:10333000B394B39404C08A2D867809F0B394A3FCA7
:1033400011C0A0FE06C0B21488F4280C922C9B1861
:103350000EC0B21460F4B60180E290E00E94261A1A
:10336000B394F7CFB21418F42B1802C0982C212C68
:10337000A4FE10C0B60180E390E00E94261AA2FECF
:1033800017C0A1FC03C088E790E002C088E590E088
:10339000B6010CC08A2D867859F0A1FE02C08BE2DE
:1033A00001C080E2A7FC8DE2B60190E00E94261ADF
:1033B000891438F4B60180E390E00E94261A9A94AA
:1033C000F7CF8A94F301E80DF11D8081B60190E0FA
:1033D0000E94261A8110F5CF222009F442CEB601B0
:1033E00080E290E00E94261A2A94F6CFF6018681A8
:1033F000978102C08FEF9FEF2B96E2E10C940C1B9C
:10340000FC010590615070400110D8F780959095AF
:103410008E0F9F1F0895FC016150704001900110B4
:10342000D8F7809590958E0F9F1F0895DC01FC01C1
:10343000672F71917723E1F7329704C07C916D93E8
:1034400070836291AE17BF07C8F308950F931F935F
:10345000CF93DF93FB01238121FD03C08FEF9FEF0B
:103460002CC022FF16C04681578124813581421726
:10347000530744F4A081B1819D012F5F3F4F3183F9
:1034800020838C93268137812F5F3F4F378326839C
:1034900014C08B01EC01FB010084F185E02D09953E
:1034A000892BE1F6D80116968D919C91179701967C
:1034B00017969C938E931697CE01DF91CF911F9113
:1034C0000F910895FA01AA27283051F1203181F196
:1034D000E8946F936E7F6E5F7F4F8F4F9F4FAF4F1C
:1034E000B1E03ED0B4E03CD0670F781F891F9A1F2F
:1034F000A11D680F791F8A1F911DA11D6A0F711DE3
:10350000811D911DA11D20D009F468943F912AE0EE
:10351000269F11243019305D3193DEF6CF010895D6
:10352000462F4770405D4193B3E00FD0C9F7F6CF07
:10353000462F4F70405D4A3318F0495D31FD4052CF
:10354000419302D0A9F7EACFB4E0A6959795879565
:1035500077956795BA95C9F7009761057105089544
:103560009B01AC010A2E06945795479537952795F0
:10357000BA95C9F7620F731F841F951FA01D089588
:10358000DC01CB01FC01F999FECF06C0F2BDE1BD23
:10359000F89A319600B40D9241505040B8F7089512
:1035A000F999FECF92BD81BDF89A992780B508950B
:1035B000DC01CB0103C02D910E94E31A4150504021
:1035C000D0F70895262FF999FECF1FBA92BD81BD7D
:1035D00020BD0FB6F894FA9AF99A0FBE0196089595
:1035E0002F923F924F925F926F927F928F929F9213
:1035F000AF92BF92CF92DF92EF92FF920F931F9301
:10360000CF93DF93CDB7DEB7CA1BDB0B0FB6F894B1
:10361000DEBF0FBECDBF09942A88398848885F84F1
:103620006E847D848C849B84AA84B984C884DF8062
:10363000EE80FD800C811B81AA81B981CE0FD11D46
:103640000FB6F894DEBF0FBECDBFED010895F8941C
:02365000FFCFAA
:103652000100000006BD0100009F010000010006FC
:103662009C010000910100000200064F010000834E
:10367200010000030006440100007501000004017E
:103682000600000000670118100501060000000096
:103692005901E10F280101000000007C00D40F1E37
:1036A200010700000000E500450F1F0107000000B0
:1036B20000D400590F20010700000000C3006D0F65
:1036C20021010700000000B200810F220107000063
:1036D2000000A700A90F230107000000009C00BD05
:1036E2000F240107000000008A004F131401030099
:1036F2000000001701310F15010300000000060150
:103702001F0F16010300000000F600950F0A0104C6
:103712000000000049016A0E0B0104000000003E97
:1037220001740E0C0104000000003201AD0E0D0107
:1037320004000000002701E60E2D25692E256943AD
:1037420000253032643A253032643A253032640042
:10375200253032642E253032642E25303264002525
:10376200752E257520005370656963686572652042
:10377200446174656E0054656D7065726174757232
:10378200204F66667365743A004C4D37363A2020F6
:103792002020202020004B6F72722E2E2054656D47
:1037A200703A20004F66667365743A20202020200C
:1037B2000048656C6C69676B6569743A202020006B
:1037C2002530337525250054656D703A00204D6112
:1037D200783A00204D696E3A00483A00204B3A0090
:0E37E200204C3A00204D4C3A0020503A000096
:00000001FF
