:100000000C9428030C944D030C944D030C944D0355
:100010000C944D030C944D030C944D030C944D0320
:100020000C944D030C944D030C944D030C944D0310
:100030000C944D030C944D030C944D030C944D0300
:100040000C944D030C944D030C943C170C944D03ED
:100050000C944D030C944D030C944D030C944D03E0
:100060000C944D030C944D030C944D030C944D03D0
:100070000C944D030C944D030C944D03342D3120FE
:100080007048206B616C69622E00332D3131204D38
:100090004C2048656C6C69676B65697400332D3161
:1000A00030204D4C2061757300332D39204D4C208C
:1000B00065696E00332D38204F757420617573208B
:1000C000504D00332D37204F75742065696E2050D8
:1000D0004D00332D36204F75742061757320414DCE
:1000E00000332D35204F75742065696E20414D0019
:1000F000332D34204C616D70652061757320504D37
:1001000000332D33204C616D70652065696E205081
:100110004D00332D32204C616D7065206175732068
:10012000414D00332D31204C616D70652065696E45
:1001300020414D00322D33204675747465727374FE
:100140006F707000322D3220446174756D206569C6
:100150006E73742E00322D31205A656974206569E2
:100160006E73742E00312D3420416C61726D20004D
:10017000312D33204C75656674657200312D322047
:100180004865697A657200312D312054656D7020A3
:100190004F666673657400362041626F7574202067
:1001A00020202020003520546167657377657274C4
:1001B000652000342050482D57657274202020207F
:1001C0000033204C696368742020202020200032F6
:1001D000205A6569742020202020202000312054DE
:1001E000656D706572617475720070484D696E3A24
:1001F0000070484D61783A00542D4D696E3A0054B4
:100200002D4D61783A0053573A56312E32004857F7
:10021000204D3A56312E3020463A56312E3000537A
:10022000746566616E204B656C6C65720075517506
:10023000617269756D204469706C6F6D6172622EB8
:1002400000616E70617373656E3A20004D6F6E646D
:100250006C696368742048656C6C69676B65697468
:10026000005A6569742045696E7374656C6C756EAF
:1002700067656E20204D6F6E646C696368742061E1
:100280007573736368616C74656E3A005A6569745E
:100290002045696E7374656C6C756E67656E2020A1
:1002A0004D6F6E646C696368742065696E73746504
:1002B0006C6C656E3A004675747465722053746F89
:1002C0007070204461756572202065696E67656293
:1002D000656E3A005A65697420504D2045696E7309
:1002E00074656C6C2E2020204F75742061757373BB
:1002F0006368616C74656E3A005A65697420504D8C
:100300002045696E7374656C6C2E2020204F7574C7
:100310002065696E736368616C74656E3A005A6536
:10032000697420414D2045696E7374656C6C2E2094
:1003300020204F757420617573736368616C7465F8
:100340006E3A005A65697420414D2045696E737498
:10035000656C6C2E2020204F75742065696E736368
:1003600068616C74656E3A005A65697420504D205E
:1003700045696E7374656C6C2E2020204C616D7025
:100380006520617573736368616C74656E3A005AB9
:1003900065697420504D2045696E7374656C6C2ED0
:1003A0002020204C616D70652065696E7363686103
:1003B0006C74656E3A005A65697420414D20456938
:1003C0006E7374656C6C2E2020204C616D706520FE
:1003D000617573736368616C74656E3A005A656920
:1003E0007420414D2045696E7374656C6C2E20201D
:1003F000204C616D70652065696E736368616C7413
:10040000656E3A00416B7475656C6C652055687259
:100410007A6569742020202065696E676562656E63
:1004200000416B7475656C6C657320446174756D07
:10043000202020202065696E676562656E00546526
:100440006D702E204D61783A0054656D702E204DF0
:10045000696E3A004879737465726573653A005441
:10046000656D70657261747572204D696E2F4D6196
:10047000783A004C7565667465722065696E3A005D
:100480004C756566746572206175733A00487973BE
:100490007465726573653A004C75656674657220A3
:1004A00065696E7374656C6C756E67004865697A12
:1004B00065722065696E3A004865697A65722061E7
:1004C00075733A004879737465726573653A0048CC
:1004D00065697A65722045696E7374656C6C756EBA
:1004E00067656E004553432064727565636B656E86
:1004F0002020202020004B616C6962726965727552
:100500006E672020202020202020616267657363B1
:10051000686C6F7373656E00732077617274656EBB
:10052000202D3E204F4B202000536F6E64652069C4
:100530006E207048392E302020202020204C6F65FE
:1005400073756E67207461756368656E00732077DC
:10055000617274656E202D3E204F4B202000536F3A
:100560006E646520696E207048372E302020202070
:1005700020204C6F6573756E6720746175636865C4
:100580006E00732077617274656E202D3E204F4B94
:10059000202000536F6E646520696E207048342EF1
:1005A000302020202020204C6F6573756E672074EA
:1005B00061756368656E202020202020004553432C
:1005C000206B616C69622E2061626272656368658E
:1005D0006E004F4B206B616C69622E2073746172E8
:1005E00074656E00704820536F6E6465206B616C9B
:1005F000696272696572656E00416C6C6573204F4B
:100600004B0049324320455252210054656D702001
:100610002B2B210054656D70202D2D21007048205A
:100620002B2B210000007048202D2D2100000057A9
:1006300044542045525221002020004D6F0044694F
:10064000004D6900446F00467200536100536F0013
:1006500011241FBECFEFD0E1DEBFCDBFE4EFF3E04A
:100660008AEA91E18193E030F907E0F312E0A0E03B
:10067000B1E0E2ECF7E302C005900D92AA3CB107AD
:10068000D9F723E0AAECB2E001C01D92A43FB20763
:10069000E1F70E94CB150C94DF1B0C940000EAE7F5
:1006A000F0E0808187608083ECE7F0E080818083E8
:1006B000089590917A00906890937A0090917C00D0
:1006C000892B80937C0080917A00806480937A00EB
:1006D00080917A0086FDFCCF80917800909179001E
:1006E00020E180E090E030917A00306430937A002D
:1006F00030917A0036FDFCCF40917800509179001E
:10070000840F951F215079F720917A002F7720933D
:100710007A0024E0969587952A95E1F708954F92FF
:100720005F926F927F928F929F92AF92BF92CF9281
:10073000DF92EF92FF920F931F93CF93DF938C0181
:100740006B017A01E901FB01A080B180FA012081EF
:1007500031812A193B0940E050E060E27EE480E00C
:1007600090E00E941F182E873F87488B598BD50138
:100770000E94761820E7422E21E1522E66246394CF
:10078000712CA3019201261B370B480B590B2A8BA6
:100790003B8B4C8B5D8BF801008111819501201BF7
:1007A000310B40E050E060E375E780E090E00E94AC
:1007B0001F182E833F8348875987D8010E947618D7
:1007C00030E4832E3CE9932EA12CB12CA501940199
:1007D000261B370B480B590B2A873B874C875D87B5
:1007E00019830883F601808191819B838A83F701B5
:1007F000808191819D838C83DF91CF911F910F9197
:10080000FF90EF90DF90CF90BF90AF909F908F9030
:100810007F906F905F904F9008950F931F93CF93A9
:10082000DF93EC0184E00E9459036A817B819C0183
:1008300040E050E08617970758F46E817F818885E5
:1008400099850E94EF170A851B852C853D850AC076
:100850006E857F85888999890E94EF170A891B898F
:100860002C893D89600F711F821F931F2AE030E0A1
:1008700040E050E00E941F18C901DF91CF911F9105
:100880000F910895CF9380ED0E94A206882339F03E
:100890000E94ED0681E08093EB02CF91089580E005
:1008A0000E94F50681ED0E94EB060E941007C82FFA
:1008B0000E94ED0680ED0E94A20680E00E94F506EF
:1008C0008C2F8F770E94F506CF910C94ED06CF9276
:1008D000DF92EF92FF920F931F93CF93DF93EC0180
:1008E00080ED0E94A206882331F00E94ED0681E08F
:1008F0008093EB0257C080E00E94F50681ED0E94D4
:10090000EB060E940607D82E0E940607E82E0E94DA
:100910000607F82E0E940607C82E0E940607082F19
:100920000E940607182F0E9410079D2D92959F7018
:100930002D2D2F70D22E3AE0939FD00C1124D98206
:100940009E2D92959F702E2D2F70E22E3AE0939F50
:10095000E00C1124E8829F2D92959F702F2D2F700F
:10096000F22E3AE0939FF00C1124FA82902F929588
:100970009F700F702AE0929F000D11240B83CC8290
:10098000912F92959F701F703AE0939F100D112444
:100990001D83982F92959F708F702AE0929F800DF3
:1009A00011248E83DF91CF911F910F91FF90EF90D3
:1009B000DF90CF9008950F931F93CF938C0180ED1C
:1009C0000E94A206882349F00E94ED0681E08093F0
:1009D000EB02CF911F910F91089580E00E94F506E0
:1009E000F8018181CAE06C2F0E94FF17292FF0E1E6
:1009F0008F9FC0011124822B0E94F506F80180818F
:100A00006C2F0E94FF17292FF0E18F9FC001112446
:100A1000822B0E94F506F80182816C2F0E94FF173D
:100A2000292FF0E18F9FC0011124822B0E94F5062F
:100A3000CF911F910F910C94ED061F93CF93DF93ED
:100A4000EC0180ED0E94A206882349F00E94ED0689
:100A500081E08093EB02DF91CF911F91089583E0B5
:100A60000E94F5068C810E94F5068B811AE0612FA9
:100A70000E94FF17292F30E1839FC0011124822B90
:100A80000E94F5068D81612F0E94FF17292F30E10A
:100A9000839FC0011124822B0E94F5068E81612F55
:100AA0000E94FF17292F30E1839FC0011124822B60
:100AB0000E94F506DF91CF911F910C94ED06CF9324
:100AC000C82F80E70E94C406809100019091010127
:100AD000892B19F08C2F806402C08C2F8F7B0E9491
:100AE000F506CF910C94ED06CF93C82FC0688C2FDC
:100AF0000E945F058C2F0E945F0580E0CF910C94CF
:100B00005F05CF93C82F82958F7080610E94740516
:100B10008C2F8F708061CF910C947405CF93BC01A2
:100B20008AEC92E00E948118C0E0EC2FF0E0E653DE
:100B3000FD4F8081882329F080810E948105CF5F4D
:100B4000F4CFCF9108950F931F93CF938C01C0E002
:100B5000F801EC0FF11D8081882321F00E948105AE
:100B6000CF5FF6CFCF911F910F910895CF939FEF55
:100B7000980F9430F8F49FEF960F9431D8F48330A7
:100B800041F0843041F0823011F0CFE705C0CFEB67
:100B900003C0C3E901C0C3EDC60F8C2F82958F70CF
:100BA00080680E9474058C2F8F7080680E94740585
:100BB00081E001C080E0CF910895CF93DF93D42FDF
:100BC0000E94B605C82F882319F08D2F0E94810539
:100BD0008C2FDF91CF910895FF920F931F93CF93A6
:100BE000DF93F82EC62F8A01D0E0F801ED0FF11D3A
:100BF0004081442361F06C2F8F2D0E94DD058823F6
:100C000039F0CF5FC53108F0C1E0DF5FEECF81E0A2
:100C1000DF91CF911F910F91FF900895EF92FF9276
:100C20001F93CF93DF93C82FD62F7A0110E0F701DF
:100C3000E10FF11D4081442381F06D2F8C2F0E9424
:100C4000DD05882359F0DF5FD53110F0CF5FD1E0AB
:100C5000C53008F0C1E01F5FEACF81E0DF91CF919E
:100C60001F91FF90EF9008950F931F93CF938A01E8
:100C70000E94B605C82F882319F0C8010E94A30559
:100C80008C2FCF911F910F910895AC0120E030E09F
:100C900085E02417350731F0982F9A95F1F72F5FEB
:100CA0003F4FF7CF089520E030E040EA5FE028179B
:100CB000390731F0FA013197F1F72F5F3F4FF7CF46
:100CC0000895CF93C82F82958F700E9474058C2F42
:100CD0008F700E94740581E090E0CF910C945306D0
:100CE00080E190E00E94530683E00E94740585E055
:100CF00090E00E94530683E00E94740585E690E030
:100D00000E94450683E00E94740582E00E947405FB
:100D100088E20E94610688E00E94610681E00E94EC
:100D2000610686E00E9461068CE00C946106909357
:100D300001018093000108951092B90088E4809326
:100D4000B800089594EA9093BC009091BC0097FF7E
:100D5000FCCF9091B900987F983021F0903111F03C
:100D600081E008958093BB0084E88093BC0080916B
:100D7000BC0087FFFCCF8091B900887F883111F0DB
:100D8000803471F780E0089524EA34E844E9209340
:100D9000BC009091BC0097FFFCCF9091B900987F68
:100DA000983011F0903199F78093BB003093BC00DC
:100DB0009091BC0097FFFCCF9091B900987F903242
:100DC00011F0983539F44093BC009091BC0094FD2B
:100DD000FCCFDDCF08950C94A20684E98093BC007B
:100DE0008091BC0084FDFCCF08958093BB0084E813
:100DF0008093BC008091BC0087FFFCCF9091B9002C
:100E0000987F81E0983209F480E0089584EC809323
:100E1000BC008091BC0087FFFCCF8091BB0008958F
:100E200084E88093BC008091BC0087FFFCCF809158
:100E3000BB000895E9EEF1E082E091E096838583BE
:100E4000918B808B948F838F97A386A3E8ECF1E03E
:100E500096838583918B808B948F838FEFE4F1E071
:100E600096838583918B808B948F838F97A386A3A2
:100E700092AB81AB90934A01809349019093120306
:100E8000809311031092DE02EFEDF2E010821182E6
:100E9000128213820895E0911103F091120392815E
:100EA0008230E9F130F4882359F0813009F469C0C7
:100EB00008958430E9F098F1853009F462C008950E
:100EC000E091DE02F0E0E152FD4F8081E091DE0230
:100ED000F0E0811105C08FEF890FE152FD4F04C092
:100EE000E152FD4F80818150808381E00C94610646
:100EF000E091DE02F0E0E152FD4F208130E0892FE9
:100F000090E00197E091DE02F0E0E152FD4F2817FA
:100F1000390711F41082E9CF80818F5FE5CFA0916E
:100F2000DE02B0E0A152BD4F8C91DF019BE0899FB2
:100F3000A00DB11D112411968C91A091DE02B0E09C
:100F4000A152BD4F811112C08C919BE0899FE00D91
:100F5000F11D1124838194819093120380931103D6
:100F60008091DE028F5F8093DE02BFCF8C919BE089
:100F7000899FE00DF11D11240184F285E02D099572
:100F8000B4CF82E091E0909312038093110381E04B
:100F90000E9461061092DE021092DF021092E002BF
:100FA0001092E1021092E20208951F93CF93DF9313
:100FB00061E081E00E94B605E091DE02F0E0E152DE
:100FC000FD4F1081C12FD1E061E08D2F0E94B60549
:100FD0001C1302C0D13041F5E091DE02F0E0E15295
:100FE000FD4F80818C1303C08EE30E94810562E077
:100FF0008D2F0E94B605E0911103F09112038BE052
:10100000C89FE00DF11D1124878190850E948E05F7
:10101000CF5FE0911103F09112038281C81708F0AD
:10102000C0E0DF5FD53081F6DF91CF911F91089549
:10103000CF93DF93C82F0E94A206882341F00E941D
:10104000ED0681E08093EB0280E090E01BC080E041
:101050000E94F50681E08C0F0E94EB060E940607B5
:10106000C82F0E941007D82F0E94ED068C2FCC0F9E
:10107000990B982F88278D0F911D33E095958795B3
:101080003A95E1F7DF91CF910895DF92EF92FF92C9
:101090000F931F93CF93DF93CDB7DEB728970FB68B
:1010A000F894DEBF0FBECDBFD82E8E010F5F1F4F4D
:1010B0007E0189E0E80EF11C8D2D0E941808F801D0
:1010C000819391938F01EE15FF05B1F789819A8184
:1010D0006B817C8121E08617970709F420E04D8120
:1010E0005E816417750709F021E06F8178856417C8
:1010F000750721F4211102C0009741F481E080932B
:10110000EB028091E3029091E40204C09093E40228
:101110008093E30228960FB6F894DEBF0FBECDBFD2
:10112000DF91CF911F910F91FF90EF90DF90089585
:1011300085B5856085BDEEE6F0E0808181608083C5
:1011400081E28093800083E0809381007894089509
:101150008FE081B980E38AB987B1806C87B908953F
:10116000EF92FF920F931F93CF93DF93162F072FCA
:1011700021E732E0DC010E946F1820E137E240E015
:1011800050E00E944118F22EE32EC22FD32F28EEFA
:1011900033E040E050E00E94411837FF2FC0319506
:1011A00021953109CD2BA9F43F932F931F921F92C4
:1011B00085E192E09F938F930F931F930E94B51840
:1011C0008DB79EB708960FB6F8949EBF0FBE8DBF21
:1011D00029C03F932F93EF92FF9286E192E09F9375
:1011E0008F930F931F930E94B5188DB79EB70896E3
:1011F0000FB6F8949EBF0FBE8DBF14C03F932F93C0
:10120000EF92FF9286E192E09F938F930F931F934B
:101210000E94B5188DB79EB708960FB6F8949EBF7A
:101220000FBE8DBFDF91CF911F910F91FF90EF9077
:1012300008959B01C29668EE73E00E940B18462F3A
:10124000E72F64E670E00E940B187F936F93EF9393
:101250004F938BE392E09F938F933F932F930E9442
:10126000B5188DB79EB708960FB6F8949EBF0FBEFF
:101270008DBF08958F929F92AF92BF92CF92DF92CF
:10128000EF92FF920F931F93CF93DF93EC017B01BB
:1012900010E001E08BE3982E97E1892E2DE1C22E1C
:1012A00022E0D22E38E9A32E33E0B32E8FE00E9445
:1012B0006106612F660F610F6E5F83E00E94B605C5
:1012C00088E00E94DA17882329F0123009F4E3C07D
:1012D0001F5F3BC082E00E94DA17882321F01123B0
:1012E000B9F1115032C080E20E94C4178111C4C00C
:1012F00084E00E94C417882341F18CE00E946106BB
:1013000081E00E946106E114F10449F0F89447E09D
:1013100050E0B701CE010E94901B789403C0CE012B
:101320000E94DB0442E452E061E081E00E94EC05AF
:101330002FEF89E698E1215080409040E1F700C00E
:10134000000081E00E94610697C0002311F104C0F3
:10135000002309F469C012E089811F928F9388816C
:101360001F928F938A811F928F93DF92CF92BF92A9
:10137000AF920E94B51848E953E061E083E00E9413
:1013800034068DB79EB70A960FB6F8949EBF0FBE6F
:101390008DBF113041F1123009F446C081E00E9446
:1013A000C417182F81E00E94CF17812B39F08A8152
:1013B000873111F41A8215C08F5F12C080E10E943C
:1013C000C417182F80E10E94CF17812B19F410E069
:1013D00000E06CCF8A81811102C08A8202C08150F4
:1013E0008A8310E047C081E00E94C417082F81E083
:1013F0000E94CF17802B39F088818B3311F418822B
:1014000039C08F5F0FC080E10E94C417082F80E1B0
:101410000E94CF17802BE1F28881811102C098824F
:1014200029C08150888326C081E00E94C417182FEC
:1014300081E00E94CF17812B49F089818B3311F411
:10144000198202C08F5F898301E001C000E080E162
:101450000E94C417182F80E10E94CF17812B11F42E
:1014600012E024CF8981811102C0998202C081508B
:10147000898312E001E01ACF81E0DF91CF911F91C3
:101480000F91FF90EF90DF90CF90BF90AF909F9023
:101490008F900C946106002309F480CF10E05CCF9C
:1014A0007F928F929F92AF92BF92CF92DF92EF92F4
:1014B000FF920F931F93CF93DF93EC018FE00E9475
:1014C000610600E011E03CE2E32E32E0F32E48E951
:1014D000C42E43E0D42E5CE0B52E63E6A62E7FE159
:1014E000972EE7E08E2E602F660F600F6E5F83E011
:1014F0000E94B60588E00E94DA17882321F00330A5
:1015000089F10F5F32C082E00E94DA17882321F050
:10151000002351F1015029C080E20E94C4178111BB
:10152000F2C084E00E94C4178823F9F08CE00E9486
:10153000610681E00E946106CE010E941D0542E421
:1015400052E061E081E00E94EC052FEF89E698E12E
:10155000215080409040E1F700C0000081E00E94EF
:101560006106D1C000E001C003E01123B1F16C813C
:1015700070E0CB01880F991F680F791F685C794F65
:101580008EE293E00E9481180E94A3054EE253E090
:1015900061E083E00E94340680E792E00E94A305A8
:1015A0008E811F928F938D811F928F938B811F92BB
:1015B0008F93FF92EF92DF92CF920E94B51848E985
:1015C00053E064E083E00E9434068DB79EB70A962C
:1015D0000FB6F8949EBF0FBE8DBF81E0023009F4B4
:1015E00049C0033009F46AC0013021F10E94C417D8
:1015F000182F81E00E94CF17812B39F08C81873022
:1016000011F481E014C08F5F12C080E10E94C41702
:10161000182F80E10E94CF17812B19F400E010E011
:1016200062CF8C81813011F48C8202C081508C8316
:1016300000E067C00E94C417182F81E00E94CF17F6
:10164000812B39F08B818F3111F40B835AC08F5F5E
:101650000FC080E10E94C417182F80E10E94CF17AD
:10166000812BE9F28B81813011F49B824AC0815039
:101670008B8347C00E94C417182F81E00E94CF17A8
:10168000812B49F08D818C3011F481E001C08F5F96
:101690008D8311E001C010E080E10E94C417782E14
:1016A00080E10E94CF17872909F41DCF8D818130F9
:1016B00011F4BD8226C081508D8323C00E94C417BF
:1016C000182F81E00E94CF17812B49F08E8183363D
:1016D00011F41E8202C08F5F8E8311E001C010E002
:1016E00080E10E94C417782E80E10E94CF178729DD
:1016F00009F4F9CE8E81811102C0AE8202C0815000
:101700008E8311E0F0CE81E0DF91CF911F910F9198
:10171000FF90EF90DF90CF90BF90AF909F908F9011
:101720007F900C946106FF920F931F93CF93DF93EA
:10173000EC01F88042E552E061E081E00E94EC05B6
:1017400080E90E9418088C0168E973E00E94B008E3
:1017500045E652E061E082E00E94EC0588E993E012
:101760000E94A30542E752E061E083E00E94EC059D
:10177000888168E973E09801280F311D87FD3A954B
:10178000C9010E94B00888E993E00E94A3058881FE
:1017900068E973E0082E000C990B0E94B00840E83D
:1017A00052E061E084E00E94EC0588E993E00E9449
:1017B000A3058FE692E00E94A30581E00E94C41772
:1017C000182F81E00E94CF17812B19F088818E5F3E
:1017D000888380E10E94C417182F80E10E94CF17F0
:1017E000812B19F088818250888384E00E94C4177D
:1017F000182F84E00E94CF17812B09F181E00E940D
:10180000610642E452E061E081E00E94EC05F89458
:1018100068818EE690E00E949A1B78943FEF89E6FB
:1018200098E1315080409040E1F700C0000081E035
:10183000DF91CF911F910F91FF900C94610680E290
:101840000E94C417182F80E20E94CF17812B09F441
:1018500077CFF882DF91CF911F910F91FF9008957C
:101860006F927F928F929F92AF92BF92CF92DF92B0
:10187000EF92FF920F931F93CF93DF93CDB7DEB715
:101880002D970FB6F894DEBF0FBECDBF3C014B01C4
:101890006A017901580196E0F901DE01189601907C
:1018A0000D929A95E1F71982A30161E082E00E940E
:1018B000EC05A40161E083E00E94EC05A60161E073
:1018C00084E00E94EC0512E001E088E5C82E82E089
:1018D000D82E61E1812F0E94B6058FE00E9461063B
:1018E00088E00E94DA17882321F0133009F042C003
:1018F000E4C082E00E94DA17882321F0123009F058
:10190000DCC038C084E00E94C417882309F18CE051
:101910000E94610681E00E94610642E452E061E0BB
:1019200081E00E94EC05F89446E050E0B501C70163
:101930000E94901B78942FEF49E658E121504040D7
:101940005040E1F700C0000081E00E946106BAC08B
:1019500080E20E94C417882349F086E0FE01389691
:10196000D70101900D928A95E1F7ACC0002309F4EC
:1019700042C004C0002309F461C013E0BE016F5FE0
:101980007F4FF701808191810E94B008AE014F5FC7
:101990005F4F6EE082E00E94EC05BE016F5F7F4FFB
:1019A000F701828193810E94B008AE014F5F5F4FC3
:1019B0006EE083E00E94EC05F70180819181228135
:1019C0003381BE016F5F7F4F821793071CF0821B2C
:1019D000930B04C0A901481B590BCA010E94B0080F
:1019E000AE014F5F5F4F6EE084E00E94EC0580E740
:1019F00092E00E94A305133009F181E00E94C41710
:101A0000182F81E00E94CF17812B69F0F7018081A8
:101A100091818835F2E09F0721F4F701118210824D
:101A20002EC0029629C080E10E94C417182F80E1C1
:101A30000E94CF17812BB9F412E013C081E00E94FD
:101A4000C417182F81E00E94CF17812BD1F480E1B9
:101A50000E94C417182F80E10E94CF17812BF1F448
:101A600013E000E036CFF70180819181009719F4EF
:101A7000D182C08204C00297F7019183808312E073
:101A80001AC0F701828193818835F2E09F0721F423
:101A9000F701138212820EC0029609C0F7018281FB
:101AA0009381009719F4D382C28204C00297F70190
:101AB0009383828313E001E00CCF002309F49DCFD0
:101AC00012E05CCF2D960FB6F894DEBF0FBECDBFEF
:101AD000DF91CF911F910F91FF90EF90DF90CF900A
:101AE000BF90AF909F908F907F906F900895CF920E
:101AF000DF92EF92FF921F93CF93DF9300D000D03D
:101B000000D0CDB7DEB781E00E94610664EE75E0DB
:101B10008EE293E00E948118AC0161E081E00E94B6
:101B2000EC0562ED75E08EE293E00E948118AC0155
:101B300061E082E00E94EC056DEB75E08EE293E0DF
:101B40000E948118AC0161E083E00E94EC0584EB07
:101B5000C82ED12CE12CF12C80E20E94C4178823DE
:101B600089F081E00E94610626960FB6F894DEBFE8
:101B70000FBECDBFDF91CF911F91FF90EF90DF900F
:101B8000CF90089584E00E94C417182F84E00E942B
:101B9000CF17812B09F3C0920903D0920A03E09278
:101BA0000B03F0920C0363E975E08EE293E00E9470
:101BB0008118AC0161E082E00E940E068091090369
:101BC00090910A03A0910B03B0910C03BC01CD01CD
:101BD00061507109810991092AE030E048E953E038
:101BE0000E94881848E953E061E084E00E94EC0517
:101BF00062E875E08EE293E00E9481180E94A305DE
:101C00008091090390910A03A0910B03B0910C03FA
:101C1000892B8A2B8B2B91F684E00E9459039E839B
:101C20008D8384E00E94C41784E00E94C417882337
:101C3000D9F3C0920903D0920A03E0920B03F09209
:101C40000C036EE575E08EE293E00E948118AC0112
:101C500061E082E00E940E068091090390910A03E0
:101C6000A0910B03B0910C03BC01CD01615071092F
:101C7000810991092AE030E048E953E00E94881880
:101C800048E953E061E084E00E94EC056DE475E012
:101C90008EE293E00E9481180E94A30580910903BF
:101CA00090910A03A0910B03B0910C03892B8A2B0E
:101CB0008B2B91F684E00E9459039C838B8384E0F4
:101CC0000E94C41784E00E94C4178823D9F3C092ED
:101CD0000903D0920A03E0920B03F0920C0369E22D
:101CE00075E08EE293E00E948118AC0161E082E031
:101CF0000E940E068091090390910A03A0910B03A4
:101D0000B0910C03BC01CD016150710981099109A9
:101D10002AE030E048E953E00E94881848E953E09F
:101D200061E084E00E94EC0568E175E08EE293E0FA
:101D30000E9481180E94A3058091090390910A03D3
:101D4000A0910B03B0910C03892B8A2B8B2B91F65E
:101D500084E00E9459039A83898323EF32E0AE0125
:101D60004F5F5F4FBE016D5F7F4FCE0105960E94B2
:101D70008F0384E00E94C41766EF74E08EE293E064
:101D80000E948118AC0161E082E00E940E0664EEC0
:101D900074E08EE293E00E948118AC0161E084E07F
:101DA0000E943406D9CE81E00E9461068DEE92E059
:101DB0000E94930B81E00C946106EF92FF920F93C7
:101DC0001F93CF93DF9381E00E9461066FEC74E074
:101DD0008EE293E00E948118AC0161E081E00E94F4
:101DE0000E0664EC74E089EC93E00E9481187C019B
:101DF00068EB74E088E993E00E948118EC016CEADA
:101E000074E08EE293E00E94811801E610E02EE576
:101E100033E0A701BE010E94300C81E0DF91CF9139
:101E20001F910F91FF90EF900C946106EF92FF923B
:101E30000F931F93CF93DF9381E00E94610668E9BF
:101E400074E08EE293E00E948118AC0161E081E0D1
:101E50000E940E066DE874E089EC93E00E94811800
:101E60007C0160E874E088E993E00E948118EC014D
:101E700063E774E08EE293E00E9481180BE510E0C6
:101E800028E233E0A701BE010E94300C81E0DF911F
:101E9000CF911F910F91FF90EF900C946106EF92FC
:101EA000FF920F931F93CF93DF9381E00E9461060F
:101EB0006FE574E08EE293E00E948118AC0161E06E
:101EC00081E00E940E0664E574E089EC93E00E94D4
:101ED00081187C0169E474E088E993E00E9481182C
:101EE000EC016EE374E08EE293E00E94811807E655
:101EF00010E022E733E0A701BE010E94300C81E030
:101F0000DF91CF911F910F91FF90EF900C9461069C
:101F100081E00E94610661E274E08EE293E00E943B
:101F20008118AC0161E081E00E940E068BE693E02F
:101F30000C94500A81E00E94610664E074E08EE235
:101F400093E00E948118AC0161E081E00E940E06DE
:101F500060E070E08BE693E00C943A0981E00E9427
:101F600061066DED73E08EE293E00E948118AC0192
:101F700061E081E00E940E0668E370E084EB93E08C
:101F80000C943A0981E00E94610666EB73E08EE2F0
:101F900093E00E948118AC0161E081E00E940E068E
:101FA00061E370E081E993E00C943A0981E00E94DA
:101FB00061066FE873E08EE293E00E948118AC0145
:101FC00061E081E00E940E066EE070E08CEE93E02E
:101FD0000C943A0981E00E94610668E673E08EE2A3
:101FE00093E00E948118AC0161E081E00E940E063E
:101FF00067E070E084E693E00C943A0981E00E9487
:10200000610663E473E08EE293E00E948118AC0104
:1020100061E081E00E940E0664E870E088E793E0EA
:102020000C943A0981E00E9461066EE173E08EE251
:1020300093E00E948118AC0161E081E00E940E06ED
:102040006DE770E087E593E00C943A0981E00E9427
:10205000610669EF72E08EE293E00E948118AC01A4
:1020600061E081E00E940E0666E770E08DEA93E091
:102070000C943A0981E00E94610664ED72E08EE200
:1020800093E00E948118AC0161E081E00E940E069D
:102090006FE670E082EC93E00C943A0981E00E94D4
:1020A000610666EB72E08EE293E00E948118AC015B
:1020B00061E081E00E940E066CE170E08BEB93E042
:1020C0000C943A0981E00E9461066CE872E08EE2AD
:1020D00093E00E948118AC0161E081E00E940E064D
:1020E0006AE270E08EED93E00C943A0981E00E9480
:1020F000610661E672E08EE293E00E948118AC0115
:1021000061E081E00E940E0663E270E085EE93E0FC
:102110000E943A0981E00C9461060E94770DF894C0
:1021200046E150E06FE370E083EF92E00E94901B85
:102130007894089581E00E9461066DE272E08EE27B
:1021400093E00E948118AC0161E081E00E940E06DC
:102150006FE172E08EE293E00E948118AC0161E0D1
:1021600082E00E940E066EE072E08EE293E00E9432
:102170008118AC0161E083E00E940E0666E072E027
:102180008EE293E00E948118AC0161E084E00E943D
:102190000E068FEF0E94C4178823D9F381E00C94B8
:1021A00061060F931F93CF93DF9381E00E94610636
:1021B0006FEF71E08EE293E00E948118AC0161E064
:1021C00081E00E940E0668E973E080917F039091A0
:1021D00080030E94B00888E993E00E94A3058091E3
:1021E00084031F928F93809183031F928F9380911A
:1021F00085031F928F930DE112E01F930F93C8E99F
:10220000D3E0DF93CF930E94B518AE016DE081E07B
:102210000E940E0668EF71E08EE293E00E94811842
:10222000AC0161E082E00E940E06BE018091810354
:10223000909182030E94B008CE010E94A305809174
:102240008B031F928F9380918A031F928F938091AB
:102250008C031F928F931F930F93DF93CF930E9452
:10226000B518AE016DE082E00E940E0661EF71E0EC
:102270008EE293E00E948118AC0161E083E00E944D
:102280000E06BE0180911603909117030E94190952
:10229000CE010E94A30580911B031F928F93809112
:1022A0001A031F928F9380911C031F928F931F9389
:1022B0000F93DF93CF930E94B518AE016DE083E0DA
:1022C0000E940E066AEE71E08EE293E00E94811891
:1022D000AC0161E084E00E940E06BE01809118030B
:1022E000909119030E941909CE010E94A3058091C3
:1022F00022031F928F93809121031F928F938091CD
:1023000023031F928F931F930F93DF93CF930E940A
:10231000B5188DB79EB788960FB6F8949EBF0FBEBE
:102320008DBFAE016DE084E00E940E068FEF0E942B
:10233000C4178823D9F381E0DF91CF911F910F91CA
:102340000C946106FA0120813181FB0140815181A9
:102350004217530744F0FC01808191812817390707
:1023600024F080E0089581E0089582E008954F927E
:102370005F926F927F928F929F92AF92BF92CF9215
:10238000DF92EF92FF92CF93DF937C01EB01FA0192
:10239000DC014C9112962C9130E0A0E1BEE00E944D
:1023A00060184B015C01242F30E0ACE3B0E00E94E8
:1023B0006018860E971EA81EB91ED70111968C9123
:1023C000880E911CA11CB11C48812A8130E0A0E13B
:1023D000BEE00E9460186B017C01242F30E0ACE36A
:1023E000B0E00E946018C60ED71EE81EF91E898153
:1023F000C80ED11CE11CF11C4081228130E0A0E11B
:10240000BEE00E9460182B013C01242F30E0ACE3B9
:10241000B0E00E946018AB01BC01440D551D661D63
:10242000771D8181480F511D611D711DC814D9048C
:10243000EA04FB0438F481E084169506A606B70684
:1024400038F40CC084169506A606B70630F481E071
:102450004C155D056E057F0508F080E0DF91CF919A
:10246000FF90EF90DF90CF90BF90AF909F908F90B4
:102470007F906F905F904F900895CF934BE653E01D
:1024800061E973E084EB93E00E94B711C091F3031C
:1024900081110AC04BE653E064E673E08CEE93E0F2
:1024A0000E94B711882311F0C46001C0CB7FC09394
:1024B000F3034BE653E065EE73E08EED93E00E948C
:1024C000B7119091F303882311F0986001C0977FB2
:1024D0009093F303CF91089549EE52E068E273E0E0
:1024E0008AE293E00E94A211813031F0823049F4F7
:1024F0008091F3038D7F03C08091F303826080930A
:10250000F30349EE52E062E773E084E793E00E9450
:10251000A211813021F0823029F483E001C082E0F1
:102520008093EB0249EE52E060E673E08EE593E0C3
:102530000E94A211813019F0823029F00895809113
:10254000F3038E7F03C08091F30381608093F303D4
:102550000895CF92DF92EF92FF92FC0180910903E0
:1025600090910A03A0910B03B0910C03892B8A2B45
:102570008B2B19F54081228130E0A0E1BEE00E9462
:1025800060186B017C01242F30E0ACE3B0E00E94C6
:102590006018DC01CB018C0D9D1DAE1DBF1D21817E
:1025A000820F911DA11DB11D8093090390930A0311
:1025B000A0930B03B0930C0308C010920903109270
:1025C0000A0310920B0310920C03FF90EF90DF9020
:1025D000CF900895F8948EE690E00E94881B809337
:1025E000ED028DE690E00E94881B8093EC0246E1AC
:1025F00050E06FE370E083EF92E00E94781B47E0C9
:1026000050E068E370E084EB93E00E94781B47E0C1
:1026100050E061E370E081E993E00E94781B47E0BD
:1026200050E06EE070E08CEE93E00E94781B47E093
:1026300050E067E070E084E693E00E94781B47E09A
:1026400050E06AE270E08EED93E00E94781B47E074
:1026500050E063E270E085EE93E00E94781B46E074
:1026600050E067E670E082E793E00E94781B46E066
:1026700050E061E670E08EE593E00E94781B46E052
:1026800050E06BE570E088E293E00E94781B46E042
:1026900050E06CE170E08BEB93E00E94781B789443
:1026A00008952FEF829FC001112464E670E00E941C
:1026B0000B1870938B0060938A0008959F92AF92DD
:1026C000BF92CF92DF92EF92FF920F931F93CF931F
:1026D000DF93EC015B0108814DE852E061E083E0AB
:1026E0000E94EC0511E08CE9E82E82E0F82E98E9D2
:1026F000C92E93E0D92E24E6922E88810E94511390
:102700001123A9F088811F928F93FF92EF92DF929D
:10271000CF920E94B51848E953E06DE083E00E9433
:1027200034060F900F900F900F900F900F9084E051
:102730000E94C417182F84E00E94CF17812B51F1FB
:1027400010928B0010928A0081E00E94610642E4A0
:1027500052E061E081E00E94EC05F8946881C501D7
:102760000E949A1B78942FEF89E698E121508040CF
:102770009040E1F700C0000081E0DF91CF911F9110
:102780000F91FF90EF90DF90CF90BF90AF909F9010
:102790000C94610680E20E94C417182F80E20E9408
:1027A000CF17812B89F0088310928B0010928A003A
:1027B000DF91CF911F910F91FF90EF90DF90CF901D
:1027C000BF90AF909F90089581E00E94C417182F8A
:1027D00081E00E94CF17812B39F08881843611F473
:1027E000188214C08F5F11C080E10E94C417182F97
:1027F00080E10E94CF17812B11F410E07ECF8881F9
:10280000811102C0988202C08150888311E075CF87
:1028100081E00E9461066CE472E08EE293E00E9427
:102820008118AC0161E081E00E94EC0561E472E096
:102830008EE293E00E948118AC0161E082E00E9488
:10284000EC056DE670E08CEE92E00E945E1381E094
:102850000C9461068091F30384FF89C0479A8091AC
:10286000F30380FF02C0129A01C012988091F30313
:1028700081FF02C0119A01C011988091F30382FF79
:1028800002C0139A01C013988091F30383FF05C01F
:102890008091EC020E94511304C010928B001092A0
:1028A0008A008091EB02882349F08091F30386FF30
:1028B00002C05D9801C05D9A469A02C046985D9834
:1028C00049EE52E06FE773E081E893E00E94A211C5
:1028D000813081F08230F9F48091E9029091EA022E
:1028E000909382038093810387E0EBE6F3E0AAE80C
:1028F000B3E00DC08091E9029091EA0290938003C9
:1029000080937F0387E0EBE6F3E0A3E8B3E0019078
:102910000D928A95E1F747EE52E066E173E088E1B7
:1029200093E00E94A211813081F0823059F58091AC
:10293000E7029091E802909319038093180387E0CF
:10294000EBE6F3E0A1E2B3E00DC08091E7029091E5
:10295000E802909317038093160387E0EBE6F3E019
:10296000AAE1B3E001900D928A95E1F70BC0479878
:1029700012981198139A46985D98109810928B00AF
:1029800010928A008091F30385FF02C0109A089587
:102990001098089580916E039091E5028917F1F1E6
:1029A0002091E9023091EA023093800320937F0363
:1029B000309382032093810397E0EBE6F3E0A3E8F2
:1029C000B3E001900D929A95E1F797E0EBE6F3E022
:1029D000AAE8B3E001900D929A95E1F72091E70201
:1029E0003091E802309317032093160330931903B4
:1029F0002093180397E0EBE6F3E0AAE1B3E001903F
:102A00000D929A95E1F797E0EBE6F3E0A1E2B3E0EF
:102A100001900D929A95E1F78093E50208958CE07C
:102A20000E94610680916C031F928F9380916B03CB
:102A30001F928F9380916D031F928F938DE192E08F
:102A40009F938F9388E993E09F938F930E94B5188B
:102A500048E953E061E081E00E94EC0580E20E94D9
:102A6000810560916F0370E0CB01880F991F680F9B
:102A7000791F685C794F8EE293E00E9481180E9472
:102A8000A30568E973E08091E9029091EA020E944F
:102A9000B00843EA52E061E082E00E94EC0588E978
:102AA00093E00E94A30549EA52E06BE082E00E94B5
:102AB000EC0569EC73E080917F03909180030E94A4
:102AC000B00889EC93E00E94A3054FEA52E06BE066
:102AD00083E00E940E0669EC73E08091810390917F
:102AE00082030E94B00889EC93E00E94A30545EBA5
:102AF00052E061E084E00E94EC058DB79EB70A9633
:102B00000FB6F8949EBF0FBE8DBF029902C08FE52D
:102B100001C08EE50E94810588EB92E00E94A3052A
:102B2000019902C08FE501C08EE50E9481058CEB02
:102B300092E00E94A305039902C08FE501C08EE5D3
:102B40000E94810580EC92E00E94A3058091F3032E
:102B500083FD02C08FE501C08EE50E94810585ECF2
:102B600092E00E94A305009902C08FE501C08EE5A6
:102B70000E9481056091EB0299E0699FB0011124E8
:102B800067507A4F8EE293E00E948118AC016DE0AD
:102B900081E00C94EC0504B603FE06C086E0809349
:102BA000EB0284B7877F84BF0FB6F894A895809115
:102BB0006000886180936000109260000FBE0E94E8
:102BC00098080E94EA120E94E1170E949C060E9447
:102BD00042040E9470060E94A8080E944F03789445
:102BE0002FEF83ED90E3215080409040E1F700C04B
:102BF00000009EE088E10FB6F894A89580936000ED
:102C00000FBE9093600080E90E9418082091ED02A9
:102C1000820F911D27FD9A959093EA028093E90215
:102C20008BE693E00E94670483EF92E00E940D041C
:102C30009093E8028093E7022091E9023091EA0242
:102C40003093800320937F0330938203209381038A
:102C5000909317038093160390931903809318039E
:102C60008091F30380638F7B8093F3030E941A07A4
:102C700085E00E944B0781E00E94610680E090E0C1
:102C80000E9497068CE00E946106C8E1DEE0A895EC
:102C90000E940F1584E00E94C417882309F44EC0D7
:102CA0000FB6F894A89580916000886180936000C9
:102CB000109260000FBE81E00E94610680E090E00B
:102CC0000E9497060E94D50781E00E94C4178823BE
:102CD00011F080E006C082E00E94C417882321F032
:102CE00081E00E944B07EECF84E00E94C417882346
:102CF00011F082E0F6CF88E00E94C417882311F01B
:102D000083E0EFCF80E10E94C417882311F084E0B4
:102D1000E8CF80E20E94C4178823A1F20FB6F8948E
:102D2000A895C09360000FBED093600085E00E941C
:102D30004B0781E00E9461061092E60280E80E9443
:102D4000C417882389F08091F30384FB222720F99C
:102D500091E0922790FB84F98093F30380E090E068
:102D60000E9497061092E60280E40E94C41788230E
:102D700051F08BEB93E00E94A91280E090E00E945A
:102D800097061092E60280E20E94C4178823D9F0C9
:102D90008091EB02882389F08091F30386FD04C0C3
:102DA00080648093F30309C08F7B8093F303809149
:102DB000E6028E3110F41092EB0280E090E00E9467
:102DC00097061092E6028BE30E94C417882331F025
:102DD00080E090E00E9497061092E6028091140332
:102DE0008823F9F0109214038BE693E00E946704A5
:102DF0000E943D120E94CA144091090350910A0397
:102E000060910B0370910C038091F303452B462BCB
:102E1000472B11F08F7D01C080628093F3030E94E5
:102E20002A1480910F03882309F431CF10920F03E5
:102E300080E90E9445082091ED02820F911D27FD37
:102E40009A959093EA028093E90283EF92E00E94C0
:102E50000D049093E8028093E7020E946C12809127
:102E6000E6028F3128F081E090E00E9497060FCFB4
:102E70008F5F8093E6020BCF1F920F920FB60F92D7
:102E800011242F938F939F93AF93BF9384E686BDB6
:102E900083B1909115038095282F29279091F202F4
:102EA0009223892F80958093F2029091F1029223D0
:102EB00098279093F10282238923909115039827F4
:102EC0009093150320911503909113038223892B6E
:102ED0008093130380911503811103C082E38093D3
:102EE000F0028091F002815019F08093F0020AC044
:102EF0008AE08093F0029091150380911003892B52
:102F0000809310038091EF028F5F823319F08093DA
:102F1000EF0230C01092EF0291E090931403809181
:102F2000EE028F5F823019F08093EE0223C0109280
:102F3000EE0290930F038091090390910A03A091F0
:102F40000B03B0910C03892B8A2B8B2B99F080916A
:102F5000090390910A03A0910B03B0910C03019710
:102F6000A109B1098093090390930A03A0930B036D
:102F7000B0930C03BF91AF919F918F912F910F90C0
:102F80000FBE0F901F901895F8949091130389230A
:102F90009091130398279093130378940895F894CD
:102FA0009091100389239091100398279093100318
:102FB00078940895F89490911503909589230C9432
:102FC000C4171092090310920A0310920B03109277
:102FD0000C0384B114B885B18FEF85B90895DB0176
:102FE0008F939F930E947618BF91AF91A29F800DFF
:102FF000911DA39F900DB29F900D11240895991BD0
:1030000079E004C0991F961708F0961B881F7A95DF
:10301000C9F780950895AA1BBB1B51E107C0AA1FE1
:10302000BB1FA617B70710F0A61BB70B881F991F69
:103030005A95A9F780959095BC01CD010895A1E21C
:103040001A2EAA1BBB1BFD010DC0AA1FBB1FEE1F22
:10305000FF1FA217B307E407F50720F0A21BB30B6D
:10306000E40BF50B661F771F881F991F1A9469F7E9
:1030700060957095809590959B01AC01BD01CF0145
:103080000895052E97FB1EF400940E94581857FDD2
:1030900007D00E941F1807FC03D04EF40C94581858
:1030A00050954095309521953F4F4F4F5F4F089574
:1030B00090958095709561957F4F8F4F9F4F0895A4
:1030C000A29FB001B39FC001A39F700D811D112469
:1030D000911DB29F700D811D1124911D08950E94B4
:1030E0006018B7FF0895821B930B08950E94601823
:1030F000A59F900DB49F900DA49F800D911D11244C
:103100000895FB01DC0105900D920020E1F7089580
:103110002532310520F4223010F00C949318FA0176
:103120001082CA010895BB27FA01A62F6217710504
:1031300081059105330B30FB66F0AA27660F771FD8
:10314000881F991FAA1FA21710F0A21B6395385061
:10315000A9F7A05DAA3308F0A95DA19336F7B111D4
:10316000B1931082CA010C94CE1AAEE0B0E0EBEB42
:10317000F8E10C94B61B0D891E8986E08C831A83B6
:1031800009838FEF9FE79E838D83AE01475E5F4F7C
:103190006F89788DCE0101960E94D718EF81F8854E
:1031A000E00FF11F10822E96E4E00C94D21BABE0EE
:1031B000B0E0EDEDF8E10C94A81B6C017B018A01F5
:1031C000FC0117821682838181FFCCC1CE0101965A
:1031D0003C01F6019381F70193FD859193FF819165
:1031E0007F01882309F4BAC1853239F493FD8591B2
:1031F00093FF81917F01853229F4B60190E00E940E
:10320000DE1AE7CF912C212C312CFFE1F315D8F0F9
:103210008B3279F038F4803279F08332A1F4232DA7
:1032200020611DC08D3261F0803369F4232D21604F
:1032300016C0832D8260382EE32DE4603E2E2AC016
:10324000F32DF8601DC037FC2DC020ED280F2A306B
:1032500040F08E32B9F436FC81C1232D2064322E29
:1032600019C036FE06C08AE0989E200D1124922EC9
:1032700011C0EAE02E9E200D1124222EF32DF062C3
:103280003F2E08C08C3621F4832D8068382E02C072
:10329000883641F4F70193FD859193FF81917F0179
:1032A0008111B3CF982F9F7D9554933028F40C5FF4
:1032B0001F4F9FE399830DC0833631F0833771F040
:1032C000833509F059C021C0F801808189830E5FE0
:1032D0001F4F88248394912C530113C02801F2E0DE
:1032E0004F0E511CF801A080B18036FE03C0692D3D
:1032F00070E002C06FEF7FEFC5010E94C31A4C015E
:103300008201F32DFF773F2E16C0280122E0420EE6
:10331000511CF801A080B18036FE03C0692D70E019
:1033200002C06FEF7FEFC5010E94B81A4C01F32D68
:10333000F0683F2E820133FC1BC0822D90E088167E
:103340009906B0F4B60180E290E00E94DE1A2A9459
:10335000F4CFF50137FC859137FE81915F01B6010D
:1033600090E00E94DE1A21102A9421E0821A91082E
:103370008114910471F7E8C0843611F0893641F563
:10338000F80137FE07C060817181828193810C5FF3
:103390001F4F08C060817181072E000C880B990BAC
:1033A0000E5F1F4FF32DFF763F2E97FF09C09095BC
:1033B0008095709561957F4F8F4F9F4FF0683F2E9E
:1033C0002AE030E0A3010E941A1B882E861845C00F
:1033D000853731F4232D2F7EB22E2AE030E025C030
:1033E000932D997FB92E8F36C1F018F4883579F076
:1033F000B5C0803719F0883721F0B0C0E92FE061FF
:10340000BE2EB4FE0DC0FB2DF460BF2E09C034FEED
:103410000AC0292F2660B22E06C028E030E005C081
:1034200020E130E002C020E132E0F801B7FE07C041
:1034300060817181828193810C5F1F4F06C0608122
:10344000718180E090E00E5F1F4FA3010E941A1B64
:10345000882E8618FB2DFF773F2E36FE0DC0232DBC
:103460002E7FA22E891458F434FE0BC032FC09C002
:10347000832D8E7EA82E05C0B82CA32C03C0B82C9B
:1034800001C0B92CA4FE0FC0FE01E80DF11D808122
:10349000803321F49A2D997EA92E09C0A2FE06C080
:1034A000B394B39404C08A2D867809F0B394A3FC36
:1034B00011C0A0FE06C0B21488F4280C922C9B18F0
:1034C0000EC0B21460F4B60180E290E00E94DE1AF1
:1034D000B394F7CFB21418F42B1802C0982C212CF7
:1034E000A4FE10C0B60180E390E00E94DE1AA2FEA6
:1034F00017C0A1FC03C088E790E002C088E590E017
:10350000B6010CC08A2D867859F0A1FE02C08BE26C
:1035100001C080E2A7FC8DE2B60190E00E94DE1AB5
:10352000891438F4B60180E390E00E94DE1A9A9480
:10353000F7CF8A94F301E80DF11D8081B60190E088
:103540000E94DE1A8110F5CF222009F442CEB60186
:1035500080E290E00E94DE1A2A94F6CFF60186817E
:10356000978102C08FEF9FEF2B96E2E10C94C41B72
:10357000FC010590615070400110D8F7809590953E
:103580008E0F9F1F0895FC01615070400190011043
:10359000D8F7809590958E0F9F1F0895DC01FC0150
:1035A000672F71917723E1F7329704C07C916D9377
:1035B00070836291AE17BF07C8F308950F931F93EE
:1035C000CF93DF93FB01238121FD03C08FEF9FEF9A
:1035D0002CC022FF16C046815781248135814217B5
:1035E000530744F4A081B1819D012F5F3F4F318388
:1035F00020838C93268137812F5F3F4F378326832B
:1036000014C08B01EC01FB010084F185E02D0995CC
:10361000892BE1F6D80116968D919C91179701960A
:1036200017969C938E931697CE01DF91CF911F91A1
:103630000F910895FA01AA27283051F1203181F124
:10364000E8946F936E7F6E5F7F4F8F4F9F4FAF4FAA
:10365000B1E03ED0B4E03CD0670F781F891F9A1FBD
:10366000A11D680F791F8A1F911DA11D6A0F711D71
:10367000811D911DA11D20D009F468943F912AE07D
:10368000269F11243019305D3193DEF6CF01089565
:10369000462F4770405D4193B3E00FD0C9F7F6CF96
:1036A000462F4F70405D4A3318F0495D31FD40525E
:1036B000419302D0A9F7EACFB4E0A69597958795F4
:1036C00077956795BA95C9F70097610571050895D3
:1036D0009B01AC010A2E069457954795379527957F
:1036E000BA95C9F7620F731F841F951FA01D089517
:1036F000DC01CB01FC01F999FECF06C0F2BDE1BDB2
:10370000F89A319600B40D9241505040B8F70895A0
:10371000F999FECF92BD81BDF89A992780B5089599
:10372000DC01CB0103C02D910E949B1B41505040F6
:10373000D0F70895262FF999FECF1FBA92BD81BD0B
:1037400020BD0FB6F894FA9AF99A0FBE0196089523
:103750002F923F924F925F926F927F928F929F92A1
:10376000AF92BF92CF92DF92EF92FF920F931F938F
:10377000CF93DF93CDB7DEB7CA1BDB0B0FB6F89440
:10378000DEBF0FBECDBF09942A88398848885F8480
:103790006E847D848C849B84AA84B984C884DF80F1
:1037A000EE80FD800C811B81AA81B981CE0FD11DD5
:1037B0000FB6F894DEBF0FBECDBFED010895F894AB
:0237C000FFCF39
:1037C2000100000006E9010000DD01000001000621
:1037D200C8010000CF0100000200064F010000C135
:1037E20001000003000644010000B30100000401CF
:1037F2000600000000A501D110050106000000002E
:1038020097019A10280101000000007C008D101E13
:10381200010B000000002301AE0F1F010B0000008E
:10382200001201C20F20010B000000000101D60F9F
:1038320021010B00000000F000EA0F22010B000042
:103842000000E100FE0F23010B00000000D2001275
:103852001024010B00000000C300261025010B00FC
:10386200000000B4003A1026010B00000000A9007D
:10387200621027010B000000009D00761032010B40
:10388200000000008A000814140103000000005523
:10389200019A0F150103000000004401880F160170
:1038A200030000000034014E100A01040000000071
:1038B2008701D30E0B0104000000007C01DD0E0C19
:1038C2000104000000007001160F0D010400000049
:1038D2000065014F0F2D25692E25694300253032E1
:1038E200643A253032643A2530326400253032643D
:1038F2002E253032642E253032640025752E257532
:10390200200053706569636865726520446174655F
:103912006E0054656D70657261747572204F6666D3
:103922007365743A004C4D37363A2020202020200F
:1039320020004B6F72722E2E2054656D703A20005B
:103942004F66667365743A20202020200048656C1B
:103952006C69676B6569743A2020200025303375E5
:1039620025250054656D703A00204D61783A00209B
:103972004D696E3A00483A00204B3A00204C3A001A
:0A398200204D4C3A0020503A00009E
:00000001FF
